{"abi":[{"type":"constructor","inputs":[],"stateMutability":"nonpayable"},{"type":"function","name":"DIAMOND","inputs":[],"outputs":[{"name":"","type":"uint256","internalType":"uint256"}],"stateMutability":"view"},{"type":"function","name":"GOLD","inputs":[],"outputs":[{"name":"","type":"uint256","internalType":"uint256"}],"stateMutability":"view"},{"type":"function","name":"IRON","inputs":[],"outputs":[{"name":"","type":"uint256","internalType":"uint256"}],"stateMutability":"view"},{"type":"function","name":"STONE","inputs":[],"outputs":[{"name":"","type":"uint256","internalType":"uint256"}],"stateMutability":"view"},{"type":"function","name":"WOOD","inputs":[],"outputs":[{"name":"","type":"uint256","internalType":"uint256"}],"stateMutability":"view"},{"type":"function","name":"balanceOf","inputs":[{"name":"account","type":"address","internalType":"address"},{"name":"id","type":"uint256","internalType":"uint256"}],"outputs":[{"name":"","type":"uint256","internalType":"uint256"}],"stateMutability":"view"},{"type":"function","name":"balanceOfBatch","inputs":[{"name":"accounts","type":"address[]","internalType":"address[]"},{"name":"ids","type":"uint256[]","internalType":"uint256[]"}],"outputs":[{"name":"","type":"uint256[]","internalType":"uint256[]"}],"stateMutability":"view"},{"type":"function","name":"getResourceInfo","inputs":[{"name":"resourceType","type":"uint256","internalType":"uint256"}],"outputs":[{"name":"name","type":"string","internalType":"string"},{"name":"rarity","type":"string","internalType":"string"},{"name":"totalSupply","type":"uint256","internalType":"uint256"}],"stateMutability":"view"},{"type":"function","name":"getUserResources","inputs":[{"name":"user","type":"address","internalType":"address"}],"outputs":[{"name":"resourceTypes","type":"uint256[]","internalType":"uint256[]"},{"name":"balances","type":"uint256[]","internalType":"uint256[]"}],"stateMutability":"view"},{"type":"function","name":"isApprovedForAll","inputs":[{"name":"account","type":"address","internalType":"address"},{"name":"operator","type":"address","internalType":"address"}],"outputs":[{"name":"","type":"bool","internalType":"bool"}],"stateMutability":"view"},{"type":"function","name":"lastMinted","inputs":[{"name":"","type":"address","internalType":"address"},{"name":"","type":"uint256","internalType":"uint256"}],"outputs":[{"name":"","type":"uint256","internalType":"uint256"}],"stateMutability":"view"},{"type":"function","name":"mintCooldown","inputs":[],"outputs":[{"name":"","type":"uint256","internalType":"uint256"}],"stateMutability":"view"},{"type":"function","name":"mintResource","inputs":[{"name":"to","type":"address","internalType":"address"},{"name":"resourceType","type":"uint256","internalType":"uint256"},{"name":"amount","type":"uint256","internalType":"uint256"}],"outputs":[],"stateMutability":"nonpayable"},{"type":"function","name":"mintResourceBatch","inputs":[{"name":"to","type":"address","internalType":"address"},{"name":"resourceTypes","type":"uint256[]","internalType":"uint256[]"},{"name":"amounts","type":"uint256[]","internalType":"uint256[]"}],"outputs":[],"stateMutability":"nonpayable"},{"type":"function","name":"owner","inputs":[],"outputs":[{"name":"","type":"address","internalType":"address"}],"stateMutability":"view"},{"type":"function","name":"renounceOwnership","inputs":[],"outputs":[],"stateMutability":"nonpayable"},{"type":"function","name":"resourceNames","inputs":[{"name":"","type":"uint256","internalType":"uint256"}],"outputs":[{"name":"","type":"string","internalType":"string"}],"stateMutability":"view"},{"type":"function","name":"resourceRarities","inputs":[{"name":"","type":"uint256","internalType":"uint256"}],"outputs":[{"name":"","type":"string","internalType":"string"}],"stateMutability":"view"},{"type":"function","name":"safeBatchTransferFrom","inputs":[{"name":"from","type":"address","internalType":"address"},{"name":"to","type":"address","internalType":"address"},{"name":"ids","type":"uint256[]","internalType":"uint256[]"},{"name":"values","type":"uint256[]","internalType":"uint256[]"},{"name":"data","type":"bytes","internalType":"bytes"}],"outputs":[],"stateMutability":"nonpayable"},{"type":"function","name":"safeTransferFrom","inputs":[{"name":"from","type":"address","internalType":"address"},{"name":"to","type":"address","internalType":"address"},{"name":"id","type":"uint256","internalType":"uint256"},{"name":"value","type":"uint256","internalType":"uint256"},{"name":"data","type":"bytes","internalType":"bytes"}],"outputs":[],"stateMutability":"nonpayable"},{"type":"function","name":"setApprovalForAll","inputs":[{"name":"operator","type":"address","internalType":"address"},{"name":"approved","type":"bool","internalType":"bool"}],"outputs":[],"stateMutability":"nonpayable"},{"type":"function","name":"setCooldown","inputs":[{"name":"_newCooldown","type":"uint256","internalType":"uint256"}],"outputs":[],"stateMutability":"nonpayable"},{"type":"function","name":"setURI","inputs":[{"name":"newuri","type":"string","internalType":"string"}],"outputs":[],"stateMutability":"nonpayable"},{"type":"function","name":"supportsInterface","inputs":[{"name":"interfaceId","type":"bytes4","internalType":"bytes4"}],"outputs":[{"name":"","type":"bool","internalType":"bool"}],"stateMutability":"view"},{"type":"function","name":"transferOwnership","inputs":[{"name":"newOwner","type":"address","internalType":"address"}],"outputs":[],"stateMutability":"nonpayable"},{"type":"function","name":"uri","inputs":[{"name":"","type":"uint256","internalType":"uint256"}],"outputs":[{"name":"","type":"string","internalType":"string"}],"stateMutability":"view"},{"type":"event","name":"ApprovalForAll","inputs":[{"name":"account","type":"address","indexed":true,"internalType":"address"},{"name":"operator","type":"address","indexed":true,"internalType":"address"},{"name":"approved","type":"bool","indexed":false,"internalType":"bool"}],"anonymous":false},{"type":"event","name":"OwnershipTransferred","inputs":[{"name":"previousOwner","type":"address","indexed":true,"internalType":"address"},{"name":"newOwner","type":"address","indexed":true,"internalType":"address"}],"anonymous":false},{"type":"event","name":"ResourceMinted","inputs":[{"name":"to","type":"address","indexed":true,"internalType":"address"},{"name":"resourceType","type":"uint256","indexed":true,"internalType":"uint256"},{"name":"amount","type":"uint256","indexed":false,"internalType":"uint256"}],"anonymous":false},{"type":"event","name":"TransferBatch","inputs":[{"name":"operator","type":"address","indexed":true,"internalType":"address"},{"name":"from","type":"address","indexed":true,"internalType":"address"},{"name":"to","type":"address","indexed":true,"internalType":"address"},{"name":"ids","type":"uint256[]","indexed":false,"internalType":"uint256[]"},{"name":"values","type":"uint256[]","indexed":false,"internalType":"uint256[]"}],"anonymous":false},{"type":"event","name":"TransferSingle","inputs":[{"name":"operator","type":"address","indexed":true,"internalType":"address"},{"name":"from","type":"address","indexed":true,"internalType":"address"},{"name":"to","type":"address","indexed":true,"internalType":"address"},{"name":"id","type":"uint256","indexed":false,"internalType":"uint256"},{"name":"value","type":"uint256","indexed":false,"internalType":"uint256"}],"anonymous":false},{"type":"event","name":"URI","inputs":[{"name":"value","type":"string","indexed":false,"internalType":"string"},{"name":"id","type":"uint256","indexed":true,"internalType":"uint256"}],"anonymous":false},{"type":"error","name":"ERC1155InsufficientBalance","inputs":[{"name":"sender","type":"address","internalType":"address"},{"name":"balance","type":"uint256","internalType":"uint256"},{"name":"needed","type":"uint256","internalType":"uint256"},{"name":"tokenId","type":"uint256","internalType":"uint256"}]},{"type":"error","name":"ERC1155InvalidApprover","inputs":[{"name":"approver","type":"address","internalType":"address"}]},{"type":"error","name":"ERC1155InvalidArrayLength","inputs":[{"name":"idsLength","type":"uint256","internalType":"uint256"},{"name":"valuesLength","type":"uint256","internalType":"uint256"}]},{"type":"error","name":"ERC1155InvalidOperator","inputs":[{"name":"operator","type":"address","internalType":"address"}]},{"type":"error","name":"ERC1155InvalidReceiver","inputs":[{"name":"receiver","type":"address","internalType":"address"}]},{"type":"error","name":"ERC1155InvalidSender","inputs":[{"name":"sender","type":"address","internalType":"address"}]},{"type":"error","name":"ERC1155MissingApprovalForAll","inputs":[{"name":"operator","type":"address","internalType":"address"},{"name":"owner","type":"address","internalType":"address"}]},{"type":"error","name":"OwnableInvalidOwner","inputs":[{"name":"owner","type":"address","internalType":"address"}]},{"type":"error","name":"OwnableUnauthorizedAccount","inputs":[{"name":"account","type":"address","internalType":"address"}]}],"bytecode":{"object":"0x6080604052610e1060075534801562000016575f80fd5b50336040518060600160405280602f815260200162003db7602f913962000043816200043560201b60201c565b505f73ffffffffffffffffffffffffffffffffffffffff168173ffffffffffffffffffffffffffffffffffffffff1603620000b7575f6040517f1e4fbdf7000000000000000000000000000000000000000000000000000000008152600401620000ae919062000550565b60405180910390fd5b620000c8816200044a60201b60201c565b506040518060400160405280600481526020017f576f6f640000000000000000000000000000000000000000000000000000000081525060045f600181526020019081526020015f2090816200011f9190620007cf565b506040518060400160405280600581526020017f53746f6e6500000000000000000000000000000000000000000000000000000081525060045f600281526020019081526020015f209081620001769190620007cf565b506040518060400160405280600481526020017f49726f6e0000000000000000000000000000000000000000000000000000000081525060045f600381526020019081526020015f209081620001cd9190620007cf565b506040518060400160405280600481526020017f476f6c640000000000000000000000000000000000000000000000000000000081525060045f600481526020019081526020015f209081620002249190620007cf565b506040518060400160405280600781526020017f4469616d6f6e640000000000000000000000000000000000000000000000000081525060045f600581526020019081526020015f2090816200027b9190620007cf565b506040518060400160405280600681526020017f636f6d6d6f6e000000000000000000000000000000000000000000000000000081525060055f600181526020019081526020015f209081620002d29190620007cf565b506040518060400160405280600681526020017f636f6d6d6f6e000000000000000000000000000000000000000000000000000081525060055f600281526020019081526020015f209081620003299190620007cf565b506040518060400160405280600881526020017f756e636f6d6d6f6e00000000000000000000000000000000000000000000000081525060055f600381526020019081526020015f209081620003809190620007cf565b506040518060400160405280600481526020017f726172650000000000000000000000000000000000000000000000000000000081525060055f600481526020019081526020015f209081620003d79190620007cf565b506040518060400160405280600981526020017f6c6567656e64617279000000000000000000000000000000000000000000000081525060055f600581526020019081526020015f2090816200042e9190620007cf565b50620008b3565b8060029081620004469190620007cf565b5050565b5f60035f9054906101000a900473ffffffffffffffffffffffffffffffffffffffff1690508160035f6101000a81548173ffffffffffffffffffffffffffffffffffffffff021916908373ffffffffffffffffffffffffffffffffffffffff1602179055508173ffffffffffffffffffffffffffffffffffffffff168173ffffffffffffffffffffffffffffffffffffffff167f8be0079c531659141344cd1fd0a4f28419497f9722a3daafe3b4186f6b6457e060405160405180910390a35050565b5f73ffffffffffffffffffffffffffffffffffffffff82169050919050565b5f62000538826200050d565b9050919050565b6200054a816200052c565b82525050565b5f602082019050620005655f8301846200053f565b92915050565b5f81519050919050565b7f4e487b71000000000000000000000000000000000000000000000000000000005f52604160045260245ffd5b7f4e487b71000000000000000000000000000000000000000000000000000000005f52602260045260245ffd5b5f6002820490506001821680620005e757607f821691505b602082108103620005fd57620005fc620005a2565b5b50919050565b5f819050815f5260205f209050919050565b5f6020601f8301049050919050565b5f82821b905092915050565b5f60088302620006617fffffffffffffffffffffffffffffffffffffffffffffffffffffffffffffffff8262000624565b6200066d868362000624565b95508019841693508086168417925050509392505050565b5f819050919050565b5f819050919050565b5f620006b7620006b1620006ab8462000685565b6200068e565b62000685565b9050919050565b5f819050919050565b620006d28362000697565b620006ea620006e182620006be565b84845462000630565b825550505050565b5f90565b62000700620006f2565b6200070d818484620006c7565b505050565b5b818110156200073457620007285f82620006f6565b60018101905062000713565b5050565b601f82111562000783576200074d8162000603565b620007588462000615565b8101602085101562000768578190505b62000780620007778562000615565b83018262000712565b50505b505050565b5f82821c905092915050565b5f620007a55f198460080262000788565b1980831691505092915050565b5f620007bf838362000794565b9150826002028217905092915050565b620007da826200056b565b67ffffffffffffffff811115620007f657620007f562000575565b5b620008028254620005cf565b6200080f82828562000738565b5f60209050601f83116001811462000845575f841562000830578287015190505b6200083c8582620007b2565b865550620008ab565b601f198416620008558662000603565b5f5b828110156200087e5784890151825560018201915060208501945060208101905062000857565b868310156200089e57848901516200089a601f89168262000794565b8355505b6001600288020188555050505b505050505050565b6134f680620008c15f395ff3fe608060405234801561000f575f80fd5b506004361061018b575f3560e01c80635653e3ac116100dc578063a22cb46511610095578063f242432a1161006f578063f242432a146104a9578063f2fde38b146104c5578063f3aef4e0146104e1578063f6c55202146104fd5761018b565b8063a22cb4651461042b578063aa9e95fd14610447578063e985e9c5146104795761018b565b80635653e3ac1461036757806369f9901e14610385578063715018a6146103a35780637abb84f0146103ad578063830de52b146103dd5780638da5cb5b1461040d5761018b565b8063206545c2116101495780633e4bee38116101235780633e4bee38146102cd5780634a195d38146102eb5780634e1273f41461031b5780634fc3f41a1461034b5761018b565b8063206545c2146102775780632eb2c2d6146102955780633aa39ff1146102b15761018b565b8062fdd58e1461018f57806301ffc9a7146101bf57806302fe5305146101ef5780630e89341c1461020b5780631fd81bcd1461023b5780632000d43014610259575b5f80fd5b6101a960048036038101906101a4919061232c565b61052e565b6040516101b69190612379565b60405180910390f35b6101d960048036038101906101d491906123e7565b610583565b6040516101e6919061242c565b60405180910390f35b61020960048036038101906102049190612581565b610664565b005b610225600480360381019061022091906125c8565b610678565b604051610232919061266d565b60405180910390f35b61024361070a565b6040516102509190612379565b60405180910390f35b61026161070f565b60405161026e9190612379565b60405180910390f35b61027f610715565b60405161028c9190612379565b60405180910390f35b6102af60048036038101906102aa91906127ef565b61071a565b005b6102cb60048036038101906102c691906128ba565b6107c1565b005b6102d56109bc565b6040516102e29190612379565b60405180910390f35b610305600480360381019061030091906125c8565b6109c1565b604051610312919061266d565b60405180910390f35b610335600480360381019061033091906129ca565b610a5c565b6040516103429190612af7565b60405180910390f35b610365600480360381019061036091906125c8565b610b69565b005b61036f610b7b565b60405161037c9190612379565b60405180910390f35b61038d610b80565b60405161039a9190612379565b60405180910390f35b6103ab610b85565b005b6103c760048036038101906103c2919061232c565b610b98565b6040516103d49190612379565b60405180910390f35b6103f760048036038101906103f291906125c8565b610bb8565b604051610404919061266d565b60405180910390f35b610415610c53565b6040516104229190612b26565b60405180910390f35b61044560048036038101906104409190612b69565b610c7b565b005b610461600480360381019061045c91906125c8565b610c91565b60405161047093929190612ba7565b60405180910390f35b610493600480360381019061048e9190612bea565b610e2a565b6040516104a0919061242c565b60405180910390f35b6104c360048036038101906104be9190612c28565b610eb8565b005b6104df60048036038101906104da9190612cbb565b610f5f565b005b6104fb60048036038101906104f69190612ce6565b610fe3565b005b61051760048036038101906105129190612cbb565b611330565b604051610525929190612d6e565b60405180910390f35b5f805f8381526020019081526020015f205f8473ffffffffffffffffffffffffffffffffffffffff1673ffffffffffffffffffffffffffffffffffffffff1681526020019081526020015f2054905092915050565b5f7fd9b67a26000000000000000000000000000000000000000000000000000000007bffffffffffffffffffffffffffffffffffffffffffffffffffffffff1916827bffffffffffffffffffffffffffffffffffffffffffffffffffffffff1916148061064d57507f0e89341c000000000000000000000000000000000000000000000000000000007bffffffffffffffffffffffffffffffffffffffffffffffffffffffff1916827bffffffffffffffffffffffffffffffffffffffffffffffffffffffff1916145b8061065d575061065c82611450565b5b9050919050565b61066c6114b9565b61067581611540565b50565b60606002805461068790612dd0565b80601f01602080910402602001604051908101604052809291908181526020018280546106b390612dd0565b80156106fe5780601f106106d5576101008083540402835291602001916106fe565b820191905f5260205f20905b8154815290600101906020018083116106e157829003601f168201915b50505050509050919050565b600381565b60075481565b600581565b5f610723611553565b90508073ffffffffffffffffffffffffffffffffffffffff168673ffffffffffffffffffffffffffffffffffffffff161415801561076857506107668682610e2a565b155b156107ac5780866040517fe237d9220000000000000000000000000000000000000000000000000000000081526004016107a3929190612e00565b60405180910390fd5b6107b9868686868661155a565b505050505050565b600182101580156107d3575060058211155b610812576040517f08c379a000000000000000000000000000000000000000000000000000000000815260040161080990612e71565b60405180910390fd5b5f81118015610822575060648111155b610861576040517f08c379a000000000000000000000000000000000000000000000000000000000815260040161085890612ed9565b60405180910390fd5b60075460065f8573ffffffffffffffffffffffffffffffffffffffff1673ffffffffffffffffffffffffffffffffffffffff1681526020019081526020015f205f8481526020019081526020015f20546108bb9190612f24565b4210156108fd576040517f08c379a00000000000000000000000000000000000000000000000000000000081526004016108f490612fa1565b60405180910390fd5b4260065f8573ffffffffffffffffffffffffffffffffffffffff1673ffffffffffffffffffffffffffffffffffffffff1681526020019081526020015f205f8481526020019081526020015f208190555061096883838360405180602001604052805f81525061164e565b818373ffffffffffffffffffffffffffffffffffffffff167fd60edc2156773608026508b8e3400073f61d54f2c9941960114ec51a0ee4f610836040516109af9190612379565b60405180910390a3505050565b600481565b6004602052805f5260405f205f9150905080546109dd90612dd0565b80601f0160208091040260200160405190810160405280929190818152602001828054610a0990612dd0565b8015610a545780601f10610a2b57610100808354040283529160200191610a54565b820191905f5260205f20905b815481529060010190602001808311610a3757829003601f168201915b505050505081565b60608151835114610aa857815183516040517f5b059991000000000000000000000000000000000000000000000000000000008152600401610a9f929190612fbf565b60405180910390fd5b5f835167ffffffffffffffff811115610ac457610ac361245d565b5b604051908082528060200260200182016040528015610af25781602001602082028036833780820191505090505b5090505f5b8451811015610b5e57610b2e610b1682876116e390919063ffffffff16565b610b2983876116f690919063ffffffff16565b61052e565b828281518110610b4157610b40612fe6565b5b60200260200101818152505080610b5790613013565b9050610af7565b508091505092915050565b610b716114b9565b8060078190555050565b600181565b600281565b610b8d6114b9565b610b965f611709565b565b6006602052815f5260405f20602052805f5260405f205f91509150505481565b6005602052805f5260405f205f915090508054610bd490612dd0565b80601f0160208091040260200160405190810160405280929190818152602001828054610c0090612dd0565b8015610c4b5780601f10610c2257610100808354040283529160200191610c4b565b820191905f5260205f20905b815481529060010190602001808311610c2e57829003601f168201915b505050505081565b5f60035f9054906101000a900473ffffffffffffffffffffffffffffffffffffffff16905090565b610c8d610c86611553565b83836117cc565b5050565b6060805f60018410158015610ca7575060058411155b610ce6576040517f08c379a0000000000000000000000000000000000000000000000000000000008152600401610cdd90612e71565b60405180910390fd5b60045f8581526020019081526020015f2060055f8681526020019081526020015f205f828054610d1590612dd0565b80601f0160208091040260200160405190810160405280929190818152602001828054610d4190612dd0565b8015610d8c5780601f10610d6357610100808354040283529160200191610d8c565b820191905f5260205f20905b815481529060010190602001808311610d6f57829003601f168201915b50505050509250818054610d9f90612dd0565b80601f0160208091040260200160405190810160405280929190818152602001828054610dcb90612dd0565b8015610e165780601f10610ded57610100808354040283529160200191610e16565b820191905f5260205f20905b815481529060010190602001808311610df957829003601f168201915b505050505091509250925092509193909250565b5f60015f8473ffffffffffffffffffffffffffffffffffffffff1673ffffffffffffffffffffffffffffffffffffffff1681526020019081526020015f205f8373ffffffffffffffffffffffffffffffffffffffff1673ffffffffffffffffffffffffffffffffffffffff1681526020019081526020015f205f9054906101000a900460ff16905092915050565b5f610ec1611553565b90508073ffffffffffffffffffffffffffffffffffffffff168673ffffffffffffffffffffffffffffffffffffffff1614158015610f065750610f048682610e2a565b155b15610f4a5780866040517fe237d922000000000000000000000000000000000000000000000000000000008152600401610f41929190612e00565b60405180910390fd5b610f578686868686611935565b505050505050565b610f676114b9565b5f73ffffffffffffffffffffffffffffffffffffffff168173ffffffffffffffffffffffffffffffffffffffff1603610fd7575f6040517f1e4fbdf7000000000000000000000000000000000000000000000000000000008152600401610fce9190612b26565b60405180910390fd5b610fe081611709565b50565b8051825114611027576040517f08c379a000000000000000000000000000000000000000000000000000000000815260040161101e906130a4565b60405180910390fd5b5f5b825181101561126e57600183828151811061104757611046612fe6565b5b6020026020010151101580156110785750600583828151811061106d5761106c612fe6565b5b602002602001015111155b6110b7576040517f08c379a00000000000000000000000000000000000000000000000000000000081526004016110ae90612e71565b60405180910390fd5b5f8282815181106110cb576110ca612fe6565b5b60200260200101511180156110fb575060648282815181106110f0576110ef612fe6565b5b602002602001015111155b61113a576040517f08c379a000000000000000000000000000000000000000000000000000000000815260040161113190612ed9565b60405180910390fd5b60075460065f8673ffffffffffffffffffffffffffffffffffffffff1673ffffffffffffffffffffffffffffffffffffffff1681526020019081526020015f205f85848151811061118e5761118d612fe6565b5b602002602001015181526020019081526020015f20546111ae9190612f24565b4210156111f0576040517f08c379a00000000000000000000000000000000000000000000000000000000081526004016111e790612fa1565b60405180910390fd5b4260065f8673ffffffffffffffffffffffffffffffffffffffff1673ffffffffffffffffffffffffffffffffffffffff1681526020019081526020015f205f85848151811061124257611241612fe6565b5b602002602001015181526020019081526020015f2081905550808061126690613013565b915050611029565b5061128983838360405180602001604052805f815250611a3b565b5f5b825181101561132a578281815181106112a7576112a6612fe6565b5b60200260200101518473ffffffffffffffffffffffffffffffffffffffff167fd60edc2156773608026508b8e3400073f61d54f2c9941960114ec51a0ee4f6108484815181106112fa576112f9612fe6565b5b602002602001015160405161130f9190612379565b60405180910390a3808061132290613013565b91505061128b565b50505050565b606080600567ffffffffffffffff81111561134e5761134d61245d565b5b60405190808252806020026020018201604052801561137c5781602001602082028036833780820191505090505b509150600567ffffffffffffffff81111561139a5761139961245d565b5b6040519080825280602002602001820160405280156113c85781602001602082028036833780820191505090505b5090505f5b600581101561144a576001816113e39190612f24565b8382815181106113f6576113f5612fe6565b5b602002602001018181525050611418846001836114139190612f24565b61052e565b82828151811061142b5761142a612fe6565b5b602002602001018181525050808061144290613013565b9150506113cd565b50915091565b5f7f01ffc9a7000000000000000000000000000000000000000000000000000000007bffffffffffffffffffffffffffffffffffffffffffffffffffffffff1916827bffffffffffffffffffffffffffffffffffffffffffffffffffffffff1916149050919050565b6114c1611553565b73ffffffffffffffffffffffffffffffffffffffff166114df610c53565b73ffffffffffffffffffffffffffffffffffffffff161461153e57611502611553565b6040517f118cdaa70000000000000000000000000000000000000000000000000000000081526004016115359190612b26565b60405180910390fd5b565b806002908161154f919061325f565b5050565b5f33905090565b5f73ffffffffffffffffffffffffffffffffffffffff168473ffffffffffffffffffffffffffffffffffffffff16036115ca575f6040517f57f447ce0000000000000000000000000000000000000000000000000000000081526004016115c19190612b26565b60405180910390fd5b5f73ffffffffffffffffffffffffffffffffffffffff168573ffffffffffffffffffffffffffffffffffffffff160361163a575f6040517f01a835140000000000000000000000000000000000000000000000000000000081526004016116319190612b26565b60405180910390fd5b6116478585858585611abe565b5050505050565b5f73ffffffffffffffffffffffffffffffffffffffff168473ffffffffffffffffffffffffffffffffffffffff16036116be575f6040517f57f447ce0000000000000000000000000000000000000000000000000000000081526004016116b59190612b26565b60405180910390fd5b5f806116ca8585611b6a565b915091506116db5f87848487611abe565b505050505050565b5f60208202602084010151905092915050565b5f60208202602084010151905092915050565b5f60035f9054906101000a900473ffffffffffffffffffffffffffffffffffffffff1690508160035f6101000a81548173ffffffffffffffffffffffffffffffffffffffff021916908373ffffffffffffffffffffffffffffffffffffffff1602179055508173ffffffffffffffffffffffffffffffffffffffff168173ffffffffffffffffffffffffffffffffffffffff167f8be0079c531659141344cd1fd0a4f28419497f9722a3daafe3b4186f6b6457e060405160405180910390a35050565b5f73ffffffffffffffffffffffffffffffffffffffff168273ffffffffffffffffffffffffffffffffffffffff160361183c575f6040517fced3e1000000000000000000000000000000000000000000000000000000000081526004016118339190612b26565b60405180910390fd5b8060015f8573ffffffffffffffffffffffffffffffffffffffff1673ffffffffffffffffffffffffffffffffffffffff1681526020019081526020015f205f8473ffffffffffffffffffffffffffffffffffffffff1673ffffffffffffffffffffffffffffffffffffffff1681526020019081526020015f205f6101000a81548160ff0219169083151502179055508173ffffffffffffffffffffffffffffffffffffffff168373ffffffffffffffffffffffffffffffffffffffff167f17307eab39ab6107e8899845ad3d59bd9653f200f220920489ca2b5937696c3183604051611928919061242c565b60405180910390a3505050565b5f73ffffffffffffffffffffffffffffffffffffffff168473ffffffffffffffffffffffffffffffffffffffff16036119a5575f6040517f57f447ce00000000000000000000000000000000000000000000000000000000815260040161199c9190612b26565b60405180910390fd5b5f73ffffffffffffffffffffffffffffffffffffffff168573ffffffffffffffffffffffffffffffffffffffff1603611a15575f6040517f01a83514000000000000000000000000000000000000000000000000000000008152600401611a0c9190612b26565b60405180910390fd5b5f80611a218585611b6a565b91509150611a328787848487611abe565b50505050505050565b5f73ffffffffffffffffffffffffffffffffffffffff168473ffffffffffffffffffffffffffffffffffffffff1603611aab575f6040517f57f447ce000000000000000000000000000000000000000000000000000000008152600401611aa29190612b26565b60405180910390fd5b611ab85f85858585611abe565b50505050565b611aca85858585611b9a565b5f73ffffffffffffffffffffffffffffffffffffffff168473ffffffffffffffffffffffffffffffffffffffff1614611b63575f611b06611553565b90506001845103611b52575f611b255f866116f690919063ffffffff16565b90505f611b3b5f866116f690919063ffffffff16565b9050611b4b838989858589611f30565b5050611b61565b611b608187878787876120df565b5b505b5050505050565b60608060405191506001825283602083015260408201905060018152826020820152604081016040529250929050565b8051825114611be457815181516040517f5b059991000000000000000000000000000000000000000000000000000000008152600401611bdb929190612fbf565b60405180910390fd5b5f611bed611553565b90505f5b8351811015611def575f611c0e82866116f690919063ffffffff16565b90505f611c2483866116f690919063ffffffff16565b90505f73ffffffffffffffffffffffffffffffffffffffff168873ffffffffffffffffffffffffffffffffffffffff1614611d47575f805f8481526020019081526020015f205f8a73ffffffffffffffffffffffffffffffffffffffff1673ffffffffffffffffffffffffffffffffffffffff1681526020019081526020015f2054905081811015611cf357888183856040517f03dee4c5000000000000000000000000000000000000000000000000000000008152600401611cea949392919061332e565b60405180910390fd5b8181035f808581526020019081526020015f205f8b73ffffffffffffffffffffffffffffffffffffffff1673ffffffffffffffffffffffffffffffffffffffff1681526020019081526020015f2081905550505b5f73ffffffffffffffffffffffffffffffffffffffff168773ffffffffffffffffffffffffffffffffffffffff1614611ddc57805f808481526020019081526020015f205f8973ffffffffffffffffffffffffffffffffffffffff1673ffffffffffffffffffffffffffffffffffffffff1681526020019081526020015f205f828254611dd49190612f24565b925050819055505b505080611de890613013565b9050611bf1565b506001835103611eaa575f611e0d5f856116f690919063ffffffff16565b90505f611e235f856116f690919063ffffffff16565b90508573ffffffffffffffffffffffffffffffffffffffff168773ffffffffffffffffffffffffffffffffffffffff168473ffffffffffffffffffffffffffffffffffffffff167fc3d58168c5ae7397731d063d5bbf3d657854427343f4c083240f7aacaa2d0f628585604051611e9b929190612fbf565b60405180910390a45050611f29565b8373ffffffffffffffffffffffffffffffffffffffff168573ffffffffffffffffffffffffffffffffffffffff168273ffffffffffffffffffffffffffffffffffffffff167f4a39dc06d4c0dbc64b70af90fd698a233a518aa5d07e595d983b8c0526c8f7fb8686604051611f20929190612d6e565b60405180910390a45b5050505050565b5f8473ffffffffffffffffffffffffffffffffffffffff163b11156120d7578373ffffffffffffffffffffffffffffffffffffffff1663f23a6e6187878686866040518663ffffffff1660e01b8152600401611f909594939291906133c3565b6020604051808303815f875af1925050508015611fcb57506040513d601f19601f82011682018060405250810190611fc8919061342f565b60015b61204c573d805f8114611ff9576040519150601f19603f3d011682016040523d82523d5f602084013e611ffe565b606091505b505f81510361204457846040517f57f447ce00000000000000000000000000000000000000000000000000000000815260040161203b9190612b26565b60405180910390fd5b805181602001fd5b63f23a6e6160e01b7bffffffffffffffffffffffffffffffffffffffffffffffffffffffff1916817bffffffffffffffffffffffffffffffffffffffffffffffffffffffff1916146120d557846040517f57f447ce0000000000000000000000000000000000000000000000000000000081526004016120cc9190612b26565b60405180910390fd5b505b505050505050565b5f8473ffffffffffffffffffffffffffffffffffffffff163b1115612286578373ffffffffffffffffffffffffffffffffffffffff1663bc197c8187878686866040518663ffffffff1660e01b815260040161213f95949392919061345a565b6020604051808303815f875af192505050801561217a57506040513d601f19601f82011682018060405250810190612177919061342f565b60015b6121fb573d805f81146121a8576040519150601f19603f3d011682016040523d82523d5f602084013e6121ad565b606091505b505f8151036121f357846040517f57f447ce0000000000000000000000000000000000000000000000000000000081526004016121ea9190612b26565b60405180910390fd5b805181602001fd5b63bc197c8160e01b7bffffffffffffffffffffffffffffffffffffffffffffffffffffffff1916817bffffffffffffffffffffffffffffffffffffffffffffffffffffffff19161461228457846040517f57f447ce00000000000000000000000000000000000000000000000000000000815260040161227b9190612b26565b60405180910390fd5b505b505050505050565b5f604051905090565b5f80fd5b5f80fd5b5f73ffffffffffffffffffffffffffffffffffffffff82169050919050565b5f6122c88261229f565b9050919050565b6122d8816122be565b81146122e2575f80fd5b50565b5f813590506122f3816122cf565b92915050565b5f819050919050565b61230b816122f9565b8114612315575f80fd5b50565b5f8135905061232681612302565b92915050565b5f806040838503121561234257612341612297565b5b5f61234f858286016122e5565b925050602061236085828601612318565b9150509250929050565b612373816122f9565b82525050565b5f60208201905061238c5f83018461236a565b92915050565b5f7fffffffff0000000000000000000000000000000000000000000000000000000082169050919050565b6123c681612392565b81146123d0575f80fd5b50565b5f813590506123e1816123bd565b92915050565b5f602082840312156123fc576123fb612297565b5b5f612409848285016123d3565b91505092915050565b5f8115159050919050565b61242681612412565b82525050565b5f60208201905061243f5f83018461241d565b92915050565b5f80fd5b5f80fd5b5f601f19601f8301169050919050565b7f4e487b71000000000000000000000000000000000000000000000000000000005f52604160045260245ffd5b6124938261244d565b810181811067ffffffffffffffff821117156124b2576124b161245d565b5b80604052505050565b5f6124c461228e565b90506124d0828261248a565b919050565b5f67ffffffffffffffff8211156124ef576124ee61245d565b5b6124f88261244d565b9050602081019050919050565b828183375f83830152505050565b5f612525612520846124d5565b6124bb565b90508281526020810184848401111561254157612540612449565b5b61254c848285612505565b509392505050565b5f82601f83011261256857612567612445565b5b8135612578848260208601612513565b91505092915050565b5f6020828403121561259657612595612297565b5b5f82013567ffffffffffffffff8111156125b3576125b261229b565b5b6125bf84828501612554565b91505092915050565b5f602082840312156125dd576125dc612297565b5b5f6125ea84828501612318565b91505092915050565b5f81519050919050565b5f82825260208201905092915050565b5f5b8381101561262a57808201518184015260208101905061260f565b5f8484015250505050565b5f61263f826125f3565b61264981856125fd565b935061265981856020860161260d565b6126628161244d565b840191505092915050565b5f6020820190508181035f8301526126858184612635565b905092915050565b5f67ffffffffffffffff8211156126a7576126a661245d565b5b602082029050602081019050919050565b5f80fd5b5f6126ce6126c98461268d565b6124bb565b905080838252602082019050602084028301858111156126f1576126f06126b8565b5b835b8181101561271a57806127068882612318565b8452602084019350506020810190506126f3565b5050509392505050565b5f82601f83011261273857612737612445565b5b81356127488482602086016126bc565b91505092915050565b5f67ffffffffffffffff82111561276b5761276a61245d565b5b6127748261244d565b9050602081019050919050565b5f61279361278e84612751565b6124bb565b9050828152602081018484840111156127af576127ae612449565b5b6127ba848285612505565b509392505050565b5f82601f8301126127d6576127d5612445565b5b81356127e6848260208601612781565b91505092915050565b5f805f805f60a0868803121561280857612807612297565b5b5f612815888289016122e5565b9550506020612826888289016122e5565b945050604086013567ffffffffffffffff8111156128475761284661229b565b5b61285388828901612724565b935050606086013567ffffffffffffffff8111156128745761287361229b565b5b61288088828901612724565b925050608086013567ffffffffffffffff8111156128a1576128a061229b565b5b6128ad888289016127c2565b9150509295509295909350565b5f805f606084860312156128d1576128d0612297565b5b5f6128de868287016122e5565b93505060206128ef86828701612318565b925050604061290086828701612318565b9150509250925092565b5f67ffffffffffffffff8211156129245761292361245d565b5b602082029050602081019050919050565b5f6129476129428461290a565b6124bb565b9050808382526020820190506020840283018581111561296a576129696126b8565b5b835b81811015612993578061297f88826122e5565b84526020840193505060208101905061296c565b5050509392505050565b5f82601f8301126129b1576129b0612445565b5b81356129c1848260208601612935565b91505092915050565b5f80604083850312156129e0576129df612297565b5b5f83013567ffffffffffffffff8111156129fd576129fc61229b565b5b612a098582860161299d565b925050602083013567ffffffffffffffff811115612a2a57612a2961229b565b5b612a3685828601612724565b9150509250929050565b5f81519050919050565b5f82825260208201905092915050565b5f819050602082019050919050565b612a72816122f9565b82525050565b5f612a838383612a69565b60208301905092915050565b5f602082019050919050565b5f612aa582612a40565b612aaf8185612a4a565b9350612aba83612a5a565b805f5b83811015612aea578151612ad18882612a78565b9750612adc83612a8f565b925050600181019050612abd565b5085935050505092915050565b5f6020820190508181035f830152612b0f8184612a9b565b905092915050565b612b20816122be565b82525050565b5f602082019050612b395f830184612b17565b92915050565b612b4881612412565b8114612b52575f80fd5b50565b5f81359050612b6381612b3f565b92915050565b5f8060408385031215612b7f57612b7e612297565b5b5f612b8c858286016122e5565b9250506020612b9d85828601612b55565b9150509250929050565b5f6060820190508181035f830152612bbf8186612635565b90508181036020830152612bd38185612635565b9050612be2604083018461236a565b949350505050565b5f8060408385031215612c0057612bff612297565b5b5f612c0d858286016122e5565b9250506020612c1e858286016122e5565b9150509250929050565b5f805f805f60a08688031215612c4157612c40612297565b5b5f612c4e888289016122e5565b9550506020612c5f888289016122e5565b9450506040612c7088828901612318565b9350506060612c8188828901612318565b925050608086013567ffffffffffffffff811115612ca257612ca161229b565b5b612cae888289016127c2565b9150509295509295909350565b5f60208284031215612cd057612ccf612297565b5b5f612cdd848285016122e5565b91505092915050565b5f805f60608486031215612cfd57612cfc612297565b5b5f612d0a868287016122e5565b935050602084013567ffffffffffffffff811115612d2b57612d2a61229b565b5b612d3786828701612724565b925050604084013567ffffffffffffffff811115612d5857612d5761229b565b5b612d6486828701612724565b9150509250925092565b5f6040820190508181035f830152612d868185612a9b565b90508181036020830152612d9a8184612a9b565b90509392505050565b7f4e487b71000000000000000000000000000000000000000000000000000000005f52602260045260245ffd5b5f6002820490506001821680612de757607f821691505b602082108103612dfa57612df9612da3565b5b50919050565b5f604082019050612e135f830185612b17565b612e206020830184612b17565b9392505050565b7f496e76616c6964207265736f75726365207479706500000000000000000000005f82015250565b5f612e5b6015836125fd565b9150612e6682612e27565b602082019050919050565b5f6020820190508181035f830152612e8881612e4f565b9050919050565b7f496e76616c696420616d6f756e740000000000000000000000000000000000005f82015250565b5f612ec3600e836125fd565b9150612ece82612e8f565b602082019050919050565b5f6020820190508181035f830152612ef081612eb7565b9050919050565b7f4e487b71000000000000000000000000000000000000000000000000000000005f52601160045260245ffd5b5f612f2e826122f9565b9150612f39836122f9565b9250828201905080821115612f5157612f50612ef7565b5b92915050565b7f4d696e7420636f6f6c646f776e206e6f74206d657400000000000000000000005f82015250565b5f612f8b6015836125fd565b9150612f9682612f57565b602082019050919050565b5f6020820190508181035f830152612fb881612f7f565b9050919050565b5f604082019050612fd25f83018561236a565b612fdf602083018461236a565b9392505050565b7f4e487b71000000000000000000000000000000000000000000000000000000005f52603260045260245ffd5b5f61301d826122f9565b91507fffffffffffffffffffffffffffffffffffffffffffffffffffffffffffffffff820361304f5761304e612ef7565b5b600182019050919050565b7f417272617973206c656e677468206d69736d61746368000000000000000000005f82015250565b5f61308e6016836125fd565b91506130998261305a565b602082019050919050565b5f6020820190508181035f8301526130bb81613082565b9050919050565b5f819050815f5260205f209050919050565b5f6020601f8301049050919050565b5f82821b905092915050565b5f6008830261311e7fffffffffffffffffffffffffffffffffffffffffffffffffffffffffffffffff826130e3565b61312886836130e3565b95508019841693508086168417925050509392505050565b5f819050919050565b5f61316361315e613159846122f9565b613140565b6122f9565b9050919050565b5f819050919050565b61317c83613149565b6131906131888261316a565b8484546130ef565b825550505050565b5f90565b6131a4613198565b6131af818484613173565b505050565b5b818110156131d2576131c75f8261319c565b6001810190506131b5565b5050565b601f821115613217576131e8816130c2565b6131f1846130d4565b81016020851015613200578190505b61321461320c856130d4565b8301826131b4565b50505b505050565b5f82821c905092915050565b5f6132375f198460080261321c565b1980831691505092915050565b5f61324f8383613228565b9150826002028217905092915050565b613268826125f3565b67ffffffffffffffff8111156132815761328061245d565b5b61328b8254612dd0565b6132968282856131d6565b5f60209050601f8311600181146132c7575f84156132b5578287015190505b6132bf8582613244565b865550613326565b601f1984166132d5866130c2565b5f5b828110156132fc578489015182556001820191506020850194506020810190506132d7565b868310156133195784890151613315601f891682613228565b8355505b6001600288020188555050505b505050505050565b5f6080820190506133415f830187612b17565b61334e602083018661236a565b61335b604083018561236a565b613368606083018461236a565b95945050505050565b5f81519050919050565b5f82825260208201905092915050565b5f61339582613371565b61339f818561337b565b93506133af81856020860161260d565b6133b88161244d565b840191505092915050565b5f60a0820190506133d65f830188612b17565b6133e36020830187612b17565b6133f0604083018661236a565b6133fd606083018561236a565b818103608083015261340f818461338b565b90509695505050505050565b5f81519050613429816123bd565b92915050565b5f6020828403121561344457613443612297565b5b5f6134518482850161341b565b91505092915050565b5f60a08201905061346d5f830188612b17565b61347a6020830187612b17565b818103604083015261348c8186612a9b565b905081810360608301526134a08185612a9b565b905081810360808301526134b4818461338b565b9050969550505050505056fea264697066735822122024dd5d7600bf75aaf0090e10ee7400507b29747758ae8a3d38b4e59adcbfe84d64736f6c6343000814003368747470733a2f2f6170692e626c6f636b63726166742e67616d652f7265736f75726365732f7b69647d2e6a736f6e","linkReferences":{}},"methodIdentifiers":{"DIAMOND()":"206545c2","GOLD()":"3e4bee38","IRON()":"1fd81bcd","STONE()":"69f9901e","WOOD()":"5653e3ac","balanceOf(address,uint256)":"00fdd58e","balanceOfBatch(address[],uint256[])":"4e1273f4","getResourceInfo(uint256)":"aa9e95fd","getUserResources(address)":"f6c55202","isApprovedForAll(address,address)":"e985e9c5","lastMinted(address,uint256)":"7abb84f0","mintCooldown()":"2000d430","mintResource(address,uint256,uint256)":"3aa39ff1","mintResourceBatch(address,uint256[],uint256[])":"f3aef4e0","owner()":"8da5cb5b","renounceOwnership()":"715018a6","resourceNames(uint256)":"4a195d38","resourceRarities(uint256)":"830de52b","safeBatchTransferFrom(address,address,uint256[],uint256[],bytes)":"2eb2c2d6","safeTransferFrom(address,address,uint256,uint256,bytes)":"f242432a","setApprovalForAll(address,bool)":"a22cb465","setCooldown(uint256)":"4fc3f41a","setURI(string)":"02fe5305","supportsInterface(bytes4)":"01ffc9a7","transferOwnership(address)":"f2fde38b","uri(uint256)":"0e89341c"},"id":3}