{"abi":[{"type":"constructor","inputs":[],"stateMutability":"nonpayable"},{"type":"function","name":"MAX_SUPPLY","inputs":[],"outputs":[{"name":"","type":"uint256","internalType":"uint256"}],"stateMutability":"view"},{"type":"function","name":"approve","inputs":[{"name":"to","type":"address","internalType":"address"},{"name":"tokenId","type":"uint256","internalType":"uint256"}],"outputs":[],"stateMutability":"nonpayable"},{"type":"function","name":"balanceOf","inputs":[{"name":"owner","type":"address","internalType":"address"}],"outputs":[{"name":"","type":"uint256","internalType":"uint256"}],"stateMutability":"view"},{"type":"function","name":"getApproved","inputs":[{"name":"tokenId","type":"uint256","internalType":"uint256"}],"outputs":[{"name":"","type":"address","internalType":"address"}],"stateMutability":"view"},{"type":"function","name":"getOutfitInfo","inputs":[{"name":"tokenId","type":"uint256","internalType":"uint256"}],"outputs":[{"name":"name","type":"string","internalType":"string"},{"name":"rarity","type":"string","internalType":"string"}],"stateMutability":"view"},{"type":"function","name":"isApprovedForAll","inputs":[{"name":"owner","type":"address","internalType":"address"},{"name":"operator","type":"address","internalType":"address"}],"outputs":[{"name":"","type":"bool","internalType":"bool"}],"stateMutability":"view"},{"type":"function","name":"mint","inputs":[{"name":"to","type":"address","internalType":"address"},{"name":"metadataURI","type":"string","internalType":"string"},{"name":"outfitName","type":"string","internalType":"string"},{"name":"rarity","type":"string","internalType":"string"}],"outputs":[{"name":"","type":"uint256","internalType":"uint256"}],"stateMutability":"payable"},{"type":"function","name":"mintPrice","inputs":[],"outputs":[{"name":"","type":"uint256","internalType":"uint256"}],"stateMutability":"view"},{"type":"function","name":"name","inputs":[],"outputs":[{"name":"","type":"string","internalType":"string"}],"stateMutability":"view"},{"type":"function","name":"owner","inputs":[],"outputs":[{"name":"","type":"address","internalType":"address"}],"stateMutability":"view"},{"type":"function","name":"ownerOf","inputs":[{"name":"tokenId","type":"uint256","internalType":"uint256"}],"outputs":[{"name":"","type":"address","internalType":"address"}],"stateMutability":"view"},{"type":"function","name":"renounceOwnership","inputs":[],"outputs":[],"stateMutability":"nonpayable"},{"type":"function","name":"safeTransferFrom","inputs":[{"name":"from","type":"address","internalType":"address"},{"name":"to","type":"address","internalType":"address"},{"name":"tokenId","type":"uint256","internalType":"uint256"}],"outputs":[],"stateMutability":"nonpayable"},{"type":"function","name":"safeTransferFrom","inputs":[{"name":"from","type":"address","internalType":"address"},{"name":"to","type":"address","internalType":"address"},{"name":"tokenId","type":"uint256","internalType":"uint256"},{"name":"data","type":"bytes","internalType":"bytes"}],"outputs":[],"stateMutability":"nonpayable"},{"type":"function","name":"setApprovalForAll","inputs":[{"name":"operator","type":"address","internalType":"address"},{"name":"approved","type":"bool","internalType":"bool"}],"outputs":[],"stateMutability":"nonpayable"},{"type":"function","name":"setMintPrice","inputs":[{"name":"_newPrice","type":"uint256","internalType":"uint256"}],"outputs":[],"stateMutability":"nonpayable"},{"type":"function","name":"supportsInterface","inputs":[{"name":"interfaceId","type":"bytes4","internalType":"bytes4"}],"outputs":[{"name":"","type":"bool","internalType":"bool"}],"stateMutability":"view"},{"type":"function","name":"symbol","inputs":[],"outputs":[{"name":"","type":"string","internalType":"string"}],"stateMutability":"view"},{"type":"function","name":"tokenURI","inputs":[{"name":"tokenId","type":"uint256","internalType":"uint256"}],"outputs":[{"name":"","type":"string","internalType":"string"}],"stateMutability":"view"},{"type":"function","name":"totalSupply","inputs":[],"outputs":[{"name":"","type":"uint256","internalType":"uint256"}],"stateMutability":"view"},{"type":"function","name":"transferFrom","inputs":[{"name":"from","type":"address","internalType":"address"},{"name":"to","type":"address","internalType":"address"},{"name":"tokenId","type":"uint256","internalType":"uint256"}],"outputs":[],"stateMutability":"nonpayable"},{"type":"function","name":"transferOwnership","inputs":[{"name":"newOwner","type":"address","internalType":"address"}],"outputs":[],"stateMutability":"nonpayable"},{"type":"function","name":"withdraw","inputs":[],"outputs":[],"stateMutability":"nonpayable"},{"type":"event","name":"Approval","inputs":[{"name":"owner","type":"address","indexed":true,"internalType":"address"},{"name":"approved","type":"address","indexed":true,"internalType":"address"},{"name":"tokenId","type":"uint256","indexed":true,"internalType":"uint256"}],"anonymous":false},{"type":"event","name":"ApprovalForAll","inputs":[{"name":"owner","type":"address","indexed":true,"internalType":"address"},{"name":"operator","type":"address","indexed":true,"internalType":"address"},{"name":"approved","type":"bool","indexed":false,"internalType":"bool"}],"anonymous":false},{"type":"event","name":"OutfitMinted","inputs":[{"name":"to","type":"address","indexed":true,"internalType":"address"},{"name":"tokenId","type":"uint256","indexed":true,"internalType":"uint256"},{"name":"outfitName","type":"string","indexed":false,"internalType":"string"},{"name":"rarity","type":"string","indexed":false,"internalType":"string"}],"anonymous":false},{"type":"event","name":"OwnershipTransferred","inputs":[{"name":"previousOwner","type":"address","indexed":true,"internalType":"address"},{"name":"newOwner","type":"address","indexed":true,"internalType":"address"}],"anonymous":false},{"type":"event","name":"Transfer","inputs":[{"name":"from","type":"address","indexed":true,"internalType":"address"},{"name":"to","type":"address","indexed":true,"internalType":"address"},{"name":"tokenId","type":"uint256","indexed":true,"internalType":"uint256"}],"anonymous":false},{"type":"error","name":"ERC721IncorrectOwner","inputs":[{"name":"sender","type":"address","internalType":"address"},{"name":"tokenId","type":"uint256","internalType":"uint256"},{"name":"owner","type":"address","internalType":"address"}]},{"type":"error","name":"ERC721InsufficientApproval","inputs":[{"name":"operator","type":"address","internalType":"address"},{"name":"tokenId","type":"uint256","internalType":"uint256"}]},{"type":"error","name":"ERC721InvalidApprover","inputs":[{"name":"approver","type":"address","internalType":"address"}]},{"type":"error","name":"ERC721InvalidOperator","inputs":[{"name":"operator","type":"address","internalType":"address"}]},{"type":"error","name":"ERC721InvalidOwner","inputs":[{"name":"owner","type":"address","internalType":"address"}]},{"type":"error","name":"ERC721InvalidReceiver","inputs":[{"name":"receiver","type":"address","internalType":"address"}]},{"type":"error","name":"ERC721InvalidSender","inputs":[{"name":"sender","type":"address","internalType":"address"}]},{"type":"error","name":"ERC721NonexistentToken","inputs":[{"name":"tokenId","type":"uint256","internalType":"uint256"}]},{"type":"error","name":"OwnableInvalidOwner","inputs":[{"name":"owner","type":"address","internalType":"address"}]},{"type":"error","name":"OwnableUnauthorizedAccount","inputs":[{"name":"account","type":"address","internalType":"address"}]}],"bytecode":{"object":"0x6080604052655af3107a40006008553480156200001a575f80fd5b50336040518060400160405280601281526020017f426c6f636b6372616674204f75746669747300000000000000000000000000008152506040518060400160405280600881526020017f42434f5554464954000000000000000000000000000000000000000000000000815250815f90816200009891906200045f565b508060019081620000aa91906200045f565b5050505f73ffffffffffffffffffffffffffffffffffffffff168173ffffffffffffffffffffffffffffffffffffffff160362000120575f6040517f1e4fbdf700000000000000000000000000000000000000000000000000000000815260040162000117919062000586565b60405180910390fd5b62000131816200013860201b60201c565b50620005a1565b5f60065f9054906101000a900473ffffffffffffffffffffffffffffffffffffffff1690508160065f6101000a81548173ffffffffffffffffffffffffffffffffffffffff021916908373ffffffffffffffffffffffffffffffffffffffff1602179055508173ffffffffffffffffffffffffffffffffffffffff168173ffffffffffffffffffffffffffffffffffffffff167f8be0079c531659141344cd1fd0a4f28419497f9722a3daafe3b4186f6b6457e060405160405180910390a35050565b5f81519050919050565b7f4e487b71000000000000000000000000000000000000000000000000000000005f52604160045260245ffd5b7f4e487b71000000000000000000000000000000000000000000000000000000005f52602260045260245ffd5b5f60028204905060018216806200027757607f821691505b6020821081036200028d576200028c62000232565b5b50919050565b5f819050815f5260205f209050919050565b5f6020601f8301049050919050565b5f82821b905092915050565b5f60088302620002f17fffffffffffffffffffffffffffffffffffffffffffffffffffffffffffffffff82620002b4565b620002fd8683620002b4565b95508019841693508086168417925050509392505050565b5f819050919050565b5f819050919050565b5f62000347620003416200033b8462000315565b6200031e565b62000315565b9050919050565b5f819050919050565b620003628362000327565b6200037a62000371826200034e565b848454620002c0565b825550505050565b5f90565b6200039062000382565b6200039d81848462000357565b505050565b5b81811015620003c457620003b85f8262000386565b600181019050620003a3565b5050565b601f8211156200041357620003dd8162000293565b620003e884620002a5565b81016020851015620003f8578190505b620004106200040785620002a5565b830182620003a2565b50505b505050565b5f82821c905092915050565b5f620004355f198460080262000418565b1980831691505092915050565b5f6200044f838362000424565b9150826002028217905092915050565b6200046a82620001fb565b67ffffffffffffffff81111562000486576200048562000205565b5b6200049282546200025f565b6200049f828285620003c8565b5f60209050601f831160018114620004d5575f8415620004c0578287015190505b620004cc858262000442565b8655506200053b565b601f198416620004e58662000293565b5f5b828110156200050e57848901518255600182019150602085019450602081019050620004e7565b868310156200052e57848901516200052a601f89168262000424565b8355505b6001600288020188555050505b505050505050565b5f73ffffffffffffffffffffffffffffffffffffffff82169050919050565b5f6200056e8262000543565b9050919050565b620005808162000562565b82525050565b5f6020820190506200059b5f83018462000575565b92915050565b612a5a80620005af5f395ff3fe60806040526004361061013f575f3560e01c80636817c76c116100b5578063a22cb4651161006e578063a22cb46514610440578063b88d4fde14610468578063c87b56dd14610490578063e985e9c5146104cc578063f2fde38b14610508578063f4a0a528146105305761013f565b80636817c76c1461033357806370a082311461035d578063715018a61461039957806378bea1ad146103af5780638da5cb5b146103ec57806395d89b41146104165761013f565b806323b872dd1161010757806323b872dd1461023757806332cb6b0c1461025f5780633ccfd60b1461028957806342842e0e1461029f5780634a0706be146102c75780636352211e146102f75761013f565b806301ffc9a71461014357806306fdde031461017f578063081812fc146101a9578063095ea7b3146101e557806318160ddd1461020d575b5f80fd5b34801561014e575f80fd5b5061016960048036038101906101649190611cb6565b610558565b6040516101769190611cfb565b60405180910390f35b34801561018a575f80fd5b50610193610639565b6040516101a09190611d9e565b60405180910390f35b3480156101b4575f80fd5b506101cf60048036038101906101ca9190611df1565b6106c8565b6040516101dc9190611e5b565b60405180910390f35b3480156101f0575f80fd5b5061020b60048036038101906102069190611e9e565b6106e3565b005b348015610218575f80fd5b506102216106f9565b60405161022e9190611eeb565b60405180910390f35b348015610242575f80fd5b5061025d60048036038101906102589190611f04565b610702565b005b34801561026a575f80fd5b50610273610801565b6040516102809190611eeb565b60405180910390f35b348015610294575f80fd5b5061029d610807565b005b3480156102aa575f80fd5b506102c560048036038101906102c09190611f04565b610861565b005b6102e160048036038101906102dc9190612080565b610880565b6040516102ee9190611eeb565b60405180910390f35b348015610302575f80fd5b5061031d60048036038101906103189190611df1565b6109d8565b60405161032a9190611e5b565b60405180910390f35b34801561033e575f80fd5b506103476109e9565b6040516103549190611eeb565b60405180910390f35b348015610368575f80fd5b50610383600480360381019061037e9190612138565b6109ef565b6040516103909190611eeb565b60405180910390f35b3480156103a4575f80fd5b506103ad610aa5565b005b3480156103ba575f80fd5b506103d560048036038101906103d09190611df1565b610ab8565b6040516103e3929190612163565b60405180910390f35b3480156103f7575f80fd5b50610400610c70565b60405161040d9190611e5b565b60405180910390f35b348015610421575f80fd5b5061042a610c98565b6040516104379190611d9e565b60405180910390f35b34801561044b575f80fd5b50610466600480360381019061046191906121c2565b610d28565b005b348015610473575f80fd5b5061048e6004803603810190610489919061229e565b610d3e565b005b34801561049b575f80fd5b506104b660048036038101906104b19190611df1565b610d63565b6040516104c39190611d9e565b60405180910390f35b3480156104d7575f80fd5b506104f260048036038101906104ed919061231e565b610e7a565b6040516104ff9190611cfb565b60405180910390f35b348015610513575f80fd5b5061052e60048036038101906105299190612138565b610f08565b005b34801561053b575f80fd5b5061055660048036038101906105519190611df1565b610f8c565b005b5f7f80ac58cd000000000000000000000000000000000000000000000000000000007bffffffffffffffffffffffffffffffffffffffffffffffffffffffff1916827bffffffffffffffffffffffffffffffffffffffffffffffffffffffff1916148061062257507f5b5e139f000000000000000000000000000000000000000000000000000000007bffffffffffffffffffffffffffffffffffffffffffffffffffffffff1916827bffffffffffffffffffffffffffffffffffffffffffffffffffffffff1916145b80610632575061063182610f9e565b5b9050919050565b60605f805461064790612389565b80601f016020809104026020016040519081016040528092919081815260200182805461067390612389565b80156106be5780601f10610695576101008083540402835291602001916106be565b820191905f5260205f20905b8154815290600101906020018083116106a157829003601f168201915b5050505050905090565b5f6106d282611007565b506106dc8261108d565b9050919050565b6106f582826106f06110c6565b6110cd565b5050565b5f600754905090565b5f73ffffffffffffffffffffffffffffffffffffffff168273ffffffffffffffffffffffffffffffffffffffff1603610772575f6040517f64a0ae920000000000000000000000000000000000000000000000000000000081526004016107699190611e5b565b60405180910390fd5b5f61078583836107806110c6565b6110df565b90508373ffffffffffffffffffffffffffffffffffffffff168173ffffffffffffffffffffffffffffffffffffffff16146107fb578382826040517f64283d7b0000000000000000000000000000000000000000000000000000000081526004016107f2939291906123b9565b60405180910390fd5b50505050565b61271081565b61080f6112ea565b5f47905061081b610c70565b73ffffffffffffffffffffffffffffffffffffffff166108fc8290811502906040515f60405180830381858888f1935050505015801561085d573d5f803e3d5ffd5b5050565b61087b83838360405180602001604052805f815250610d3e565b505050565b5f6008543410156108c6576040517f08c379a00000000000000000000000000000000000000000000000000000000081526004016108bd90612438565b60405180910390fd5b6127106007541061090c576040517f08c379a0000000000000000000000000000000000000000000000000000000008152600401610903906124a0565b60405180910390fd5b60075f81548092919061091e906124eb565b91905055505f60075490506109338682611371565b61093d8186611464565b83600a5f8381526020019081526020015f20908161095b91906126cf565b5082600b5f8381526020019081526020015f20908161097a91906126cf565b50808673ffffffffffffffffffffffffffffffffffffffff167f61261342a7bc683380d3671f7ce5cd098b4817ed02fa02e5c7e70df4e0be4ab786866040516109c4929190612163565b60405180910390a380915050949350505050565b5f6109e282611007565b9050919050565b60085481565b5f8073ffffffffffffffffffffffffffffffffffffffff168273ffffffffffffffffffffffffffffffffffffffff1603610a60575f6040517f89c62b64000000000000000000000000000000000000000000000000000000008152600401610a579190611e5b565b60405180910390fd5b60035f8373ffffffffffffffffffffffffffffffffffffffff1673ffffffffffffffffffffffffffffffffffffffff1681526020019081526020015f20549050919050565b610aad6112ea565b610ab65f6114fd565b565b6060805f73ffffffffffffffffffffffffffffffffffffffff16610adb846115c0565b73ffffffffffffffffffffffffffffffffffffffff1603610b31576040517f08c379a0000000000000000000000000000000000000000000000000000000008152600401610b28906127e8565b60405180910390fd5b600a5f8481526020019081526020015f20600b5f8581526020019081526020015f20818054610b5f90612389565b80601f0160208091040260200160405190810160405280929190818152602001828054610b8b90612389565b8015610bd65780601f10610bad57610100808354040283529160200191610bd6565b820191905f5260205f20905b815481529060010190602001808311610bb957829003601f168201915b50505050509150808054610be990612389565b80601f0160208091040260200160405190810160405280929190818152602001828054610c1590612389565b8015610c605780601f10610c3757610100808354040283529160200191610c60565b820191905f5260205f20905b815481529060010190602001808311610c4357829003601f168201915b5050505050905091509150915091565b5f60065f9054906101000a900473ffffffffffffffffffffffffffffffffffffffff16905090565b606060018054610ca790612389565b80601f0160208091040260200160405190810160405280929190818152602001828054610cd390612389565b8015610d1e5780601f10610cf557610100808354040283529160200191610d1e565b820191905f5260205f20905b815481529060010190602001808311610d0157829003601f168201915b5050505050905090565b610d3a610d336110c6565b83836115f9565b5050565b610d49848484610702565b610d5d610d546110c6565b85858585611762565b50505050565b60605f73ffffffffffffffffffffffffffffffffffffffff16610d85836115c0565b73ffffffffffffffffffffffffffffffffffffffff1603610ddb576040517f08c379a0000000000000000000000000000000000000000000000000000000008152600401610dd290612876565b60405180910390fd5b60095f8381526020019081526020015f208054610df790612389565b80601f0160208091040260200160405190810160405280929190818152602001828054610e2390612389565b8015610e6e5780601f10610e4557610100808354040283529160200191610e6e565b820191905f5260205f20905b815481529060010190602001808311610e5157829003601f168201915b50505050509050919050565b5f60055f8473ffffffffffffffffffffffffffffffffffffffff1673ffffffffffffffffffffffffffffffffffffffff1681526020019081526020015f205f8373ffffffffffffffffffffffffffffffffffffffff1673ffffffffffffffffffffffffffffffffffffffff1681526020019081526020015f205f9054906101000a900460ff16905092915050565b610f106112ea565b5f73ffffffffffffffffffffffffffffffffffffffff168173ffffffffffffffffffffffffffffffffffffffff1603610f80575f6040517f1e4fbdf7000000000000000000000000000000000000000000000000000000008152600401610f779190611e5b565b60405180910390fd5b610f89816114fd565b50565b610f946112ea565b8060088190555050565b5f7f01ffc9a7000000000000000000000000000000000000000000000000000000007bffffffffffffffffffffffffffffffffffffffffffffffffffffffff1916827bffffffffffffffffffffffffffffffffffffffffffffffffffffffff1916149050919050565b5f80611012836115c0565b90505f73ffffffffffffffffffffffffffffffffffffffff168173ffffffffffffffffffffffffffffffffffffffff160361108457826040517f7e27328900000000000000000000000000000000000000000000000000000000815260040161107b9190611eeb565b60405180910390fd5b80915050919050565b5f60045f8381526020019081526020015f205f9054906101000a900473ffffffffffffffffffffffffffffffffffffffff169050919050565b5f33905090565b6110da838383600161190e565b505050565b5f806110ea846115c0565b90505f73ffffffffffffffffffffffffffffffffffffffff168373ffffffffffffffffffffffffffffffffffffffff161461112b5761112a818486611acd565b5b5f73ffffffffffffffffffffffffffffffffffffffff168173ffffffffffffffffffffffffffffffffffffffff16146111b65761116a5f855f8061190e565b600160035f8373ffffffffffffffffffffffffffffffffffffffff1673ffffffffffffffffffffffffffffffffffffffff1681526020019081526020015f205f82825403925050819055505b5f73ffffffffffffffffffffffffffffffffffffffff168573ffffffffffffffffffffffffffffffffffffffff161461123557600160035f8773ffffffffffffffffffffffffffffffffffffffff1673ffffffffffffffffffffffffffffffffffffffff1681526020019081526020015f205f82825401925050819055505b8460025f8681526020019081526020015f205f6101000a81548173ffffffffffffffffffffffffffffffffffffffff021916908373ffffffffffffffffffffffffffffffffffffffff160217905550838573ffffffffffffffffffffffffffffffffffffffff168273ffffffffffffffffffffffffffffffffffffffff167fddf252ad1be2c89b69c2b068fc378daa952ba7f163c4a11628f55a4df523b3ef60405160405180910390a4809150509392505050565b6112f26110c6565b73ffffffffffffffffffffffffffffffffffffffff16611310610c70565b73ffffffffffffffffffffffffffffffffffffffff161461136f576113336110c6565b6040517f118cdaa70000000000000000000000000000000000000000000000000000000081526004016113669190611e5b565b60405180910390fd5b565b5f73ffffffffffffffffffffffffffffffffffffffff168273ffffffffffffffffffffffffffffffffffffffff16036113e1575f6040517f64a0ae920000000000000000000000000000000000000000000000000000000081526004016113d89190611e5b565b60405180910390fd5b5f6113ed83835f6110df565b90505f73ffffffffffffffffffffffffffffffffffffffff168173ffffffffffffffffffffffffffffffffffffffff161461145f575f6040517f73c6ac6e0000000000000000000000000000000000000000000000000000000081526004016114569190611e5b565b60405180910390fd5b505050565b5f73ffffffffffffffffffffffffffffffffffffffff16611484836115c0565b73ffffffffffffffffffffffffffffffffffffffff16036114da576040517f08c379a00000000000000000000000000000000000000000000000000000000081526004016114d190612904565b60405180910390fd5b8060095f8481526020019081526020015f2090816114f891906126cf565b505050565b5f60065f9054906101000a900473ffffffffffffffffffffffffffffffffffffffff1690508160065f6101000a81548173ffffffffffffffffffffffffffffffffffffffff021916908373ffffffffffffffffffffffffffffffffffffffff1602179055508173ffffffffffffffffffffffffffffffffffffffff168173ffffffffffffffffffffffffffffffffffffffff167f8be0079c531659141344cd1fd0a4f28419497f9722a3daafe3b4186f6b6457e060405160405180910390a35050565b5f60025f8381526020019081526020015f205f9054906101000a900473ffffffffffffffffffffffffffffffffffffffff169050919050565b5f73ffffffffffffffffffffffffffffffffffffffff168273ffffffffffffffffffffffffffffffffffffffff160361166957816040517f5b08ba180000000000000000000000000000000000000000000000000000000081526004016116609190611e5b565b60405180910390fd5b8060055f8573ffffffffffffffffffffffffffffffffffffffff1673ffffffffffffffffffffffffffffffffffffffff1681526020019081526020015f205f8473ffffffffffffffffffffffffffffffffffffffff1673ffffffffffffffffffffffffffffffffffffffff1681526020019081526020015f205f6101000a81548160ff0219169083151502179055508173ffffffffffffffffffffffffffffffffffffffff168373ffffffffffffffffffffffffffffffffffffffff167f17307eab39ab6107e8899845ad3d59bd9653f200f220920489ca2b5937696c31836040516117559190611cfb565b60405180910390a3505050565b5f8373ffffffffffffffffffffffffffffffffffffffff163b1115611907578273ffffffffffffffffffffffffffffffffffffffff1663150b7a02868685856040518563ffffffff1660e01b81526004016117c09493929190612974565b6020604051808303815f875af19250505080156117fb57506040513d601f19601f820116820180604052508101906117f891906129d2565b60015b61187c573d805f8114611829576040519150601f19603f3d011682016040523d82523d5f602084013e61182e565b606091505b505f81510361187457836040517f64a0ae9200000000000000000000000000000000000000000000000000000000815260040161186b9190611e5b565b60405180910390fd5b805181602001fd5b63150b7a0260e01b7bffffffffffffffffffffffffffffffffffffffffffffffffffffffff1916817bffffffffffffffffffffffffffffffffffffffffffffffffffffffff19161461190557836040517f64a0ae920000000000000000000000000000000000000000000000000000000081526004016118fc9190611e5b565b60405180910390fd5b505b5050505050565b808061194657505f73ffffffffffffffffffffffffffffffffffffffff168273ffffffffffffffffffffffffffffffffffffffff1614155b15611a78575f61195584611007565b90505f73ffffffffffffffffffffffffffffffffffffffff168373ffffffffffffffffffffffffffffffffffffffff16141580156119bf57508273ffffffffffffffffffffffffffffffffffffffff168173ffffffffffffffffffffffffffffffffffffffff1614155b80156119d257506119d08184610e7a565b155b15611a1457826040517fa9fbf51f000000000000000000000000000000000000000000000000000000008152600401611a0b9190611e5b565b60405180910390fd5b8115611a7657838573ffffffffffffffffffffffffffffffffffffffff168273ffffffffffffffffffffffffffffffffffffffff167f8c5be1e5ebec7d5bd14f71427d1e84f3dd0314c0f7b2291e5b200ac8c7c3b92560405160405180910390a45b505b8360045f8581526020019081526020015f205f6101000a81548173ffffffffffffffffffffffffffffffffffffffff021916908373ffffffffffffffffffffffffffffffffffffffff16021790555050505050565b611ad8838383611b90565b611b8b575f73ffffffffffffffffffffffffffffffffffffffff168373ffffffffffffffffffffffffffffffffffffffff1603611b4c57806040517f7e273289000000000000000000000000000000000000000000000000000000008152600401611b439190611eeb565b60405180910390fd5b81816040517f177e802f000000000000000000000000000000000000000000000000000000008152600401611b829291906129fd565b60405180910390fd5b505050565b5f8073ffffffffffffffffffffffffffffffffffffffff168373ffffffffffffffffffffffffffffffffffffffff1614158015611c4757508273ffffffffffffffffffffffffffffffffffffffff168473ffffffffffffffffffffffffffffffffffffffff161480611c085750611c078484610e7a565b5b80611c4657508273ffffffffffffffffffffffffffffffffffffffff16611c2e8361108d565b73ffffffffffffffffffffffffffffffffffffffff16145b5b90509392505050565b5f604051905090565b5f80fd5b5f80fd5b5f7fffffffff0000000000000000000000000000000000000000000000000000000082169050919050565b611c9581611c61565b8114611c9f575f80fd5b50565b5f81359050611cb081611c8c565b92915050565b5f60208284031215611ccb57611cca611c59565b5b5f611cd884828501611ca2565b91505092915050565b5f8115159050919050565b611cf581611ce1565b82525050565b5f602082019050611d0e5f830184611cec565b92915050565b5f81519050919050565b5f82825260208201905092915050565b5f5b83811015611d4b578082015181840152602081019050611d30565b5f8484015250505050565b5f601f19601f8301169050919050565b5f611d7082611d14565b611d7a8185611d1e565b9350611d8a818560208601611d2e565b611d9381611d56565b840191505092915050565b5f6020820190508181035f830152611db68184611d66565b905092915050565b5f819050919050565b611dd081611dbe565b8114611dda575f80fd5b50565b5f81359050611deb81611dc7565b92915050565b5f60208284031215611e0657611e05611c59565b5b5f611e1384828501611ddd565b91505092915050565b5f73ffffffffffffffffffffffffffffffffffffffff82169050919050565b5f611e4582611e1c565b9050919050565b611e5581611e3b565b82525050565b5f602082019050611e6e5f830184611e4c565b92915050565b611e7d81611e3b565b8114611e87575f80fd5b50565b5f81359050611e9881611e74565b92915050565b5f8060408385031215611eb457611eb3611c59565b5b5f611ec185828601611e8a565b9250506020611ed285828601611ddd565b9150509250929050565b611ee581611dbe565b82525050565b5f602082019050611efe5f830184611edc565b92915050565b5f805f60608486031215611f1b57611f1a611c59565b5b5f611f2886828701611e8a565b9350506020611f3986828701611e8a565b9250506040611f4a86828701611ddd565b9150509250925092565b5f80fd5b5f80fd5b7f4e487b71000000000000000000000000000000000000000000000000000000005f52604160045260245ffd5b611f9282611d56565b810181811067ffffffffffffffff82111715611fb157611fb0611f5c565b5b80604052505050565b5f611fc3611c50565b9050611fcf8282611f89565b919050565b5f67ffffffffffffffff821115611fee57611fed611f5c565b5b611ff782611d56565b9050602081019050919050565b828183375f83830152505050565b5f61202461201f84611fd4565b611fba565b9050828152602081018484840111156120405761203f611f58565b5b61204b848285612004565b509392505050565b5f82601f83011261206757612066611f54565b5b8135612077848260208601612012565b91505092915050565b5f805f806080858703121561209857612097611c59565b5b5f6120a587828801611e8a565b945050602085013567ffffffffffffffff8111156120c6576120c5611c5d565b5b6120d287828801612053565b935050604085013567ffffffffffffffff8111156120f3576120f2611c5d565b5b6120ff87828801612053565b925050606085013567ffffffffffffffff8111156121205761211f611c5d565b5b61212c87828801612053565b91505092959194509250565b5f6020828403121561214d5761214c611c59565b5b5f61215a84828501611e8a565b91505092915050565b5f6040820190508181035f83015261217b8185611d66565b9050818103602083015261218f8184611d66565b90509392505050565b6121a181611ce1565b81146121ab575f80fd5b50565b5f813590506121bc81612198565b92915050565b5f80604083850312156121d8576121d7611c59565b5b5f6121e585828601611e8a565b92505060206121f6858286016121ae565b9150509250929050565b5f67ffffffffffffffff82111561221a57612219611f5c565b5b61222382611d56565b9050602081019050919050565b5f61224261223d84612200565b611fba565b90508281526020810184848401111561225e5761225d611f58565b5b612269848285612004565b509392505050565b5f82601f83011261228557612284611f54565b5b8135612295848260208601612230565b91505092915050565b5f805f80608085870312156122b6576122b5611c59565b5b5f6122c387828801611e8a565b94505060206122d487828801611e8a565b93505060406122e587828801611ddd565b925050606085013567ffffffffffffffff81111561230657612305611c5d565b5b61231287828801612271565b91505092959194509250565b5f806040838503121561233457612333611c59565b5b5f61234185828601611e8a565b925050602061235285828601611e8a565b9150509250929050565b7f4e487b71000000000000000000000000000000000000000000000000000000005f52602260045260245ffd5b5f60028204905060018216806123a057607f821691505b6020821081036123b3576123b261235c565b5b50919050565b5f6060820190506123cc5f830186611e4c565b6123d96020830185611edc565b6123e66040830184611e4c565b949350505050565b7f496e73756666696369656e74207061796d656e740000000000000000000000005f82015250565b5f612422601483611d1e565b915061242d826123ee565b602082019050919050565b5f6020820190508181035f83015261244f81612416565b9050919050565b7f4d617820737570706c79207265616368656400000000000000000000000000005f82015250565b5f61248a601283611d1e565b915061249582612456565b602082019050919050565b5f6020820190508181035f8301526124b78161247e565b9050919050565b7f4e487b71000000000000000000000000000000000000000000000000000000005f52601160045260245ffd5b5f6124f582611dbe565b91507fffffffffffffffffffffffffffffffffffffffffffffffffffffffffffffffff8203612527576125266124be565b5b600182019050919050565b5f819050815f5260205f209050919050565b5f6020601f8301049050919050565b5f82821b905092915050565b5f6008830261258e7fffffffffffffffffffffffffffffffffffffffffffffffffffffffffffffffff82612553565b6125988683612553565b95508019841693508086168417925050509392505050565b5f819050919050565b5f6125d36125ce6125c984611dbe565b6125b0565b611dbe565b9050919050565b5f819050919050565b6125ec836125b9565b6126006125f8826125da565b84845461255f565b825550505050565b5f90565b612614612608565b61261f8184846125e3565b505050565b5b81811015612642576126375f8261260c565b600181019050612625565b5050565b601f8211156126875761265881612532565b61266184612544565b81016020851015612670578190505b61268461267c85612544565b830182612624565b50505b505050565b5f82821c905092915050565b5f6126a75f198460080261268c565b1980831691505092915050565b5f6126bf8383612698565b9150826002028217905092915050565b6126d882611d14565b67ffffffffffffffff8111156126f1576126f0611f5c565b5b6126fb8254612389565b612706828285612646565b5f60209050601f831160018114612737575f8415612725578287015190505b61272f85826126b4565b865550612796565b601f19841661274586612532565b5f5b8281101561276c57848901518255600182019150602085019450602081019050612747565b868310156127895784890151612785601f891682612698565b8355505b6001600288020188555050505b505050505050565b7f546f6b656e20646f6573206e6f742065786973740000000000000000000000005f82015250565b5f6127d2601483611d1e565b91506127dd8261279e565b602082019050919050565b5f6020820190508181035f8301526127ff816127c6565b9050919050565b7f4552433732314d657461646174613a2055524920717565727920666f72206e6f5f8201527f6e6578697374656e7420746f6b656e0000000000000000000000000000000000602082015250565b5f612860602f83611d1e565b915061286b82612806565b604082019050919050565b5f6020820190508181035f83015261288d81612854565b9050919050565b7f4552433732314d657461646174613a2055524920736574206f66206e6f6e65785f8201527f697374656e7420746f6b656e0000000000000000000000000000000000000000602082015250565b5f6128ee602c83611d1e565b91506128f982612894565b604082019050919050565b5f6020820190508181035f83015261291b816128e2565b9050919050565b5f81519050919050565b5f82825260208201905092915050565b5f61294682612922565b612950818561292c565b9350612960818560208601611d2e565b61296981611d56565b840191505092915050565b5f6080820190506129875f830187611e4c565b6129946020830186611e4c565b6129a16040830185611edc565b81810360608301526129b3818461293c565b905095945050505050565b5f815190506129cc81611c8c565b92915050565b5f602082840312156129e7576129e6611c59565b5b5f6129f4848285016129be565b91505092915050565b5f604082019050612a105f830185611e4c565b612a1d6020830184611edc565b939250505056fea26469706673582212202d1620bb2d9905930acb0128e86aa7b413b1676aad120a7e6ebd1c5e8128b99e64736f6c63430008140033","linkReferences":{}},"methodIdentifiers":{"MAX_SUPPLY()":"32cb6b0c","approve(address,uint256)":"095ea7b3","balanceOf(address)":"70a08231","getApproved(uint256)":"081812fc","getOutfitInfo(uint256)":"78bea1ad","isApprovedForAll(address,address)":"e985e9c5","mint(address,string,string,string)":"4a0706be","mintPrice()":"6817c76c","name()":"06fdde03","owner()":"8da5cb5b","ownerOf(uint256)":"6352211e","renounceOwnership()":"715018a6","safeTransferFrom(address,address,uint256)":"42842e0e","safeTransferFrom(address,address,uint256,bytes)":"b88d4fde","setApprovalForAll(address,bool)":"a22cb465","setMintPrice(uint256)":"f4a0a528","supportsInterface(bytes4)":"01ffc9a7","symbol()":"95d89b41","tokenURI(uint256)":"c87b56dd","totalSupply()":"18160ddd","transferFrom(address,address,uint256)":"23b872dd","transferOwnership(address)":"f2fde38b","withdraw()":"3ccfd60b"},"id":2}