{"abi":[{"type":"constructor","inputs":[],"stateMutability":"nonpayable"},{"type":"function","name":"buyItem","inputs":[{"name":"listingId","type":"uint256","internalType":"uint256"}],"outputs":[],"stateMutability":"payable"},{"type":"function","name":"cancelListing","inputs":[{"name":"listingId","type":"uint256","internalType":"uint256"}],"outputs":[],"stateMutability":"nonpayable"},{"type":"function","name":"getActiveListing","inputs":[{"name":"listingId","type":"uint256","internalType":"uint256"}],"outputs":[{"name":"","type":"tuple","internalType":"struct BlockcraftMarketplace.Listing","components":[{"name":"listingId","type":"uint256","internalType":"uint256"},{"name":"seller","type":"address","internalType":"address"},{"name":"nftContract","type":"address","internalType":"address"},{"name":"tokenId","type":"uint256","internalType":"uint256"},{"name":"amount","type":"uint256","internalType":"uint256"},{"name":"price","type":"uint256","internalType":"uint256"},{"name":"listingType","type":"uint8","internalType":"enum BlockcraftMarketplace.ListingType"},{"name":"status","type":"uint8","internalType":"enum BlockcraftMarketplace.ListingStatus"},{"name":"createdAt","type":"uint256","internalType":"uint256"}]}],"stateMutability":"view"},{"type":"function","name":"getAllActiveListings","inputs":[],"outputs":[{"name":"activeListings","type":"uint256[]","internalType":"uint256[]"}],"stateMutability":"view"},{"type":"function","name":"getTotalListings","inputs":[],"outputs":[{"name":"","type":"uint256","internalType":"uint256"}],"stateMutability":"view"},{"type":"function","name":"getUserListings","inputs":[{"name":"user","type":"address","internalType":"address"}],"outputs":[{"name":"","type":"uint256[]","internalType":"uint256[]"}],"stateMutability":"view"},{"type":"function","name":"listERC1155","inputs":[{"name":"nftContract","type":"address","internalType":"address"},{"name":"tokenId","type":"uint256","internalType":"uint256"},{"name":"amount","type":"uint256","internalType":"uint256"},{"name":"price","type":"uint256","internalType":"uint256"}],"outputs":[],"stateMutability":"nonpayable"},{"type":"function","name":"listERC721","inputs":[{"name":"nftContract","type":"address","internalType":"address"},{"name":"tokenId","type":"uint256","internalType":"uint256"},{"name":"price","type":"uint256","internalType":"uint256"}],"outputs":[],"stateMutability":"nonpayable"},{"type":"function","name":"listings","inputs":[{"name":"","type":"uint256","internalType":"uint256"}],"outputs":[{"name":"listingId","type":"uint256","internalType":"uint256"},{"name":"seller","type":"address","internalType":"address"},{"name":"nftContract","type":"address","internalType":"address"},{"name":"tokenId","type":"uint256","internalType":"uint256"},{"name":"amount","type":"uint256","internalType":"uint256"},{"name":"price","type":"uint256","internalType":"uint256"},{"name":"listingType","type":"uint8","internalType":"enum BlockcraftMarketplace.ListingType"},{"name":"status","type":"uint8","internalType":"enum BlockcraftMarketplace.ListingStatus"},{"name":"createdAt","type":"uint256","internalType":"uint256"}],"stateMutability":"view"},{"type":"function","name":"marketplaceFee","inputs":[],"outputs":[{"name":"","type":"uint256","internalType":"uint256"}],"stateMutability":"view"},{"type":"function","name":"owner","inputs":[],"outputs":[{"name":"","type":"address","internalType":"address"}],"stateMutability":"view"},{"type":"function","name":"renounceOwnership","inputs":[],"outputs":[],"stateMutability":"nonpayable"},{"type":"function","name":"setMarketplaceFee","inputs":[{"name":"_fee","type":"uint256","internalType":"uint256"}],"outputs":[],"stateMutability":"nonpayable"},{"type":"function","name":"transferOwnership","inputs":[{"name":"newOwner","type":"address","internalType":"address"}],"outputs":[],"stateMutability":"nonpayable"},{"type":"function","name":"userListings","inputs":[{"name":"","type":"address","internalType":"address"},{"name":"","type":"uint256","internalType":"uint256"}],"outputs":[{"name":"","type":"uint256","internalType":"uint256"}],"stateMutability":"view"},{"type":"function","name":"withdrawFees","inputs":[],"outputs":[],"stateMutability":"nonpayable"},{"type":"event","name":"ItemCancelled","inputs":[{"name":"listingId","type":"uint256","indexed":true,"internalType":"uint256"}],"anonymous":false},{"type":"event","name":"ItemListed","inputs":[{"name":"listingId","type":"uint256","indexed":true,"internalType":"uint256"},{"name":"seller","type":"address","indexed":true,"internalType":"address"},{"name":"nftContract","type":"address","indexed":true,"internalType":"address"},{"name":"tokenId","type":"uint256","indexed":false,"internalType":"uint256"},{"name":"amount","type":"uint256","indexed":false,"internalType":"uint256"},{"name":"price","type":"uint256","indexed":false,"internalType":"uint256"},{"name":"listingType","type":"uint8","indexed":false,"internalType":"enum BlockcraftMarketplace.ListingType"}],"anonymous":false},{"type":"event","name":"ItemSold","inputs":[{"name":"listingId","type":"uint256","indexed":true,"internalType":"uint256"},{"name":"buyer","type":"address","indexed":true,"internalType":"address"},{"name":"seller","type":"address","indexed":true,"internalType":"address"},{"name":"price","type":"uint256","indexed":false,"internalType":"uint256"}],"anonymous":false},{"type":"event","name":"OwnershipTransferred","inputs":[{"name":"previousOwner","type":"address","indexed":true,"internalType":"address"},{"name":"newOwner","type":"address","indexed":true,"internalType":"address"}],"anonymous":false},{"type":"error","name":"OwnableInvalidOwner","inputs":[{"name":"owner","type":"address","internalType":"address"}]},{"type":"error","name":"OwnableUnauthorizedAccount","inputs":[{"name":"account","type":"address","internalType":"address"}]},{"type":"error","name":"ReentrancyGuardReentrantCall","inputs":[]}],"bytecode":{"object":"0x608060405260fa60025534801562000015575f80fd5b503360015f819055505f73ffffffffffffffffffffffffffffffffffffffff168173ffffffffffffffffffffffffffffffffffffffff160362000091575f6040517f1e4fbdf7000000000000000000000000000000000000000000000000000000008152600401620000889190620001af565b60405180910390fd5b620000a281620000a960201b60201c565b50620001ca565b5f60015f9054906101000a900473ffffffffffffffffffffffffffffffffffffffff1690508160015f6101000a81548173ffffffffffffffffffffffffffffffffffffffff021916908373ffffffffffffffffffffffffffffffffffffffff1602179055508173ffffffffffffffffffffffffffffffffffffffff168173ffffffffffffffffffffffffffffffffffffffff167f8be0079c531659141344cd1fd0a4f28419497f9722a3daafe3b4186f6b6457e060405160405180910390a35050565b5f73ffffffffffffffffffffffffffffffffffffffff82169050919050565b5f62000197826200016c565b9050919050565b620001a9816200018b565b82525050565b5f602082019050620001c45f8301846200019e565b92915050565b612a8280620001d85f395ff3fe6080604052600436106100f2575f3560e01c80638da5cb5b11610089578063e8d9b52f11610058578063e8d9b52f146102f0578063eb18a9d814610318578063f2fde38b14610354578063fbf30c351461037c576100f2565b80638da5cb5b1461023e5780639407ea9814610268578063de74e57b14610290578063e7fb74c7146102d4576100f2565b80636a166964116100c55780636a16696414610198578063701e5084146101c2578063715018a6146101ec57806386cfa7d314610202576100f2565b80631030f05f146100f6578063305a67a814610132578063476343ee1461015a5780635280af1d14610170575b5f80fd5b348015610101575f80fd5b5061011c60048036038101906101179190611cd2565b6103a6565b6040516101299190611eb9565b60405180910390f35b34801561013d575f80fd5b5061015860048036038101906101539190611cd2565b6105a9565b005b348015610165575f80fd5b5061016e610733565b005b34801561017b575f80fd5b5061019660048036038101906101919190611efd565b61078d565b005b3480156101a3575f80fd5b506101ac610cdd565b6040516101b99190611f5c565b60405180910390f35b3480156101cd575f80fd5b506101d6610ce3565b6040516101e3919061201d565b60405180910390f35b3480156101f7575f80fd5b50610200610e53565b005b34801561020d575f80fd5b506102286004803603810190610223919061203d565b610e66565b6040516102359190611f5c565b60405180910390f35b348015610249575f80fd5b50610252610e91565b60405161025f919061208a565b60405180910390f35b348015610273575f80fd5b5061028e60048036038101906102899190611cd2565b610eb9565b005b34801561029b575f80fd5b506102b660048036038101906102b19190611cd2565b610f10565b6040516102cb999897969594939291906120c1565b60405180910390f35b6102ee60048036038101906102e99190611cd2565b610fb1565b005b3480156102fb575f80fd5b506103166004803603810190610311919061214c565b61148f565b005b348015610323575f80fd5b5061033e600480360381019061033991906121b0565b61194a565b60405161034b919061201d565b60405180910390f35b34801561035f575f80fd5b5061037a600480360381019061037591906121b0565b6119dd565b005b348015610387575f80fd5b50610390611a61565b60405161039d9190611f5c565b60405180910390f35b6103ae611c08565b5f60028111156103c1576103c0611d4b565b5b60045f8481526020019081526020015f2060060160019054906101000a900460ff1660028111156103f5576103f4611d4b565b5b14610435576040517f08c379a000000000000000000000000000000000000000000000000000000000815260040161042c90612235565b60405180910390fd5b60045f8381526020019081526020015f20604051806101200160405290815f8201548152602001600182015f9054906101000a900473ffffffffffffffffffffffffffffffffffffffff1673ffffffffffffffffffffffffffffffffffffffff1673ffffffffffffffffffffffffffffffffffffffff168152602001600282015f9054906101000a900473ffffffffffffffffffffffffffffffffffffffff1673ffffffffffffffffffffffffffffffffffffffff1673ffffffffffffffffffffffffffffffffffffffff168152602001600382015481526020016004820154815260200160058201548152602001600682015f9054906101000a900460ff16600181111561054757610546611d4b565b5b600181111561055957610558611d4b565b5b81526020016006820160019054906101000a900460ff16600281111561058257610581611d4b565b5b600281111561059457610593611d4b565b5b81526020016007820154815250509050919050565b6105b1611a6a565b5f60045f8381526020019081526020015f2090503373ffffffffffffffffffffffffffffffffffffffff16816001015f9054906101000a900473ffffffffffffffffffffffffffffffffffffffff1673ffffffffffffffffffffffffffffffffffffffff1614610656576040517f08c379a000000000000000000000000000000000000000000000000000000000815260040161064d9061229d565b60405180910390fd5b5f600281111561066957610668611d4b565b5b8160060160019054906101000a900460ff16600281111561068d5761068c611d4b565b5b146106cd576040517f08c379a00000000000000000000000000000000000000000000000000000000081526004016106c490612235565b60405180910390fd5b60028160060160016101000a81548160ff021916908360028111156106f5576106f4611d4b565b5b0217905550817f6875ab0cd79fc59886259e999e56eb8da549fa524709389bc624972a5896995860405160405180910390a250610730611aae565b50565b61073b611ab7565b5f479050610747610e91565b73ffffffffffffffffffffffffffffffffffffffff166108fc8290811502906040515f60405180830381858888f19350505050158015610789573d5f803e3d5ffd5b5050565b610795611a6a565b5f81116107d7576040517f08c379a00000000000000000000000000000000000000000000000000000000081526004016107ce90612305565b60405180910390fd5b3373ffffffffffffffffffffffffffffffffffffffff168373ffffffffffffffffffffffffffffffffffffffff16636352211e846040518263ffffffff1660e01b81526004016108279190611f5c565b602060405180830381865afa158015610842573d5f803e3d5ffd5b505050506040513d601f19601f820116820180604052508101906108669190612337565b73ffffffffffffffffffffffffffffffffffffffff16146108bc576040517f08c379a00000000000000000000000000000000000000000000000000000000081526004016108b3906123ac565b60405180910390fd5b8273ffffffffffffffffffffffffffffffffffffffff1663e985e9c533306040518363ffffffff1660e01b81526004016108f79291906123ca565b602060405180830381865afa158015610912573d5f803e3d5ffd5b505050506040513d601f19601f820116820180604052508101906109369190612426565b806109e357503073ffffffffffffffffffffffffffffffffffffffff168373ffffffffffffffffffffffffffffffffffffffff1663081812fc846040518263ffffffff1660e01b815260040161098c9190611f5c565b602060405180830381865afa1580156109a7573d5f803e3d5ffd5b505050506040513d601f19601f820116820180604052508101906109cb9190612337565b73ffffffffffffffffffffffffffffffffffffffff16145b610a22576040517f08c379a0000000000000000000000000000000000000000000000000000000008152600401610a199061249b565b60405180910390fd5b60035f815480929190610a34906124e6565b919050555060405180610120016040528060035481526020013373ffffffffffffffffffffffffffffffffffffffff1681526020018473ffffffffffffffffffffffffffffffffffffffff168152602001838152602001600181526020018281526020015f6001811115610aab57610aaa611d4b565b5b81526020015f6002811115610ac357610ac2611d4b565b5b81526020014281525060045f60035481526020019081526020015f205f820151815f01556020820151816001015f6101000a81548173ffffffffffffffffffffffffffffffffffffffff021916908373ffffffffffffffffffffffffffffffffffffffff1602179055506040820151816002015f6101000a81548173ffffffffffffffffffffffffffffffffffffffff021916908373ffffffffffffffffffffffffffffffffffffffff160217905550606082015181600301556080820151816004015560a0820151816005015560c0820151816006015f6101000a81548160ff02191690836001811115610bbb57610bba611d4b565b5b021790555060e08201518160060160016101000a81548160ff02191690836002811115610beb57610bea611d4b565b5b0217905550610100820151816007015590505060055f3373ffffffffffffffffffffffffffffffffffffffff1673ffffffffffffffffffffffffffffffffffffffff1681526020019081526020015f20600354908060018154018082558091505060019003905f5260205f20015f90919091909150558273ffffffffffffffffffffffffffffffffffffffff163373ffffffffffffffffffffffffffffffffffffffff166003547ff687b6175c81196bf9d3d05e933d289603d27e1da4820fd14261e47401e7d627856001865f604051610cc8949392919061256f565b60405180910390a4610cd8611aae565b505050565b60025481565b60605f80600190505b6003548111610d63575f6002811115610d0857610d07611d4b565b5b60045f8381526020019081526020015f2060060160019054906101000a900460ff166002811115610d3c57610d3b611d4b565b5b03610d50578180610d4c906124e6565b9250505b8080610d5b906124e6565b915050610cec565b508067ffffffffffffffff811115610d7e57610d7d6125b2565b5b604051908082528060200260200182016040528015610dac5781602001602082028036833780820191505090505b5091505f80600190505b6003548111610e4d575f6002811115610dd257610dd1611d4b565b5b60045f8381526020019081526020015f2060060160019054906101000a900460ff166002811115610e0657610e05611d4b565b5b03610e3a5780848381518110610e1f57610e1e6125df565b5b6020026020010181815250508180610e36906124e6565b9250505b8080610e45906124e6565b915050610db6565b50505090565b610e5b611ab7565b610e645f611b3e565b565b6005602052815f5260405f208181548110610e7f575f80fd5b905f5260205f20015f91509150505481565b5f60015f9054906101000a900473ffffffffffffffffffffffffffffffffffffffff16905090565b610ec1611ab7565b6103e8811115610f06576040517f08c379a0000000000000000000000000000000000000000000000000000000008152600401610efd90612656565b60405180910390fd5b8060028190555050565b6004602052805f5260405f205f91509050805f015490806001015f9054906101000a900473ffffffffffffffffffffffffffffffffffffffff1690806002015f9054906101000a900473ffffffffffffffffffffffffffffffffffffffff1690806003015490806004015490806005015490806006015f9054906101000a900460ff16908060060160019054906101000a900460ff16908060070154905089565b610fb9611a6a565b5f60045f8381526020019081526020015f2090505f6002811115610fe057610fdf611d4b565b5b8160060160019054906101000a900460ff16600281111561100457611003611d4b565b5b14611044576040517f08c379a000000000000000000000000000000000000000000000000000000000815260040161103b90612235565b60405180910390fd5b806005015434101561108b576040517f08c379a0000000000000000000000000000000000000000000000000000000008152600401611082906126be565b60405180910390fd5b806001015f9054906101000a900473ffffffffffffffffffffffffffffffffffffffff1673ffffffffffffffffffffffffffffffffffffffff163373ffffffffffffffffffffffffffffffffffffffff160361111c576040517f08c379a000000000000000000000000000000000000000000000000000000000815260040161111390612726565b60405180910390fd5b60018160060160016101000a81548160ff0219169083600281111561114457611143611d4b565b5b02179055505f612710600254836005015461115f9190612744565b61116991906127b2565b90505f81836005015461117c91906127e2565b90505f600181111561119157611190611d4b565b5b836006015f9054906101000a900460ff1660018111156111b4576111b3611d4b565b5b0361127257826002015f9054906101000a900473ffffffffffffffffffffffffffffffffffffffff1673ffffffffffffffffffffffffffffffffffffffff166342842e0e846001015f9054906101000a900473ffffffffffffffffffffffffffffffffffffffff163386600301546040518463ffffffff1660e01b815260040161124093929190612815565b5f604051808303815f87803b158015611257575f80fd5b505af1158015611269573d5f803e3d5ffd5b5050505061132d565b826002015f9054906101000a900473ffffffffffffffffffffffffffffffffffffffff1673ffffffffffffffffffffffffffffffffffffffff1663f242432a846001015f9054906101000a900473ffffffffffffffffffffffffffffffffffffffff1633866003015487600401546040518563ffffffff1660e01b81526004016112ff949392919061287d565b5f604051808303815f87803b158015611316575f80fd5b505af1158015611328573d5f803e3d5ffd5b505050505b826001015f9054906101000a900473ffffffffffffffffffffffffffffffffffffffff1673ffffffffffffffffffffffffffffffffffffffff166108fc8290811502906040515f60405180830381858888f19350505050158015611393573d5f803e3d5ffd5b5082600501543411156113f4573373ffffffffffffffffffffffffffffffffffffffff166108fc8460050154346113ca91906127e2565b90811502906040515f60405180830381858888f193505050501580156113f2573d5f803e3d5ffd5b505b826001015f9054906101000a900473ffffffffffffffffffffffffffffffffffffffff1673ffffffffffffffffffffffffffffffffffffffff163373ffffffffffffffffffffffffffffffffffffffff16857f04ddd54c6b746e69ba87f862311f7670bd1d7276846778ac81cd38747b27a74686600501546040516114799190611f5c565b60405180910390a450505061148c611aae565b50565b611497611a6a565b5f81116114d9576040517f08c379a00000000000000000000000000000000000000000000000000000000081526004016114d090612305565b60405180910390fd5b5f821161151b576040517f08c379a00000000000000000000000000000000000000000000000000000000081526004016115129061291d565b60405180910390fd5b818473ffffffffffffffffffffffffffffffffffffffff1662fdd58e33866040518363ffffffff1660e01b815260040161155692919061293b565b602060405180830381865afa158015611571573d5f803e3d5ffd5b505050506040513d601f19601f820116820180604052508101906115959190612976565b10156115d6576040517f08c379a00000000000000000000000000000000000000000000000000000000081526004016115cd906129eb565b60405180910390fd5b8373ffffffffffffffffffffffffffffffffffffffff1663e985e9c533306040518363ffffffff1660e01b81526004016116119291906123ca565b602060405180830381865afa15801561162c573d5f803e3d5ffd5b505050506040513d601f19601f820116820180604052508101906116509190612426565b61168f576040517f08c379a00000000000000000000000000000000000000000000000000000000081526004016116869061249b565b60405180910390fd5b60035f8154809291906116a1906124e6565b919050555060405180610120016040528060035481526020013373ffffffffffffffffffffffffffffffffffffffff1681526020018573ffffffffffffffffffffffffffffffffffffffff16815260200184815260200183815260200182815260200160018081111561171757611716611d4b565b5b81526020015f600281111561172f5761172e611d4b565b5b81526020014281525060045f60035481526020019081526020015f205f820151815f01556020820151816001015f6101000a81548173ffffffffffffffffffffffffffffffffffffffff021916908373ffffffffffffffffffffffffffffffffffffffff1602179055506040820151816002015f6101000a81548173ffffffffffffffffffffffffffffffffffffffff021916908373ffffffffffffffffffffffffffffffffffffffff160217905550606082015181600301556080820151816004015560a0820151816005015560c0820151816006015f6101000a81548160ff0219169083600181111561182757611826611d4b565b5b021790555060e08201518160060160016101000a81548160ff0219169083600281111561185757611856611d4b565b5b0217905550610100820151816007015590505060055f3373ffffffffffffffffffffffffffffffffffffffff1673ffffffffffffffffffffffffffffffffffffffff1681526020019081526020015f20600354908060018154018082558091505060019003905f5260205f20015f90919091909150558373ffffffffffffffffffffffffffffffffffffffff163373ffffffffffffffffffffffffffffffffffffffff166003547ff687b6175c81196bf9d3d05e933d289603d27e1da4820fd14261e47401e7d62786868660016040516119349493929190612a09565b60405180910390a4611944611aae565b50505050565b606060055f8373ffffffffffffffffffffffffffffffffffffffff1673ffffffffffffffffffffffffffffffffffffffff1681526020019081526020015f208054806020026020016040519081016040528092919081815260200182805480156119d157602002820191905f5260205f20905b8154815260200190600101908083116119bd575b50505050509050919050565b6119e5611ab7565b5f73ffffffffffffffffffffffffffffffffffffffff168173ffffffffffffffffffffffffffffffffffffffff1603611a55575f6040517f1e4fbdf7000000000000000000000000000000000000000000000000000000008152600401611a4c919061208a565b60405180910390fd5b611a5e81611b3e565b50565b5f600354905090565b60025f5403611aa5576040517f3ee5aeb500000000000000000000000000000000000000000000000000000000815260040160405180910390fd5b60025f81905550565b60015f81905550565b611abf611c01565b73ffffffffffffffffffffffffffffffffffffffff16611add610e91565b73ffffffffffffffffffffffffffffffffffffffff1614611b3c57611b00611c01565b6040517f118cdaa7000000000000000000000000000000000000000000000000000000008152600401611b33919061208a565b60405180910390fd5b565b5f60015f9054906101000a900473ffffffffffffffffffffffffffffffffffffffff1690508160015f6101000a81548173ffffffffffffffffffffffffffffffffffffffff021916908373ffffffffffffffffffffffffffffffffffffffff1602179055508173ffffffffffffffffffffffffffffffffffffffff168173ffffffffffffffffffffffffffffffffffffffff167f8be0079c531659141344cd1fd0a4f28419497f9722a3daafe3b4186f6b6457e060405160405180910390a35050565b5f33905090565b6040518061012001604052805f81526020015f73ffffffffffffffffffffffffffffffffffffffff1681526020015f73ffffffffffffffffffffffffffffffffffffffff1681526020015f81526020015f81526020015f81526020015f6001811115611c7757611c76611d4b565b5b81526020015f6002811115611c8f57611c8e611d4b565b5b81526020015f81525090565b5f80fd5b5f819050919050565b611cb181611c9f565b8114611cbb575f80fd5b50565b5f81359050611ccc81611ca8565b92915050565b5f60208284031215611ce757611ce6611c9b565b5b5f611cf484828501611cbe565b91505092915050565b611d0681611c9f565b82525050565b5f73ffffffffffffffffffffffffffffffffffffffff82169050919050565b5f611d3582611d0c565b9050919050565b611d4581611d2b565b82525050565b7f4e487b71000000000000000000000000000000000000000000000000000000005f52602160045260245ffd5b60028110611d8957611d88611d4b565b5b50565b5f819050611d9982611d78565b919050565b5f611da882611d8c565b9050919050565b611db881611d9e565b82525050565b60038110611dcf57611dce611d4b565b5b50565b5f819050611ddf82611dbe565b919050565b5f611dee82611dd2565b9050919050565b611dfe81611de4565b82525050565b61012082015f820151611e195f850182611cfd565b506020820151611e2c6020850182611d3c565b506040820151611e3f6040850182611d3c565b506060820151611e526060850182611cfd565b506080820151611e656080850182611cfd565b5060a0820151611e7860a0850182611cfd565b5060c0820151611e8b60c0850182611daf565b5060e0820151611e9e60e0850182611df5565b50610100820151611eb3610100850182611cfd565b50505050565b5f61012082019050611ecd5f830184611e04565b92915050565b611edc81611d2b565b8114611ee6575f80fd5b50565b5f81359050611ef781611ed3565b92915050565b5f805f60608486031215611f1457611f13611c9b565b5b5f611f2186828701611ee9565b9350506020611f3286828701611cbe565b9250506040611f4386828701611cbe565b9150509250925092565b611f5681611c9f565b82525050565b5f602082019050611f6f5f830184611f4d565b92915050565b5f81519050919050565b5f82825260208201905092915050565b5f819050602082019050919050565b5f611fa98383611cfd565b60208301905092915050565b5f602082019050919050565b5f611fcb82611f75565b611fd58185611f7f565b9350611fe083611f8f565b805f5b83811015612010578151611ff78882611f9e565b975061200283611fb5565b925050600181019050611fe3565b5085935050505092915050565b5f6020820190508181035f8301526120358184611fc1565b905092915050565b5f806040838503121561205357612052611c9b565b5b5f61206085828601611ee9565b925050602061207185828601611cbe565b9150509250929050565b61208481611d2b565b82525050565b5f60208201905061209d5f83018461207b565b92915050565b6120ac81611d9e565b82525050565b6120bb81611de4565b82525050565b5f610120820190506120d55f83018c611f4d565b6120e2602083018b61207b565b6120ef604083018a61207b565b6120fc6060830189611f4d565b6121096080830188611f4d565b61211660a0830187611f4d565b61212360c08301866120a3565b61213060e08301856120b2565b61213e610100830184611f4d565b9a9950505050505050505050565b5f805f806080858703121561216457612163611c9b565b5b5f61217187828801611ee9565b945050602061218287828801611cbe565b935050604061219387828801611cbe565b92505060606121a487828801611cbe565b91505092959194509250565b5f602082840312156121c5576121c4611c9b565b5b5f6121d284828501611ee9565b91505092915050565b5f82825260208201905092915050565b7f4c697374696e67206e6f742061637469766500000000000000000000000000005f82015250565b5f61221f6012836121db565b915061222a826121eb565b602082019050919050565b5f6020820190508181035f83015261224c81612213565b9050919050565b7f4e6f74207468652073656c6c65720000000000000000000000000000000000005f82015250565b5f612287600e836121db565b915061229282612253565b602082019050919050565b5f6020820190508181035f8301526122b48161227b565b9050919050565b7f5072696365206d7573742062652067726561746572207468616e2030000000005f82015250565b5f6122ef601c836121db565b91506122fa826122bb565b602082019050919050565b5f6020820190508181035f83015261231c816122e3565b9050919050565b5f8151905061233181611ed3565b92915050565b5f6020828403121561234c5761234b611c9b565b5b5f61235984828501612323565b91505092915050565b7f4e6f7420746865206f776e6572000000000000000000000000000000000000005f82015250565b5f612396600d836121db565b91506123a182612362565b602082019050919050565b5f6020820190508181035f8301526123c38161238a565b9050919050565b5f6040820190506123dd5f83018561207b565b6123ea602083018461207b565b9392505050565b5f8115159050919050565b612405816123f1565b811461240f575f80fd5b50565b5f81519050612420816123fc565b92915050565b5f6020828403121561243b5761243a611c9b565b5b5f61244884828501612412565b91505092915050565b7f4d61726b6574706c616365206e6f7420617070726f76656400000000000000005f82015250565b5f6124856018836121db565b915061249082612451565b602082019050919050565b5f6020820190508181035f8301526124b281612479565b9050919050565b7f4e487b71000000000000000000000000000000000000000000000000000000005f52601160045260245ffd5b5f6124f082611c9f565b91507fffffffffffffffffffffffffffffffffffffffffffffffffffffffffffffffff8203612522576125216124b9565b5b600182019050919050565b5f819050919050565b5f819050919050565b5f61255961255461254f8461252d565b612536565b611c9f565b9050919050565b6125698161253f565b82525050565b5f6080820190506125825f830187611f4d565b61258f6020830186612560565b61259c6040830185611f4d565b6125a960608301846120a3565b95945050505050565b7f4e487b71000000000000000000000000000000000000000000000000000000005f52604160045260245ffd5b7f4e487b71000000000000000000000000000000000000000000000000000000005f52603260045260245ffd5b7f4665652063616e6e6f74206578636565642031302500000000000000000000005f82015250565b5f6126406015836121db565b915061264b8261260c565b602082019050919050565b5f6020820190508181035f83015261266d81612634565b9050919050565b7f496e73756666696369656e74207061796d656e740000000000000000000000005f82015250565b5f6126a86014836121db565b91506126b382612674565b602082019050919050565b5f6020820190508181035f8301526126d58161269c565b9050919050565b7f43616e6e6f742062757920796f7572206f776e206974656d00000000000000005f82015250565b5f6127106018836121db565b915061271b826126dc565b602082019050919050565b5f6020820190508181035f83015261273d81612704565b9050919050565b5f61274e82611c9f565b915061275983611c9f565b925082820261276781611c9f565b9150828204841483151761277e5761277d6124b9565b5b5092915050565b7f4e487b71000000000000000000000000000000000000000000000000000000005f52601260045260245ffd5b5f6127bc82611c9f565b91506127c783611c9f565b9250826127d7576127d6612785565b5b828204905092915050565b5f6127ec82611c9f565b91506127f783611c9f565b925082820390508181111561280f5761280e6124b9565b5b92915050565b5f6060820190506128285f83018661207b565b612835602083018561207b565b6128426040830184611f4d565b949350505050565b5f82825260208201905092915050565b50565b5f6128685f8361284a565b91506128738261285a565b5f82019050919050565b5f60a0820190506128905f83018761207b565b61289d602083018661207b565b6128aa6040830185611f4d565b6128b76060830184611f4d565b81810360808301526128c88161285d565b905095945050505050565b7f416d6f756e74206d7573742062652067726561746572207468616e20300000005f82015250565b5f612907601d836121db565b9150612912826128d3565b602082019050919050565b5f6020820190508181035f830152612934816128fb565b9050919050565b5f60408201905061294e5f83018561207b565b61295b6020830184611f4d565b9392505050565b5f8151905061297081611ca8565b92915050565b5f6020828403121561298b5761298a611c9b565b5b5f61299884828501612962565b91505092915050565b7f496e73756666696369656e742062616c616e63650000000000000000000000005f82015250565b5f6129d56014836121db565b91506129e0826129a1565b602082019050919050565b5f6020820190508181035f830152612a02816129c9565b9050919050565b5f608082019050612a1c5f830187611f4d565b612a296020830186611f4d565b612a366040830185611f4d565b612a4360608301846120a3565b9594505050505056fea2646970667358221220095207b9f65c4c84c852e93a8926aa757efee89a99f348093bbfd328ccb4079c64736f6c63430008140033","linkReferences":{}},"methodIdentifiers":{"buyItem(uint256)":"e7fb74c7","cancelListing(uint256)":"305a67a8","getActiveListing(uint256)":"1030f05f","getAllActiveListings()":"701e5084","getTotalListings()":"fbf30c35","getUserListings(address)":"eb18a9d8","listERC1155(address,uint256,uint256,uint256)":"e8d9b52f","listERC721(address,uint256,uint256)":"5280af1d","listings(uint256)":"de74e57b","marketplaceFee()":"6a166964","owner()":"8da5cb5b","renounceOwnership()":"715018a6","setMarketplaceFee(uint256)":"9407ea98","transferOwnership(address)":"f2fde38b","userListings(address,uint256)":"86cfa7d3","withdrawFees()":"476343ee"},"id":1}