{"abi":[{"type":"constructor","inputs":[{"name":"name","type":"string","internalType":"string"},{"name":"symbol","type":"string","internalType":"string"},{"name":"baseURI","type":"string","internalType":"string"}],"stateMutability":"nonpayable"},{"type":"function","name":"approve","inputs":[{"name":"to","type":"address","internalType":"address"},{"name":"tokenId","type":"uint256","internalType":"uint256"}],"outputs":[],"stateMutability":"nonpayable"},{"type":"function","name":"balanceOf","inputs":[{"name":"owner","type":"address","internalType":"address"}],"outputs":[{"name":"","type":"uint256","internalType":"uint256"}],"stateMutability":"view"},{"type":"function","name":"getApproved","inputs":[{"name":"tokenId","type":"uint256","internalType":"uint256"}],"outputs":[{"name":"","type":"address","internalType":"address"}],"stateMutability":"view"},{"type":"function","name":"getOutfitsByOwner","inputs":[{"name":"owner","type":"address","internalType":"address"}],"outputs":[{"name":"","type":"string[]","internalType":"string[]"}],"stateMutability":"view"},{"type":"function","name":"getTokensByOwner","inputs":[{"name":"owner","type":"address","internalType":"address"}],"outputs":[{"name":"","type":"uint256[]","internalType":"uint256[]"}],"stateMutability":"view"},{"type":"function","name":"isApprovedForAll","inputs":[{"name":"owner","type":"address","internalType":"address"},{"name":"operator","type":"address","internalType":"address"}],"outputs":[{"name":"","type":"bool","internalType":"bool"}],"stateMutability":"view"},{"type":"function","name":"maxSupply","inputs":[],"outputs":[{"name":"","type":"uint256","internalType":"uint256"}],"stateMutability":"view"},{"type":"function","name":"mint","inputs":[{"name":"to","type":"address","internalType":"address"},{"name":"metadataURI","type":"string","internalType":"string"},{"name":"outfitName","type":"string","internalType":"string"}],"outputs":[],"stateMutability":"payable"},{"type":"function","name":"mintPrice","inputs":[],"outputs":[{"name":"","type":"uint256","internalType":"uint256"}],"stateMutability":"view"},{"type":"function","name":"name","inputs":[],"outputs":[{"name":"","type":"string","internalType":"string"}],"stateMutability":"view"},{"type":"function","name":"outfitNames","inputs":[{"name":"","type":"uint256","internalType":"uint256"}],"outputs":[{"name":"","type":"string","internalType":"string"}],"stateMutability":"view"},{"type":"function","name":"owner","inputs":[],"outputs":[{"name":"","type":"address","internalType":"address"}],"stateMutability":"view"},{"type":"function","name":"ownerOf","inputs":[{"name":"tokenId","type":"uint256","internalType":"uint256"}],"outputs":[{"name":"","type":"address","internalType":"address"}],"stateMutability":"view"},{"type":"function","name":"ownsOutfit","inputs":[{"name":"owner","type":"address","internalType":"address"},{"name":"outfitName","type":"string","internalType":"string"}],"outputs":[{"name":"","type":"bool","internalType":"bool"}],"stateMutability":"view"},{"type":"function","name":"renounceOwnership","inputs":[],"outputs":[],"stateMutability":"nonpayable"},{"type":"function","name":"safeTransferFrom","inputs":[{"name":"from","type":"address","internalType":"address"},{"name":"to","type":"address","internalType":"address"},{"name":"tokenId","type":"uint256","internalType":"uint256"}],"outputs":[],"stateMutability":"nonpayable"},{"type":"function","name":"safeTransferFrom","inputs":[{"name":"from","type":"address","internalType":"address"},{"name":"to","type":"address","internalType":"address"},{"name":"tokenId","type":"uint256","internalType":"uint256"},{"name":"data","type":"bytes","internalType":"bytes"}],"outputs":[],"stateMutability":"nonpayable"},{"type":"function","name":"setApprovalForAll","inputs":[{"name":"operator","type":"address","internalType":"address"},{"name":"approved","type":"bool","internalType":"bool"}],"outputs":[],"stateMutability":"nonpayable"},{"type":"function","name":"setBaseURI","inputs":[{"name":"newBaseURI","type":"string","internalType":"string"}],"outputs":[],"stateMutability":"nonpayable"},{"type":"function","name":"setMintPrice","inputs":[{"name":"newPrice","type":"uint256","internalType":"uint256"}],"outputs":[],"stateMutability":"nonpayable"},{"type":"function","name":"supportsInterface","inputs":[{"name":"interfaceId","type":"bytes4","internalType":"bytes4"}],"outputs":[{"name":"","type":"bool","internalType":"bool"}],"stateMutability":"view"},{"type":"function","name":"symbol","inputs":[],"outputs":[{"name":"","type":"string","internalType":"string"}],"stateMutability":"view"},{"type":"function","name":"tokenByIndex","inputs":[{"name":"index","type":"uint256","internalType":"uint256"}],"outputs":[{"name":"","type":"uint256","internalType":"uint256"}],"stateMutability":"view"},{"type":"function","name":"tokenOfOwnerByIndex","inputs":[{"name":"owner","type":"address","internalType":"address"},{"name":"index","type":"uint256","internalType":"uint256"}],"outputs":[{"name":"","type":"uint256","internalType":"uint256"}],"stateMutability":"view"},{"type":"function","name":"tokenURI","inputs":[{"name":"tokenId","type":"uint256","internalType":"uint256"}],"outputs":[{"name":"","type":"string","internalType":"string"}],"stateMutability":"view"},{"type":"function","name":"totalMinted","inputs":[],"outputs":[{"name":"","type":"uint256","internalType":"uint256"}],"stateMutability":"view"},{"type":"function","name":"totalSupply","inputs":[],"outputs":[{"name":"","type":"uint256","internalType":"uint256"}],"stateMutability":"view"},{"type":"function","name":"transferFrom","inputs":[{"name":"from","type":"address","internalType":"address"},{"name":"to","type":"address","internalType":"address"},{"name":"tokenId","type":"uint256","internalType":"uint256"}],"outputs":[],"stateMutability":"nonpayable"},{"type":"function","name":"transferOwnership","inputs":[{"name":"newOwner","type":"address","internalType":"address"}],"outputs":[],"stateMutability":"nonpayable"},{"type":"function","name":"withdraw","inputs":[],"outputs":[],"stateMutability":"nonpayable"},{"type":"event","name":"Approval","inputs":[{"name":"owner","type":"address","indexed":true,"internalType":"address"},{"name":"approved","type":"address","indexed":true,"internalType":"address"},{"name":"tokenId","type":"uint256","indexed":true,"internalType":"uint256"}],"anonymous":false},{"type":"event","name":"ApprovalForAll","inputs":[{"name":"owner","type":"address","indexed":true,"internalType":"address"},{"name":"operator","type":"address","indexed":true,"internalType":"address"},{"name":"approved","type":"bool","indexed":false,"internalType":"bool"}],"anonymous":false},{"type":"event","name":"BaseURIUpdated","inputs":[{"name":"newBaseURI","type":"string","indexed":false,"internalType":"string"}],"anonymous":false},{"type":"event","name":"BatchMetadataUpdate","inputs":[{"name":"_fromTokenId","type":"uint256","indexed":false,"internalType":"uint256"},{"name":"_toTokenId","type":"uint256","indexed":false,"internalType":"uint256"}],"anonymous":false},{"type":"event","name":"MetadataUpdate","inputs":[{"name":"_tokenId","type":"uint256","indexed":false,"internalType":"uint256"}],"anonymous":false},{"type":"event","name":"OutfitMinted","inputs":[{"name":"to","type":"address","indexed":true,"internalType":"address"},{"name":"tokenId","type":"uint256","indexed":true,"internalType":"uint256"},{"name":"outfitName","type":"string","indexed":false,"internalType":"string"},{"name":"price","type":"uint256","indexed":false,"internalType":"uint256"}],"anonymous":false},{"type":"event","name":"OwnershipTransferred","inputs":[{"name":"previousOwner","type":"address","indexed":true,"internalType":"address"},{"name":"newOwner","type":"address","indexed":true,"internalType":"address"}],"anonymous":false},{"type":"event","name":"PriceUpdated","inputs":[{"name":"newPrice","type":"uint256","indexed":false,"internalType":"uint256"}],"anonymous":false},{"type":"event","name":"Transfer","inputs":[{"name":"from","type":"address","indexed":true,"internalType":"address"},{"name":"to","type":"address","indexed":true,"internalType":"address"},{"name":"tokenId","type":"uint256","indexed":true,"internalType":"uint256"}],"anonymous":false},{"type":"error","name":"ERC721EnumerableForbiddenBatchMint","inputs":[]},{"type":"error","name":"ERC721IncorrectOwner","inputs":[{"name":"sender","type":"address","internalType":"address"},{"name":"tokenId","type":"uint256","internalType":"uint256"},{"name":"owner","type":"address","internalType":"address"}]},{"type":"error","name":"ERC721InsufficientApproval","inputs":[{"name":"operator","type":"address","internalType":"address"},{"name":"tokenId","type":"uint256","internalType":"uint256"}]},{"type":"error","name":"ERC721InvalidApprover","inputs":[{"name":"approver","type":"address","internalType":"address"}]},{"type":"error","name":"ERC721InvalidOperator","inputs":[{"name":"operator","type":"address","internalType":"address"}]},{"type":"error","name":"ERC721InvalidOwner","inputs":[{"name":"owner","type":"address","internalType":"address"}]},{"type":"error","name":"ERC721InvalidReceiver","inputs":[{"name":"receiver","type":"address","internalType":"address"}]},{"type":"error","name":"ERC721InvalidSender","inputs":[{"name":"sender","type":"address","internalType":"address"}]},{"type":"error","name":"ERC721NonexistentToken","inputs":[{"name":"tokenId","type":"uint256","internalType":"uint256"}]},{"type":"error","name":"ERC721OutOfBoundsIndex","inputs":[{"name":"owner","type":"address","internalType":"address"},{"name":"index","type":"uint256","internalType":"uint256"}]},{"type":"error","name":"OwnableInvalidOwner","inputs":[{"name":"owner","type":"address","internalType":"address"}]},{"type":"error","name":"OwnableUnauthorizedAccount","inputs":[{"name":"account","type":"address","internalType":"address"}]}],"bytecode":{"object":"0x60806040526001600c55655af3107a4000600d55612710600e5534801562000025575f80fd5b50604051620045033803806200450383398181016040528101906200004b91906200035b565b338383815f90816200005e919062000648565b50806001908162000070919062000648565b5050505f73ffffffffffffffffffffffffffffffffffffffff168173ffffffffffffffffffffffffffffffffffffffff1603620000e6575f6040517f1e4fbdf7000000000000000000000000000000000000000000000000000000008152600401620000dd91906200076f565b60405180910390fd5b620000f7816200011360201b60201c565b5080600f908162000109919062000648565b505050506200078a565b5f600b5f9054906101000a900473ffffffffffffffffffffffffffffffffffffffff16905081600b5f6101000a81548173ffffffffffffffffffffffffffffffffffffffff021916908373ffffffffffffffffffffffffffffffffffffffff1602179055508173ffffffffffffffffffffffffffffffffffffffff168173ffffffffffffffffffffffffffffffffffffffff167f8be0079c531659141344cd1fd0a4f28419497f9722a3daafe3b4186f6b6457e060405160405180910390a35050565b5f604051905090565b5f80fd5b5f80fd5b5f80fd5b5f80fd5b5f601f19601f8301169050919050565b7f4e487b71000000000000000000000000000000000000000000000000000000005f52604160045260245ffd5b6200023782620001ef565b810181811067ffffffffffffffff82111715620002595762000258620001ff565b5b80604052505050565b5f6200026d620001d6565b90506200027b82826200022c565b919050565b5f67ffffffffffffffff8211156200029d576200029c620001ff565b5b620002a882620001ef565b9050602081019050919050565b5f5b83811015620002d4578082015181840152602081019050620002b7565b5f8484015250505050565b5f620002f5620002ef8462000280565b62000262565b905082815260208101848484011115620003145762000313620001eb565b5b62000321848285620002b5565b509392505050565b5f82601f83011262000340576200033f620001e7565b5b815162000352848260208601620002df565b91505092915050565b5f805f60608486031215620003755762000374620001df565b5b5f84015167ffffffffffffffff811115620003955762000394620001e3565b5b620003a38682870162000329565b935050602084015167ffffffffffffffff811115620003c757620003c6620001e3565b5b620003d58682870162000329565b925050604084015167ffffffffffffffff811115620003f957620003f8620001e3565b5b620004078682870162000329565b9150509250925092565b5f81519050919050565b7f4e487b71000000000000000000000000000000000000000000000000000000005f52602260045260245ffd5b5f60028204905060018216806200046057607f821691505b6020821081036200047657620004756200041b565b5b50919050565b5f819050815f5260205f209050919050565b5f6020601f8301049050919050565b5f82821b905092915050565b5f60088302620004da7fffffffffffffffffffffffffffffffffffffffffffffffffffffffffffffffff826200049d565b620004e686836200049d565b95508019841693508086168417925050509392505050565b5f819050919050565b5f819050919050565b5f620005306200052a6200052484620004fe565b62000507565b620004fe565b9050919050565b5f819050919050565b6200054b8362000510565b620005636200055a8262000537565b848454620004a9565b825550505050565b5f90565b620005796200056b565b6200058681848462000540565b505050565b5b81811015620005ad57620005a15f826200056f565b6001810190506200058c565b5050565b601f821115620005fc57620005c6816200047c565b620005d1846200048e565b81016020851015620005e1578190505b620005f9620005f0856200048e565b8301826200058b565b50505b505050565b5f82821c905092915050565b5f6200061e5f198460080262000601565b1980831691505092915050565b5f6200063883836200060d565b9150826002028217905092915050565b620006538262000411565b67ffffffffffffffff8111156200066f576200066e620001ff565b5b6200067b825462000448565b62000688828285620005b1565b5f60209050601f831160018114620006be575f8415620006a9578287015190505b620006b585826200062b565b86555062000724565b601f198416620006ce866200047c565b5f5b82811015620006f757848901518255600182019150602085019450602081019050620006d0565b8683101562000717578489015162000713601f8916826200060d565b8355505b6001600288020188555050505b505050505050565b5f73ffffffffffffffffffffffffffffffffffffffff82169050919050565b5f62000757826200072c565b9050919050565b62000769816200074b565b82525050565b5f602082019050620007845f8301846200075e565b92915050565b613d6b80620007985f395ff3fe6080604052600436106101cc575f3560e01c80636817c76c116100f6578063a22cb46511610094578063d5abeb0111610063578063d5abeb0114610698578063e985e9c5146106c2578063f2fde38b146106fe578063f4a0a52814610726576101cc565b8063a22cb465146105e2578063a2309ff81461060a578063b88d4fde14610634578063c87b56dd1461065c576101cc565b80638da5cb5b116100d05780638da5cb5b146105365780638f36c5021461056057806395d89b411461059c57806399071190146105c6576101cc565b80636817c76c146104ba57806370a08231146104e4578063715018a614610520576101cc565b8063315134711161016e5780634f6ccce71161013d5780634f6ccce7146103de57806355f804b31461041a57806358d9b25b146104425780636352211e1461047e576101cc565b806331513471146103285780633ccfd60b1461036457806340398d671461037a57806342842e0e146103b6576101cc565b8063095ea7b3116101aa578063095ea7b31461027257806318160ddd1461029a57806323b872dd146102c45780632f745c59146102ec576101cc565b806301ffc9a7146101d057806306fdde031461020c578063081812fc14610236575b5f80fd5b3480156101db575f80fd5b506101f660048036038101906101f19190612adf565b61074e565b6040516102039190612b24565b60405180910390f35b348015610217575f80fd5b5061022061075f565b60405161022d9190612bc7565b60405180910390f35b348015610241575f80fd5b5061025c60048036038101906102579190612c1a565b6107ee565b6040516102699190612c84565b60405180910390f35b34801561027d575f80fd5b5061029860048036038101906102939190612cc7565b610809565b005b3480156102a5575f80fd5b506102ae61081f565b6040516102bb9190612d14565b60405180910390f35b3480156102cf575f80fd5b506102ea60048036038101906102e59190612d2d565b61082b565b005b3480156102f7575f80fd5b50610312600480360381019061030d9190612cc7565b61092a565b60405161031f9190612d14565b60405180910390f35b348015610333575f80fd5b5061034e60048036038101906103499190612d7d565b6109ce565b60405161035b9190612eab565b60405180910390f35b34801561036f575f80fd5b50610378610b27565b005b348015610385575f80fd5b506103a0600480360381019061039b9190612d7d565b610c28565b6040516103ad9190612f82565b60405180910390f35b3480156103c1575f80fd5b506103dc60048036038101906103d79190612d2d565b610cd3565b005b3480156103e9575f80fd5b5061040460048036038101906103ff9190612c1a565b610cf2565b6040516104119190612d14565b60405180910390f35b348015610425575f80fd5b50610440600480360381019061043b91906130ce565b610d64565b005b34801561044d575f80fd5b5061046860048036038101906104639190613115565b610db6565b6040516104759190612b24565b60405180910390f35b348015610489575f80fd5b506104a4600480360381019061049f9190612c1a565b610e45565b6040516104b19190612c84565b60405180910390f35b3480156104c5575f80fd5b506104ce610e56565b6040516104db9190612d14565b60405180910390f35b3480156104ef575f80fd5b5061050a60048036038101906105059190612d7d565b610e5c565b6040516105179190612d14565b60405180910390f35b34801561052b575f80fd5b50610534610f12565b005b348015610541575f80fd5b5061054a610f25565b6040516105579190612c84565b60405180910390f35b34801561056b575f80fd5b5061058660048036038101906105819190612c1a565b610f4d565b6040516105939190612bc7565b60405180910390f35b3480156105a7575f80fd5b506105b0610fe8565b6040516105bd9190612bc7565b60405180910390f35b6105e060048036038101906105db919061316f565b611078565b005b3480156105ed575f80fd5b5061060860048036038101906106039190613221565b61129f565b005b348015610615575f80fd5b5061061e6112b5565b60405161062b9190612d14565b60405180910390f35b34801561063f575f80fd5b5061065a600480360381019061065591906132fd565b6112ca565b005b348015610667575f80fd5b50610682600480360381019061067d9190612c1a565b6112ef565b60405161068f9190612bc7565b60405180910390f35b3480156106a3575f80fd5b506106ac611301565b6040516106b99190612d14565b60405180910390f35b3480156106cd575f80fd5b506106e860048036038101906106e3919061337d565b611307565b6040516106f59190612b24565b60405180910390f35b348015610709575f80fd5b50610724600480360381019061071f9190612d7d565b611395565b005b348015610731575f80fd5b5061074c60048036038101906107479190612c1a565b611419565b005b5f61075882611462565b9050919050565b60605f805461076d906133e8565b80601f0160208091040260200160405190810160405280929190818152602001828054610799906133e8565b80156107e45780601f106107bb576101008083540402835291602001916107e4565b820191905f5260205f20905b8154815290600101906020018083116107c757829003601f168201915b5050505050905090565b5f6107f8826114db565b5061080282611561565b9050919050565b61081b828261081661159a565b6115a1565b5050565b5f600980549050905090565b5f73ffffffffffffffffffffffffffffffffffffffff168273ffffffffffffffffffffffffffffffffffffffff160361089b575f6040517f64a0ae920000000000000000000000000000000000000000000000000000000081526004016108929190612c84565b60405180910390fd5b5f6108ae83836108a961159a565b6115b3565b90508373ffffffffffffffffffffffffffffffffffffffff168173ffffffffffffffffffffffffffffffffffffffff1614610924578382826040517f64283d7b00000000000000000000000000000000000000000000000000000000815260040161091b93929190613418565b60405180910390fd5b50505050565b5f61093483610e5c565b82106109795782826040517fa57d13dc00000000000000000000000000000000000000000000000000000000815260040161097092919061344d565b60405180910390fd5b60075f8473ffffffffffffffffffffffffffffffffffffffff1673ffffffffffffffffffffffffffffffffffffffff1681526020019081526020015f205f8381526020019081526020015f2054905092915050565b60605f6109da83610c28565b90505f815167ffffffffffffffff8111156109f8576109f7612faa565b5b604051908082528060200260200182016040528015610a2b57816020015b6060815260200190600190039081610a165790505b5090505f5b8251811015610b1c5760105f848381518110610a4f57610a4e613474565b5b602002602001015181526020019081526020015f208054610a6f906133e8565b80601f0160208091040260200160405190810160405280929190818152602001828054610a9b906133e8565b8015610ae65780601f10610abd57610100808354040283529160200191610ae6565b820191905f5260205f20905b815481529060010190602001808311610ac957829003601f168201915b5050505050828281518110610afe57610afd613474565b5b60200260200101819052508080610b14906134ce565b915050610a30565b508092505050919050565b610b2f6115c8565b5f4790505f8111610b75576040517f08c379a0000000000000000000000000000000000000000000000000000000008152600401610b6c9061355f565b60405180910390fd5b5f610b7e610f25565b73ffffffffffffffffffffffffffffffffffffffff1682604051610ba1906135aa565b5f6040518083038185875af1925050503d805f8114610bdb576040519150601f19603f3d011682016040523d82523d5f602084013e610be0565b606091505b5050905080610c24576040517f08c379a0000000000000000000000000000000000000000000000000000000008152600401610c1b90613608565b60405180910390fd5b5050565b60605f610c3483610e5c565b90505f8167ffffffffffffffff811115610c5157610c50612faa565b5b604051908082528060200260200182016040528015610c7f5781602001602082028036833780820191505090505b5090505f5b82811015610cc857610c96858261092a565b828281518110610ca957610ca8613474565b5b6020026020010181815250508080610cc0906134ce565b915050610c84565b508092505050919050565b610ced83838360405180602001604052805f8152506112ca565b505050565b5f610cfb61081f565b8210610d40575f826040517fa57d13dc000000000000000000000000000000000000000000000000000000008152600401610d3792919061344d565b60405180910390fd5b60098281548110610d5457610d53613474565b5b905f5260205f2001549050919050565b610d6c6115c8565b80600f9081610d7b91906137c3565b507f6741b2fc379fad678116fe3d4d4b9a1a184ab53ba36b86ad0fa66340b1ab41ad81604051610dab9190612bc7565b60405180910390a150565b5f80610dc184610c28565b90505f5b8151811015610e3957838051906020012060105f848481518110610dec57610deb613474565b5b602002602001015181526020019081526020015f20604051610e0e9190613924565b604051809103902003610e2657600192505050610e3f565b8080610e31906134ce565b915050610dc5565b505f9150505b92915050565b5f610e4f826114db565b9050919050565b600d5481565b5f8073ffffffffffffffffffffffffffffffffffffffff168273ffffffffffffffffffffffffffffffffffffffff1603610ecd575f6040517f89c62b64000000000000000000000000000000000000000000000000000000008152600401610ec49190612c84565b60405180910390fd5b60035f8373ffffffffffffffffffffffffffffffffffffffff1673ffffffffffffffffffffffffffffffffffffffff1681526020019081526020015f20549050919050565b610f1a6115c8565b610f235f61164f565b565b5f600b5f9054906101000a900473ffffffffffffffffffffffffffffffffffffffff16905090565b6010602052805f5260405f205f915090508054610f69906133e8565b80601f0160208091040260200160405190810160405280929190818152602001828054610f95906133e8565b8015610fe05780601f10610fb757610100808354040283529160200191610fe0565b820191905f5260205f20905b815481529060010190602001808311610fc357829003601f168201915b505050505081565b606060018054610ff7906133e8565b80601f0160208091040260200160405190810160405280929190818152602001828054611023906133e8565b801561106e5780601f106110455761010080835404028352916020019161106e565b820191905f5260205f20905b81548152906001019060200180831161105157829003601f168201915b5050505050905090565b600d543410156110bd576040517f08c379a00000000000000000000000000000000000000000000000000000000081526004016110b490613984565b60405180910390fd5b600e54600c541115611104576040517f08c379a00000000000000000000000000000000000000000000000000000000081526004016110fb906139ec565b60405180910390fd5b5f73ffffffffffffffffffffffffffffffffffffffff168373ffffffffffffffffffffffffffffffffffffffff1603611172576040517f08c379a000000000000000000000000000000000000000000000000000000000815260040161116990613a54565b60405180910390fd5b5f8251116111b5576040517f08c379a00000000000000000000000000000000000000000000000000000000081526004016111ac90613abc565b60405180910390fd5b5f8151116111f8576040517f08c379a00000000000000000000000000000000000000000000000000000000081526004016111ef90613b24565b60405180910390fd5b5f600c549050600c5f815480929190611210906134ce565b919050555061121f8482611712565b611229818461172f565b8160105f8381526020019081526020015f20908161124791906137c3565b50808473ffffffffffffffffffffffffffffffffffffffff167f8f22713a11a5576b9d502a0c826f8a61fb41430fd27649f15874a2d48ccd7f228434604051611291929190613b42565b60405180910390a350505050565b6112b16112aa61159a565b8383611789565b5050565b5f6001600c546112c59190613b70565b905090565b6112d584848461082b565b6112e96112e061159a565b858585856118f2565b50505050565b60606112fa82611a9e565b9050919050565b600e5481565b5f60055f8473ffffffffffffffffffffffffffffffffffffffff1673ffffffffffffffffffffffffffffffffffffffff1681526020019081526020015f205f8373ffffffffffffffffffffffffffffffffffffffff1673ffffffffffffffffffffffffffffffffffffffff1681526020019081526020015f205f9054906101000a900460ff16905092915050565b61139d6115c8565b5f73ffffffffffffffffffffffffffffffffffffffff168173ffffffffffffffffffffffffffffffffffffffff160361140d575f6040517f1e4fbdf70000000000000000000000000000000000000000000000000000000081526004016114049190612c84565b60405180910390fd5b6114168161164f565b50565b6114216115c8565b80600d819055507f66cbca4f3c64fecf1dcb9ce094abcf7f68c3450a1d4e3a8e917dd621edb4ebe0816040516114579190612d14565b60405180910390a150565b5f7f780e9d63000000000000000000000000000000000000000000000000000000007bffffffffffffffffffffffffffffffffffffffffffffffffffffffff1916827bffffffffffffffffffffffffffffffffffffffffffffffffffffffff191614806114d457506114d382611ba9565b5b9050919050565b5f806114e683611c09565b90505f73ffffffffffffffffffffffffffffffffffffffff168173ffffffffffffffffffffffffffffffffffffffff160361155857826040517f7e27328900000000000000000000000000000000000000000000000000000000815260040161154f9190612d14565b60405180910390fd5b80915050919050565b5f60045f8381526020019081526020015f205f9054906101000a900473ffffffffffffffffffffffffffffffffffffffff169050919050565b5f33905090565b6115ae8383836001611c42565b505050565b5f6115bf848484611e01565b90509392505050565b6115d061159a565b73ffffffffffffffffffffffffffffffffffffffff166115ee610f25565b73ffffffffffffffffffffffffffffffffffffffff161461164d5761161161159a565b6040517f118cdaa70000000000000000000000000000000000000000000000000000000081526004016116449190612c84565b60405180910390fd5b565b5f600b5f9054906101000a900473ffffffffffffffffffffffffffffffffffffffff16905081600b5f6101000a81548173ffffffffffffffffffffffffffffffffffffffff021916908373ffffffffffffffffffffffffffffffffffffffff1602179055508173ffffffffffffffffffffffffffffffffffffffff168173ffffffffffffffffffffffffffffffffffffffff167f8be0079c531659141344cd1fd0a4f28419497f9722a3daafe3b4186f6b6457e060405160405180910390a35050565b61172b828260405180602001604052805f815250611f1b565b5050565b8060065f8481526020019081526020015f20908161174d91906137c3565b507ff8e1a15aba9398e019f0b49df1a4fde98ee17ae345cb5f6b5e2c27f5033e8ce78260405161177d9190612d14565b60405180910390a15050565b5f73ffffffffffffffffffffffffffffffffffffffff168273ffffffffffffffffffffffffffffffffffffffff16036117f957816040517f5b08ba180000000000000000000000000000000000000000000000000000000081526004016117f09190612c84565b60405180910390fd5b8060055f8573ffffffffffffffffffffffffffffffffffffffff1673ffffffffffffffffffffffffffffffffffffffff1681526020019081526020015f205f8473ffffffffffffffffffffffffffffffffffffffff1673ffffffffffffffffffffffffffffffffffffffff1681526020019081526020015f205f6101000a81548160ff0219169083151502179055508173ffffffffffffffffffffffffffffffffffffffff168373ffffffffffffffffffffffffffffffffffffffff167f17307eab39ab6107e8899845ad3d59bd9653f200f220920489ca2b5937696c31836040516118e59190612b24565b60405180910390a3505050565b5f8373ffffffffffffffffffffffffffffffffffffffff163b1115611a97578273ffffffffffffffffffffffffffffffffffffffff1663150b7a02868685856040518563ffffffff1660e01b81526004016119509493929190613bf5565b6020604051808303815f875af192505050801561198b57506040513d601f19601f820116820180604052508101906119889190613c53565b60015b611a0c573d805f81146119b9576040519150601f19603f3d011682016040523d82523d5f602084013e6119be565b606091505b505f815103611a0457836040517f64a0ae920000000000000000000000000000000000000000000000000000000081526004016119fb9190612c84565b60405180910390fd5b805181602001fd5b63150b7a0260e01b7bffffffffffffffffffffffffffffffffffffffffffffffffffffffff1916817bffffffffffffffffffffffffffffffffffffffffffffffffffffffff191614611a9557836040517f64a0ae92000000000000000000000000000000000000000000000000000000008152600401611a8c9190612c84565b60405180910390fd5b505b5050505050565b6060611aa9826114db565b505f60065f8481526020019081526020015f208054611ac7906133e8565b80601f0160208091040260200160405190810160405280929190818152602001828054611af3906133e8565b8015611b3e5780601f10611b1557610100808354040283529160200191611b3e565b820191905f5260205f20905b815481529060010190602001808311611b2157829003601f168201915b505050505090505f611b4e611f3e565b90505f815103611b62578192505050611ba4565b5f82511115611b96578082604051602001611b7e929190613cb8565b60405160208183030381529060405292505050611ba4565b611b9f84611fce565b925050505b919050565b5f634906490660e01b7bffffffffffffffffffffffffffffffffffffffffffffffffffffffff1916827bffffffffffffffffffffffffffffffffffffffffffffffffffffffff19161480611c025750611c0182612034565b5b9050919050565b5f60025f8381526020019081526020015f205f9054906101000a900473ffffffffffffffffffffffffffffffffffffffff169050919050565b8080611c7a57505f73ffffffffffffffffffffffffffffffffffffffff168273ffffffffffffffffffffffffffffffffffffffff1614155b15611dac575f611c89846114db565b90505f73ffffffffffffffffffffffffffffffffffffffff168373ffffffffffffffffffffffffffffffffffffffff1614158015611cf357508273ffffffffffffffffffffffffffffffffffffffff168173ffffffffffffffffffffffffffffffffffffffff1614155b8015611d065750611d048184611307565b155b15611d4857826040517fa9fbf51f000000000000000000000000000000000000000000000000000000008152600401611d3f9190612c84565b60405180910390fd5b8115611daa57838573ffffffffffffffffffffffffffffffffffffffff168273ffffffffffffffffffffffffffffffffffffffff167f8c5be1e5ebec7d5bd14f71427d1e84f3dd0314c0f7b2291e5b200ac8c7c3b92560405160405180910390a45b505b8360045f8581526020019081526020015f205f6101000a81548173ffffffffffffffffffffffffffffffffffffffff021916908373ffffffffffffffffffffffffffffffffffffffff16021790555050505050565b5f80611e0e858585612115565b90505f73ffffffffffffffffffffffffffffffffffffffff168173ffffffffffffffffffffffffffffffffffffffff1603611e5157611e4c84612320565b611e90565b8473ffffffffffffffffffffffffffffffffffffffff168173ffffffffffffffffffffffffffffffffffffffff1614611e8f57611e8e8185612364565b5b5b5f73ffffffffffffffffffffffffffffffffffffffff168573ffffffffffffffffffffffffffffffffffffffff1603611ed157611ecc8461243b565b611f10565b8473ffffffffffffffffffffffffffffffffffffffff168173ffffffffffffffffffffffffffffffffffffffff1614611f0f57611f0e85856124fb565b5b5b809150509392505050565b611f25838361257f565b611f39611f3061159a565b5f8585856118f2565b505050565b6060600f8054611f4d906133e8565b80601f0160208091040260200160405190810160405280929190818152602001828054611f79906133e8565b8015611fc45780601f10611f9b57610100808354040283529160200191611fc4565b820191905f5260205f20905b815481529060010190602001808311611fa757829003601f168201915b5050505050905090565b6060611fd9826114db565b505f611fe3611f3e565b90505f8151116120015760405180602001604052805f81525061202c565b8061200b84612672565b60405160200161201c929190613cb8565b6040516020818303038152906040525b915050919050565b5f7f80ac58cd000000000000000000000000000000000000000000000000000000007bffffffffffffffffffffffffffffffffffffffffffffffffffffffff1916827bffffffffffffffffffffffffffffffffffffffffffffffffffffffff191614806120fe57507f5b5e139f000000000000000000000000000000000000000000000000000000007bffffffffffffffffffffffffffffffffffffffffffffffffffffffff1916827bffffffffffffffffffffffffffffffffffffffffffffffffffffffff1916145b8061210e575061210d8261273c565b5b9050919050565b5f8061212084611c09565b90505f73ffffffffffffffffffffffffffffffffffffffff168373ffffffffffffffffffffffffffffffffffffffff1614612161576121608184866127a5565b5b5f73ffffffffffffffffffffffffffffffffffffffff168173ffffffffffffffffffffffffffffffffffffffff16146121ec576121a05f855f80611c42565b600160035f8373ffffffffffffffffffffffffffffffffffffffff1673ffffffffffffffffffffffffffffffffffffffff1681526020019081526020015f205f82825403925050819055505b5f73ffffffffffffffffffffffffffffffffffffffff168573ffffffffffffffffffffffffffffffffffffffff161461226b57600160035f8773ffffffffffffffffffffffffffffffffffffffff1673ffffffffffffffffffffffffffffffffffffffff1681526020019081526020015f205f82825401925050819055505b8460025f8681526020019081526020015f205f6101000a81548173ffffffffffffffffffffffffffffffffffffffff021916908373ffffffffffffffffffffffffffffffffffffffff160217905550838573ffffffffffffffffffffffffffffffffffffffff168273ffffffffffffffffffffffffffffffffffffffff167fddf252ad1be2c89b69c2b068fc378daa952ba7f163c4a11628f55a4df523b3ef60405160405180910390a4809150509392505050565b600980549050600a5f8381526020019081526020015f2081905550600981908060018154018082558091505060019003905f5260205f20015f909190919091505550565b5f61236e83610e5c565b90505f60085f8481526020019081526020015f205490505f60075f8673ffffffffffffffffffffffffffffffffffffffff1673ffffffffffffffffffffffffffffffffffffffff1681526020019081526020015f20905082821461240d575f815f8581526020019081526020015f2054905080825f8581526020019081526020015f20819055508260085f8381526020019081526020015f2081905550505b60085f8581526020019081526020015f205f9055805f8481526020019081526020015f205f90555050505050565b5f600160098054905061244e9190613b70565b90505f600a5f8481526020019081526020015f205490505f6009838154811061247a57612479613474565b5b905f5260205f2001549050806009838154811061249a57612499613474565b5b905f5260205f20018190555081600a5f8381526020019081526020015f2081905550600a5f8581526020019081526020015f205f905560098054806124e2576124e1613cdb565b5b600190038181905f5260205f20015f9055905550505050565b5f600161250784610e5c565b6125119190613b70565b90508160075f8573ffffffffffffffffffffffffffffffffffffffff1673ffffffffffffffffffffffffffffffffffffffff1681526020019081526020015f205f8381526020019081526020015f20819055508060085f8481526020019081526020015f2081905550505050565b5f73ffffffffffffffffffffffffffffffffffffffff168273ffffffffffffffffffffffffffffffffffffffff16036125ef575f6040517f64a0ae920000000000000000000000000000000000000000000000000000000081526004016125e69190612c84565b60405180910390fd5b5f6125fb83835f6115b3565b90505f73ffffffffffffffffffffffffffffffffffffffff168173ffffffffffffffffffffffffffffffffffffffff161461266d575f6040517f73c6ac6e0000000000000000000000000000000000000000000000000000000081526004016126649190612c84565b60405180910390fd5b505050565b60605f600161268084612868565b0190505f8167ffffffffffffffff81111561269e5761269d612faa565b5b6040519080825280601f01601f1916602001820160405280156126d05781602001600182028036833780820191505090505b5090505f82602001820190505b600115612731578080600190039150507f3031323334353637383961626364656600000000000000000000000000000000600a86061a8153600a858161272657612725613d08565b5b0494505f85036126dd575b819350505050919050565b5f7f01ffc9a7000000000000000000000000000000000000000000000000000000007bffffffffffffffffffffffffffffffffffffffffffffffffffffffff1916827bffffffffffffffffffffffffffffffffffffffffffffffffffffffff1916149050919050565b6127b08383836129b9565b612863575f73ffffffffffffffffffffffffffffffffffffffff168373ffffffffffffffffffffffffffffffffffffffff160361282457806040517f7e27328900000000000000000000000000000000000000000000000000000000815260040161281b9190612d14565b60405180910390fd5b81816040517f177e802f00000000000000000000000000000000000000000000000000000000815260040161285a92919061344d565b60405180910390fd5b505050565b5f805f90507a184f03e93ff9f4daa797ed6e38ed64bf6a1f01000000000000000083106128c4577a184f03e93ff9f4daa797ed6e38ed64bf6a1f01000000000000000083816128ba576128b9613d08565b5b0492506040810190505b6d04ee2d6d415b85acef81000000008310612901576d04ee2d6d415b85acef810000000083816128f7576128f6613d08565b5b0492506020810190505b662386f26fc10000831061293057662386f26fc10000838161292657612925613d08565b5b0492506010810190505b6305f5e1008310612959576305f5e100838161294f5761294e613d08565b5b0492506008810190505b612710831061297e57612710838161297457612973613d08565b5b0492506004810190505b606483106129a1576064838161299757612996613d08565b5b0492506002810190505b600a83106129b0576001810190505b80915050919050565b5f8073ffffffffffffffffffffffffffffffffffffffff168373ffffffffffffffffffffffffffffffffffffffff1614158015612a7057508273ffffffffffffffffffffffffffffffffffffffff168473ffffffffffffffffffffffffffffffffffffffff161480612a315750612a308484611307565b5b80612a6f57508273ffffffffffffffffffffffffffffffffffffffff16612a5783611561565b73ffffffffffffffffffffffffffffffffffffffff16145b5b90509392505050565b5f604051905090565b5f80fd5b5f80fd5b5f7fffffffff0000000000000000000000000000000000000000000000000000000082169050919050565b612abe81612a8a565b8114612ac8575f80fd5b50565b5f81359050612ad981612ab5565b92915050565b5f60208284031215612af457612af3612a82565b5b5f612b0184828501612acb565b91505092915050565b5f8115159050919050565b612b1e81612b0a565b82525050565b5f602082019050612b375f830184612b15565b92915050565b5f81519050919050565b5f82825260208201905092915050565b5f5b83811015612b74578082015181840152602081019050612b59565b5f8484015250505050565b5f601f19601f8301169050919050565b5f612b9982612b3d565b612ba38185612b47565b9350612bb3818560208601612b57565b612bbc81612b7f565b840191505092915050565b5f6020820190508181035f830152612bdf8184612b8f565b905092915050565b5f819050919050565b612bf981612be7565b8114612c03575f80fd5b50565b5f81359050612c1481612bf0565b92915050565b5f60208284031215612c2f57612c2e612a82565b5b5f612c3c84828501612c06565b91505092915050565b5f73ffffffffffffffffffffffffffffffffffffffff82169050919050565b5f612c6e82612c45565b9050919050565b612c7e81612c64565b82525050565b5f602082019050612c975f830184612c75565b92915050565b612ca681612c64565b8114612cb0575f80fd5b50565b5f81359050612cc181612c9d565b92915050565b5f8060408385031215612cdd57612cdc612a82565b5b5f612cea85828601612cb3565b9250506020612cfb85828601612c06565b9150509250929050565b612d0e81612be7565b82525050565b5f602082019050612d275f830184612d05565b92915050565b5f805f60608486031215612d4457612d43612a82565b5b5f612d5186828701612cb3565b9350506020612d6286828701612cb3565b9250506040612d7386828701612c06565b9150509250925092565b5f60208284031215612d9257612d91612a82565b5b5f612d9f84828501612cb3565b91505092915050565b5f81519050919050565b5f82825260208201905092915050565b5f819050602082019050919050565b5f82825260208201905092915050565b5f612deb82612b3d565b612df58185612dd1565b9350612e05818560208601612b57565b612e0e81612b7f565b840191505092915050565b5f612e248383612de1565b905092915050565b5f602082019050919050565b5f612e4282612da8565b612e4c8185612db2565b935083602082028501612e5e85612dc2565b805f5b85811015612e995784840389528151612e7a8582612e19565b9450612e8583612e2c565b925060208a01995050600181019050612e61565b50829750879550505050505092915050565b5f6020820190508181035f830152612ec38184612e38565b905092915050565b5f81519050919050565b5f82825260208201905092915050565b5f819050602082019050919050565b612efd81612be7565b82525050565b5f612f0e8383612ef4565b60208301905092915050565b5f602082019050919050565b5f612f3082612ecb565b612f3a8185612ed5565b9350612f4583612ee5565b805f5b83811015612f75578151612f5c8882612f03565b9750612f6783612f1a565b925050600181019050612f48565b5085935050505092915050565b5f6020820190508181035f830152612f9a8184612f26565b905092915050565b5f80fd5b5f80fd5b7f4e487b71000000000000000000000000000000000000000000000000000000005f52604160045260245ffd5b612fe082612b7f565b810181811067ffffffffffffffff82111715612fff57612ffe612faa565b5b80604052505050565b5f613011612a79565b905061301d8282612fd7565b919050565b5f67ffffffffffffffff82111561303c5761303b612faa565b5b61304582612b7f565b9050602081019050919050565b828183375f83830152505050565b5f61307261306d84613022565b613008565b90508281526020810184848401111561308e5761308d612fa6565b5b613099848285613052565b509392505050565b5f82601f8301126130b5576130b4612fa2565b5b81356130c5848260208601613060565b91505092915050565b5f602082840312156130e3576130e2612a82565b5b5f82013567ffffffffffffffff811115613100576130ff612a86565b5b61310c848285016130a1565b91505092915050565b5f806040838503121561312b5761312a612a82565b5b5f61313885828601612cb3565b925050602083013567ffffffffffffffff81111561315957613158612a86565b5b613165858286016130a1565b9150509250929050565b5f805f6060848603121561318657613185612a82565b5b5f61319386828701612cb3565b935050602084013567ffffffffffffffff8111156131b4576131b3612a86565b5b6131c0868287016130a1565b925050604084013567ffffffffffffffff8111156131e1576131e0612a86565b5b6131ed868287016130a1565b9150509250925092565b61320081612b0a565b811461320a575f80fd5b50565b5f8135905061321b816131f7565b92915050565b5f806040838503121561323757613236612a82565b5b5f61324485828601612cb3565b92505060206132558582860161320d565b9150509250929050565b5f67ffffffffffffffff82111561327957613278612faa565b5b61328282612b7f565b9050602081019050919050565b5f6132a161329c8461325f565b613008565b9050828152602081018484840111156132bd576132bc612fa6565b5b6132c8848285613052565b509392505050565b5f82601f8301126132e4576132e3612fa2565b5b81356132f484826020860161328f565b91505092915050565b5f805f806080858703121561331557613314612a82565b5b5f61332287828801612cb3565b945050602061333387828801612cb3565b935050604061334487828801612c06565b925050606085013567ffffffffffffffff81111561336557613364612a86565b5b613371878288016132d0565b91505092959194509250565b5f806040838503121561339357613392612a82565b5b5f6133a085828601612cb3565b92505060206133b185828601612cb3565b9150509250929050565b7f4e487b71000000000000000000000000000000000000000000000000000000005f52602260045260245ffd5b5f60028204905060018216806133ff57607f821691505b602082108103613412576134116133bb565b5b50919050565b5f60608201905061342b5f830186612c75565b6134386020830185612d05565b6134456040830184612c75565b949350505050565b5f6040820190506134605f830185612c75565b61346d6020830184612d05565b9392505050565b7f4e487b71000000000000000000000000000000000000000000000000000000005f52603260045260245ffd5b7f4e487b71000000000000000000000000000000000000000000000000000000005f52601160045260245ffd5b5f6134d882612be7565b91507fffffffffffffffffffffffffffffffffffffffffffffffffffffffffffffffff820361350a576135096134a1565b5b600182019050919050565b7f4e6f2066756e647320746f2077697468647261770000000000000000000000005f82015250565b5f613549601483612b47565b915061355482613515565b602082019050919050565b5f6020820190508181035f8301526135768161353d565b9050919050565b5f81905092915050565b50565b5f6135955f8361357d565b91506135a082613587565b5f82019050919050565b5f6135b48261358a565b9150819050919050565b7f5769746864726177616c206661696c65640000000000000000000000000000005f82015250565b5f6135f2601183612b47565b91506135fd826135be565b602082019050919050565b5f6020820190508181035f83015261361f816135e6565b9050919050565b5f819050815f5260205f209050919050565b5f6020601f8301049050919050565b5f82821b905092915050565b5f600883026136827fffffffffffffffffffffffffffffffffffffffffffffffffffffffffffffffff82613647565b61368c8683613647565b95508019841693508086168417925050509392505050565b5f819050919050565b5f6136c76136c26136bd84612be7565b6136a4565b612be7565b9050919050565b5f819050919050565b6136e0836136ad565b6136f46136ec826136ce565b848454613653565b825550505050565b5f90565b6137086136fc565b6137138184846136d7565b505050565b5b818110156137365761372b5f82613700565b600181019050613719565b5050565b601f82111561377b5761374c81613626565b61375584613638565b81016020851015613764578190505b61377861377085613638565b830182613718565b50505b505050565b5f82821c905092915050565b5f61379b5f1984600802613780565b1980831691505092915050565b5f6137b3838361378c565b9150826002028217905092915050565b6137cc82612b3d565b67ffffffffffffffff8111156137e5576137e4612faa565b5b6137ef82546133e8565b6137fa82828561373a565b5f60209050601f83116001811461382b575f8415613819578287015190505b61382385826137a8565b86555061388a565b601f19841661383986613626565b5f5b828110156138605784890151825560018201915060208501945060208101905061383b565b8683101561387d5784890151613879601f89168261378c565b8355505b6001600288020188555050505b505050505050565b5f819050815f5260205f209050919050565b5f81546138b0816133e8565b6138ba818661357d565b9450600182165f81146138d457600181146138e95761391b565b60ff198316865281151582028601935061391b565b6138f285613892565b5f5b83811015613913578154818901526001820191506020810190506138f4565b838801955050505b50505092915050565b5f61392f82846138a4565b915081905092915050565b7f496e73756666696369656e74207061796d656e740000000000000000000000005f82015250565b5f61396e601483612b47565b91506139798261393a565b602082019050919050565b5f6020820190508181035f83015261399b81613962565b9050919050565b7f4d617820737570706c79207265616368656400000000000000000000000000005f82015250565b5f6139d6601283612b47565b91506139e1826139a2565b602082019050919050565b5f6020820190508181035f830152613a03816139ca565b9050919050565b7f43616e6e6f74206d696e7420746f207a65726f206164647265737300000000005f82015250565b5f613a3e601b83612b47565b9150613a4982613a0a565b602082019050919050565b5f6020820190508181035f830152613a6b81613a32565b9050919050565b7f546f6b656e205552492063616e6e6f7420626520656d707479000000000000005f82015250565b5f613aa6601983612b47565b9150613ab182613a72565b602082019050919050565b5f6020820190508181035f830152613ad381613a9a565b9050919050565b7f4f7574666974206e616d652063616e6e6f7420626520656d70747900000000005f82015250565b5f613b0e601b83612b47565b9150613b1982613ada565b602082019050919050565b5f6020820190508181035f830152613b3b81613b02565b9050919050565b5f6040820190508181035f830152613b5a8185612b8f565b9050613b696020830184612d05565b9392505050565b5f613b7a82612be7565b9150613b8583612be7565b9250828203905081811115613b9d57613b9c6134a1565b5b92915050565b5f81519050919050565b5f82825260208201905092915050565b5f613bc782613ba3565b613bd18185613bad565b9350613be1818560208601612b57565b613bea81612b7f565b840191505092915050565b5f608082019050613c085f830187612c75565b613c156020830186612c75565b613c226040830185612d05565b8181036060830152613c348184613bbd565b905095945050505050565b5f81519050613c4d81612ab5565b92915050565b5f60208284031215613c6857613c67612a82565b5b5f613c7584828501613c3f565b91505092915050565b5f81905092915050565b5f613c9282612b3d565b613c9c8185613c7e565b9350613cac818560208601612b57565b80840191505092915050565b5f613cc38285613c88565b9150613ccf8284613c88565b91508190509392505050565b7f4e487b71000000000000000000000000000000000000000000000000000000005f52603160045260245ffd5b7f4e487b71000000000000000000000000000000000000000000000000000000005f52601260045260245ffdfea26469706673582212202e7dfd1c4cbd98bc3c975dd2d307e5310a8e42e6066852fdaa96945fe4d47cd064736f6c63430008140033","linkReferences":{}},"methodIdentifiers":{"approve(address,uint256)":"095ea7b3","balanceOf(address)":"70a08231","getApproved(uint256)":"081812fc","getOutfitsByOwner(address)":"31513471","getTokensByOwner(address)":"40398d67","isApprovedForAll(address,address)":"e985e9c5","maxSupply()":"d5abeb01","mint(address,string,string)":"99071190","mintPrice()":"6817c76c","name()":"06fdde03","outfitNames(uint256)":"8f36c502","owner()":"8da5cb5b","ownerOf(uint256)":"6352211e","ownsOutfit(address,string)":"58d9b25b","renounceOwnership()":"715018a6","safeTransferFrom(address,address,uint256)":"42842e0e","safeTransferFrom(address,address,uint256,bytes)":"b88d4fde","setApprovalForAll(address,bool)":"a22cb465","setBaseURI(string)":"55f804b3","setMintPrice(uint256)":"f4a0a528","supportsInterface(bytes4)":"01ffc9a7","symbol()":"95d89b41","tokenByIndex(uint256)":"4f6ccce7","tokenOfOwnerByIndex(address,uint256)":"2f745c59","tokenURI(uint256)":"c87b56dd","totalMinted()":"a2309ff8","totalSupply()":"18160ddd","transferFrom(address,address,uint256)":"23b872dd","transferOwnership(address)":"f2fde38b","withdraw()":"3ccfd60b"},"id":51}