{"abi":[{"type":"constructor","inputs":[],"stateMutability":"nonpayable"},{"type":"function","name":"CHUNK_SIZE","inputs":[],"outputs":[{"name":"","type":"uint256","internalType":"uint256"}],"stateMutability":"view"},{"type":"function","name":"approve","inputs":[{"name":"to","type":"address","internalType":"address"},{"name":"tokenId","type":"uint256","internalType":"uint256"}],"outputs":[],"stateMutability":"nonpayable"},{"type":"function","name":"balanceOf","inputs":[{"name":"owner","type":"address","internalType":"address"}],"outputs":[{"name":"","type":"uint256","internalType":"uint256"}],"stateMutability":"view"},{"type":"function","name":"coordinateToTokenId","inputs":[{"name":"","type":"bytes32","internalType":"bytes32"}],"outputs":[{"name":"","type":"uint256","internalType":"uint256"}],"stateMutability":"view"},{"type":"function","name":"getApproved","inputs":[{"name":"tokenId","type":"uint256","internalType":"uint256"}],"outputs":[{"name":"","type":"address","internalType":"address"}],"stateMutability":"view"},{"type":"function","name":"getLandInfo","inputs":[{"name":"tokenId","type":"uint256","internalType":"uint256"}],"outputs":[{"name":"x","type":"int256","internalType":"int256"},{"name":"z","type":"int256","internalType":"int256"},{"name":"owner","type":"address","internalType":"address"},{"name":"isForSale","type":"bool","internalType":"bool"},{"name":"salePrice","type":"uint256","internalType":"uint256"},{"name":"isRentable","type":"bool","internalType":"bool"},{"name":"rentPrice","type":"uint256","internalType":"uint256"},{"name":"renter","type":"address","internalType":"address"},{"name":"rentExpires","type":"uint256","internalType":"uint256"}],"stateMutability":"view"},{"type":"function","name":"harvestFromLand","inputs":[{"name":"tokenId","type":"uint256","internalType":"uint256"}],"outputs":[],"stateMutability":"nonpayable"},{"type":"function","name":"isApprovedForAll","inputs":[{"name":"owner","type":"address","internalType":"address"},{"name":"operator","type":"address","internalType":"address"}],"outputs":[{"name":"","type":"bool","internalType":"bool"}],"stateMutability":"view"},{"type":"function","name":"landChunks","inputs":[{"name":"","type":"uint256","internalType":"uint256"}],"outputs":[{"name":"x","type":"int256","internalType":"int256"},{"name":"z","type":"int256","internalType":"int256"},{"name":"lastHarvested","type":"uint256","internalType":"uint256"},{"name":"isForSale","type":"bool","internalType":"bool"},{"name":"salePrice","type":"uint256","internalType":"uint256"},{"name":"isRentable","type":"bool","internalType":"bool"},{"name":"rentPrice","type":"uint256","internalType":"uint256"},{"name":"renter","type":"address","internalType":"address"},{"name":"rentExpires","type":"uint256","internalType":"uint256"}],"stateMutability":"view"},{"type":"function","name":"landPrice","inputs":[],"outputs":[{"name":"","type":"uint256","internalType":"uint256"}],"stateMutability":"view"},{"type":"function","name":"mintLand","inputs":[{"name":"x","type":"int256","internalType":"int256"},{"name":"z","type":"int256","internalType":"int256"}],"outputs":[{"name":"","type":"uint256","internalType":"uint256"}],"stateMutability":"payable"},{"type":"function","name":"name","inputs":[],"outputs":[{"name":"","type":"string","internalType":"string"}],"stateMutability":"view"},{"type":"function","name":"owner","inputs":[],"outputs":[{"name":"","type":"address","internalType":"address"}],"stateMutability":"view"},{"type":"function","name":"ownerOf","inputs":[{"name":"tokenId","type":"uint256","internalType":"uint256"}],"outputs":[{"name":"","type":"address","internalType":"address"}],"stateMutability":"view"},{"type":"function","name":"renounceOwnership","inputs":[],"outputs":[],"stateMutability":"nonpayable"},{"type":"function","name":"rentLand","inputs":[{"name":"tokenId","type":"uint256","internalType":"uint256"},{"name":"durationDays","type":"uint256","internalType":"uint256"}],"outputs":[],"stateMutability":"payable"},{"type":"function","name":"safeTransferFrom","inputs":[{"name":"from","type":"address","internalType":"address"},{"name":"to","type":"address","internalType":"address"},{"name":"tokenId","type":"uint256","internalType":"uint256"}],"outputs":[],"stateMutability":"nonpayable"},{"type":"function","name":"safeTransferFrom","inputs":[{"name":"from","type":"address","internalType":"address"},{"name":"to","type":"address","internalType":"address"},{"name":"tokenId","type":"uint256","internalType":"uint256"},{"name":"data","type":"bytes","internalType":"bytes"}],"outputs":[],"stateMutability":"nonpayable"},{"type":"function","name":"setApprovalForAll","inputs":[{"name":"operator","type":"address","internalType":"address"},{"name":"approved","type":"bool","internalType":"bool"}],"outputs":[],"stateMutability":"nonpayable"},{"type":"function","name":"setLandForSale","inputs":[{"name":"tokenId","type":"uint256","internalType":"uint256"},{"name":"forSale","type":"bool","internalType":"bool"},{"name":"price","type":"uint256","internalType":"uint256"}],"outputs":[],"stateMutability":"nonpayable"},{"type":"function","name":"setLandPrice","inputs":[{"name":"_newPrice","type":"uint256","internalType":"uint256"}],"outputs":[],"stateMutability":"nonpayable"},{"type":"function","name":"setLandRentable","inputs":[{"name":"tokenId","type":"uint256","internalType":"uint256"},{"name":"rentable","type":"bool","internalType":"bool"},{"name":"dailyPrice","type":"uint256","internalType":"uint256"}],"outputs":[],"stateMutability":"nonpayable"},{"type":"function","name":"supportsInterface","inputs":[{"name":"interfaceId","type":"bytes4","internalType":"bytes4"}],"outputs":[{"name":"","type":"bool","internalType":"bool"}],"stateMutability":"view"},{"type":"function","name":"symbol","inputs":[],"outputs":[{"name":"","type":"string","internalType":"string"}],"stateMutability":"view"},{"type":"function","name":"tokenURI","inputs":[{"name":"tokenId","type":"uint256","internalType":"uint256"}],"outputs":[{"name":"","type":"string","internalType":"string"}],"stateMutability":"view"},{"type":"function","name":"totalSupply","inputs":[],"outputs":[{"name":"","type":"uint256","internalType":"uint256"}],"stateMutability":"view"},{"type":"function","name":"transferFrom","inputs":[{"name":"from","type":"address","internalType":"address"},{"name":"to","type":"address","internalType":"address"},{"name":"tokenId","type":"uint256","internalType":"uint256"}],"outputs":[],"stateMutability":"nonpayable"},{"type":"function","name":"transferOwnership","inputs":[{"name":"newOwner","type":"address","internalType":"address"}],"outputs":[],"stateMutability":"nonpayable"},{"type":"function","name":"withdraw","inputs":[],"outputs":[],"stateMutability":"nonpayable"},{"type":"event","name":"Approval","inputs":[{"name":"owner","type":"address","indexed":true,"internalType":"address"},{"name":"approved","type":"address","indexed":true,"internalType":"address"},{"name":"tokenId","type":"uint256","indexed":true,"internalType":"uint256"}],"anonymous":false},{"type":"event","name":"ApprovalForAll","inputs":[{"name":"owner","type":"address","indexed":true,"internalType":"address"},{"name":"operator","type":"address","indexed":true,"internalType":"address"},{"name":"approved","type":"bool","indexed":false,"internalType":"bool"}],"anonymous":false},{"type":"event","name":"LandMinted","inputs":[{"name":"to","type":"address","indexed":true,"internalType":"address"},{"name":"tokenId","type":"uint256","indexed":true,"internalType":"uint256"},{"name":"x","type":"int256","indexed":false,"internalType":"int256"},{"name":"z","type":"int256","indexed":false,"internalType":"int256"}],"anonymous":false},{"type":"event","name":"LandRented","inputs":[{"name":"tokenId","type":"uint256","indexed":true,"internalType":"uint256"},{"name":"renter","type":"address","indexed":true,"internalType":"address"},{"name":"duration","type":"uint256","indexed":false,"internalType":"uint256"},{"name":"price","type":"uint256","indexed":false,"internalType":"uint256"}],"anonymous":false},{"type":"event","name":"LandSaleStatusChanged","inputs":[{"name":"tokenId","type":"uint256","indexed":true,"internalType":"uint256"},{"name":"isForSale","type":"bool","indexed":false,"internalType":"bool"},{"name":"price","type":"uint256","indexed":false,"internalType":"uint256"}],"anonymous":false},{"type":"event","name":"OwnershipTransferred","inputs":[{"name":"previousOwner","type":"address","indexed":true,"internalType":"address"},{"name":"newOwner","type":"address","indexed":true,"internalType":"address"}],"anonymous":false},{"type":"event","name":"Transfer","inputs":[{"name":"from","type":"address","indexed":true,"internalType":"address"},{"name":"to","type":"address","indexed":true,"internalType":"address"},{"name":"tokenId","type":"uint256","indexed":true,"internalType":"uint256"}],"anonymous":false},{"type":"error","name":"ERC721IncorrectOwner","inputs":[{"name":"sender","type":"address","internalType":"address"},{"name":"tokenId","type":"uint256","internalType":"uint256"},{"name":"owner","type":"address","internalType":"address"}]},{"type":"error","name":"ERC721InsufficientApproval","inputs":[{"name":"operator","type":"address","internalType":"address"},{"name":"tokenId","type":"uint256","internalType":"uint256"}]},{"type":"error","name":"ERC721InvalidApprover","inputs":[{"name":"approver","type":"address","internalType":"address"}]},{"type":"error","name":"ERC721InvalidOperator","inputs":[{"name":"operator","type":"address","internalType":"address"}]},{"type":"error","name":"ERC721InvalidOwner","inputs":[{"name":"owner","type":"address","internalType":"address"}]},{"type":"error","name":"ERC721InvalidReceiver","inputs":[{"name":"receiver","type":"address","internalType":"address"}]},{"type":"error","name":"ERC721InvalidSender","inputs":[{"name":"sender","type":"address","internalType":"address"}]},{"type":"error","name":"ERC721NonexistentToken","inputs":[{"name":"tokenId","type":"uint256","internalType":"uint256"}]},{"type":"error","name":"OwnableInvalidOwner","inputs":[{"name":"owner","type":"address","internalType":"address"}]},{"type":"error","name":"OwnableUnauthorizedAccount","inputs":[{"name":"account","type":"address","internalType":"address"}]}],"bytecode":{"object":"0x608060405266038d7ea4c680006008553480156200001b575f80fd5b50336040518060400160405280600f81526020017f426c6f636b6372616674204c616e6400000000000000000000000000000000008152506040518060400160405280600681526020017f42434c414e440000000000000000000000000000000000000000000000000000815250815f908162000099919062000460565b508060019081620000ab919062000460565b5050505f73ffffffffffffffffffffffffffffffffffffffff168173ffffffffffffffffffffffffffffffffffffffff160362000121575f6040517f1e4fbdf700000000000000000000000000000000000000000000000000000000815260040162000118919062000587565b60405180910390fd5b62000132816200013960201b60201c565b50620005a2565b5f60065f9054906101000a900473ffffffffffffffffffffffffffffffffffffffff1690508160065f6101000a81548173ffffffffffffffffffffffffffffffffffffffff021916908373ffffffffffffffffffffffffffffffffffffffff1602179055508173ffffffffffffffffffffffffffffffffffffffff168173ffffffffffffffffffffffffffffffffffffffff167f8be0079c531659141344cd1fd0a4f28419497f9722a3daafe3b4186f6b6457e060405160405180910390a35050565b5f81519050919050565b7f4e487b71000000000000000000000000000000000000000000000000000000005f52604160045260245ffd5b7f4e487b71000000000000000000000000000000000000000000000000000000005f52602260045260245ffd5b5f60028204905060018216806200027857607f821691505b6020821081036200028e576200028d62000233565b5b50919050565b5f819050815f5260205f209050919050565b5f6020601f8301049050919050565b5f82821b905092915050565b5f60088302620002f27fffffffffffffffffffffffffffffffffffffffffffffffffffffffffffffffff82620002b5565b620002fe8683620002b5565b95508019841693508086168417925050509392505050565b5f819050919050565b5f819050919050565b5f62000348620003426200033c8462000316565b6200031f565b62000316565b9050919050565b5f819050919050565b620003638362000328565b6200037b62000372826200034f565b848454620002c1565b825550505050565b5f90565b6200039162000383565b6200039e81848462000358565b505050565b5b81811015620003c557620003b95f8262000387565b600181019050620003a4565b5050565b601f8211156200041457620003de8162000294565b620003e984620002a6565b81016020851015620003f9578190505b620004116200040885620002a6565b830182620003a3565b50505b505050565b5f82821c905092915050565b5f620004365f198460080262000419565b1980831691505092915050565b5f62000450838362000425565b9150826002028217905092915050565b6200046b82620001fc565b67ffffffffffffffff81111562000487576200048662000206565b5b62000493825462000260565b620004a0828285620003c9565b5f60209050601f831160018114620004d6575f8415620004c1578287015190505b620004cd858262000443565b8655506200053c565b601f198416620004e68662000294565b5f5b828110156200050f57848901518255600182019150602085019450602081019050620004e8565b868310156200052f57848901516200052b601f89168262000425565b8355505b6001600288020188555050505b505050505050565b5f73ffffffffffffffffffffffffffffffffffffffff82169050919050565b5f6200056f8262000544565b9050919050565b620005818162000563565b82525050565b5f6020820190506200059c5f83018462000576565b92915050565b61362880620005b05f395ff3fe6080604052600436106101c1575f3560e01c806376726626116100f6578063c349dd2411610094578063e91e13a911610063578063e91e13a91461063d578063e985e9c514610667578063f2fde38b146106a3578063fc22c15c146106cb576101c1565b8063c349dd2414610595578063c87b56dd146105bd578063dd2d8e2d146105f9578063e2fb350814610621576101c1565b8063960ca62a116100d0578063960ca62a146104d1578063a22cb46514610515578063b88d4fde1461053d578063bdbd013614610565576101c1565b806376726626146104415780638da5cb5b1461047d57806395d89b41146104a7576101c1565b80633ccfd60b116101635780636f6f9bef1161013d5780636f6f9bef1461038357806370a08231146103c7578063715018a614610403578063736cf00f14610419576101c1565b80633ccfd60b1461030957806342842e0e1461031f5780636352211e14610347576101c1565b8063081812fc1161019f578063081812fc14610253578063095ea7b31461028f57806318160ddd146102b757806323b872dd146102e1576101c1565b806301ffc9a7146101c5578063022565f11461020157806306fdde0314610229575b5f80fd5b3480156101d0575f80fd5b506101eb60048036038101906101e6919061274f565b6106f5565b6040516101f89190612794565b60405180910390f35b34801561020c575f80fd5b50610227600480360381019061022291906127e0565b6107d6565b005b348015610234575f80fd5b5061023d6107e8565b60405161024a9190612895565b60405180910390f35b34801561025e575f80fd5b50610279600480360381019061027491906127e0565b610877565b60405161028691906128f4565b60405180910390f35b34801561029a575f80fd5b506102b560048036038101906102b09190612937565b610892565b005b3480156102c2575f80fd5b506102cb6108a8565b6040516102d89190612984565b60405180910390f35b3480156102ec575f80fd5b506103076004803603810190610302919061299d565b6108b1565b005b348015610314575f80fd5b5061031d6109b0565b005b34801561032a575f80fd5b506103456004803603810190610340919061299d565b610a0a565b005b348015610352575f80fd5b5061036d600480360381019061036891906127e0565b610a29565b60405161037a91906128f4565b60405180910390f35b34801561038e575f80fd5b506103a960048036038101906103a491906127e0565b610a3a565b6040516103be99989796959493929190612a05565b60405180910390f35b3480156103d2575f80fd5b506103ed60048036038101906103e89190612a90565b610bee565b6040516103fa9190612984565b60405180910390f35b34801561040e575f80fd5b50610417610ca4565b005b348015610424575f80fd5b5061043f600480360381019061043a91906127e0565b610cb7565b005b34801561044c575f80fd5b5061046760048036038101906104629190612aee565b610e8b565b6040516104749190612984565b60405180910390f35b348015610488575f80fd5b50610491610ea0565b60405161049e91906128f4565b60405180910390f35b3480156104b2575f80fd5b506104bb610ec8565b6040516104c89190612895565b60405180910390f35b3480156104dc575f80fd5b506104f760048036038101906104f291906127e0565b610f58565b60405161050c99989796959493929190612b19565b60405180910390f35b348015610520575f80fd5b5061053b60048036038101906105369190612bce565b610fd9565b005b348015610548575f80fd5b50610563600480360381019061055e9190612d38565b610fef565b005b61057f600480360381019061057a9190612de2565b611014565b60405161058c9190612984565b60405180910390f35b3480156105a0575f80fd5b506105bb60048036038101906105b69190612e20565b61129f565b005b3480156105c8575f80fd5b506105e360048036038101906105de91906127e0565b61138d565b6040516105f09190612895565b60405180910390f35b348015610604575f80fd5b5061061f600480360381019061061a9190612e20565b6113f3565b005b61063b60048036038101906106369190612e70565b6114a7565b005b348015610648575f80fd5b50610651611782565b60405161065e9190612984565b60405180910390f35b348015610672575f80fd5b5061068d60048036038101906106889190612eae565b611787565b60405161069a9190612794565b60405180910390f35b3480156106ae575f80fd5b506106c960048036038101906106c49190612a90565b611815565b005b3480156106d6575f80fd5b506106df611899565b6040516106ec9190612984565b60405180910390f35b5f7f80ac58cd000000000000000000000000000000000000000000000000000000007bffffffffffffffffffffffffffffffffffffffffffffffffffffffff1916827bffffffffffffffffffffffffffffffffffffffffffffffffffffffff191614806107bf57507f5b5e139f000000000000000000000000000000000000000000000000000000007bffffffffffffffffffffffffffffffffffffffffffffffffffffffff1916827bffffffffffffffffffffffffffffffffffffffffffffffffffffffff1916145b806107cf57506107ce8261189f565b5b9050919050565b6107de611908565b8060088190555050565b60605f80546107f690612f19565b80601f016020809104026020016040519081016040528092919081815260200182805461082290612f19565b801561086d5780601f106108445761010080835404028352916020019161086d565b820191905f5260205f20905b81548152906001019060200180831161085057829003601f168201915b5050505050905090565b5f6108818261198f565b5061088b82611a15565b9050919050565b6108a4828261089f611a4e565b611a55565b5050565b5f600754905090565b5f73ffffffffffffffffffffffffffffffffffffffff168273ffffffffffffffffffffffffffffffffffffffff1603610921575f6040517f64a0ae9200000000000000000000000000000000000000000000000000000000815260040161091891906128f4565b60405180910390fd5b5f610934838361092f611a4e565b611a67565b90508373ffffffffffffffffffffffffffffffffffffffff168173ffffffffffffffffffffffffffffffffffffffff16146109aa578382826040517f64283d7b0000000000000000000000000000000000000000000000000000000081526004016109a193929190612f49565b60405180910390fd5b50505050565b6109b8611908565b5f4790506109c4610ea0565b73ffffffffffffffffffffffffffffffffffffffff166108fc8290811502906040515f60405180830381858888f19350505050158015610a06573d5f803e3d5ffd5b5050565b610a2483838360405180602001604052805f815250610fef565b505050565b5f610a338261198f565b9050919050565b5f805f805f805f805f8073ffffffffffffffffffffffffffffffffffffffff16610a638b611c72565b73ffffffffffffffffffffffffffffffffffffffff1603610ab9576040517f08c379a0000000000000000000000000000000000000000000000000000000008152600401610ab090612fc8565b60405180910390fd5b5f60095f8c81526020019081526020015f20604051806101200160405290815f82015481526020016001820154815260200160028201548152602001600382015f9054906101000a900460ff1615151515815260200160048201548152602001600582015f9054906101000a900460ff1615151515815260200160068201548152602001600782015f9054906101000a900473ffffffffffffffffffffffffffffffffffffffff1673ffffffffffffffffffffffffffffffffffffffff1673ffffffffffffffffffffffffffffffffffffffff1681526020016008820154815250509050805f01518160200151610baf8d610a29565b836060015184608001518560a001518660c001518760e00151886101000151995099509950995099509950995099509950509193959799909294969850565b5f8073ffffffffffffffffffffffffffffffffffffffff168273ffffffffffffffffffffffffffffffffffffffff1603610c5f575f6040517f89c62b64000000000000000000000000000000000000000000000000000000008152600401610c5691906128f4565b60405180910390fd5b60035f8373ffffffffffffffffffffffffffffffffffffffff1673ffffffffffffffffffffffffffffffffffffffff1681526020019081526020015f20549050919050565b610cac611908565b610cb55f611cab565b565b5f73ffffffffffffffffffffffffffffffffffffffff16610cd782611c72565b73ffffffffffffffffffffffffffffffffffffffff1603610d2d576040517f08c379a0000000000000000000000000000000000000000000000000000000008152600401610d2490612fc8565b60405180910390fd5b5f60095f8381526020019081526020015f2090505f610d4b83610a29565b90505f8173ffffffffffffffffffffffffffffffffffffffff163373ffffffffffffffffffffffffffffffffffffffff161480610de657503373ffffffffffffffffffffffffffffffffffffffff16836007015f9054906101000a900473ffffffffffffffffffffffffffffffffffffffff1673ffffffffffffffffffffffffffffffffffffffff16148015610de5575082600801544211155b5b905080610e28576040517f08c379a0000000000000000000000000000000000000000000000000000000008152600401610e1f90613030565b60405180910390fd5b610e108360020154610e3a919061307b565b421015610e7c576040517f08c379a0000000000000000000000000000000000000000000000000000000008152600401610e73906130f8565b60405180910390fd5b42836002018190555050505050565b600a602052805f5260405f205f915090505481565b5f60065f9054906101000a900473ffffffffffffffffffffffffffffffffffffffff16905090565b606060018054610ed790612f19565b80601f0160208091040260200160405190810160405280929190818152602001828054610f0390612f19565b8015610f4e5780601f10610f2557610100808354040283529160200191610f4e565b820191905f5260205f20905b815481529060010190602001808311610f3157829003601f168201915b5050505050905090565b6009602052805f5260405f205f91509050805f015490806001015490806002015490806003015f9054906101000a900460ff1690806004015490806005015f9054906101000a900460ff1690806006015490806007015f9054906101000a900473ffffffffffffffffffffffffffffffffffffffff16908060080154905089565b610feb610fe4611a4e565b8383611d6e565b5050565b610ffa8484846108b1565b61100e611005611a4e565b85858585611ed7565b50505050565b5f60085434101561105a576040517f08c379a000000000000000000000000000000000000000000000000000000000815260040161105190613160565b60405180910390fd5b5f838360405160200161106e92919061319e565b6040516020818303038152906040528051906020012090505f600a5f8381526020019081526020015f2054146110d9576040517f08c379a00000000000000000000000000000000000000000000000000000000081526004016110d090613213565b60405180910390fd5b60075f8154809291906110eb90613231565b91905055505f60075490506111003382612083565b6040518061012001604052808681526020018581526020014281526020015f151581526020015f81526020015f151581526020015f81526020015f73ffffffffffffffffffffffffffffffffffffffff1681526020015f81525060095f8381526020019081526020015f205f820151815f015560208201518160010155604082015181600201556060820151816003015f6101000a81548160ff0219169083151502179055506080820151816004015560a0820151816005015f6101000a81548160ff02191690831515021790555060c0820151816006015560e0820151816007015f6101000a81548173ffffffffffffffffffffffffffffffffffffffff021916908373ffffffffffffffffffffffffffffffffffffffff160217905550610100820151816008015590505080600a5f8481526020019081526020015f2081905550803373ffffffffffffffffffffffffffffffffffffffff167f2038b27331879d1becfbadecc1ac4a96acaaad0e8b3c0d71b2319bae33b104b2878760405161128c929190613278565b60405180910390a3809250505092915050565b3373ffffffffffffffffffffffffffffffffffffffff166112bf84610a29565b73ffffffffffffffffffffffffffffffffffffffff1614611315576040517f08c379a000000000000000000000000000000000000000000000000000000000815260040161130c906132e9565b60405180910390fd5b5f60095f8581526020019081526020015f20905082816003015f6101000a81548160ff021916908315150217905550818160040181905550837f98003fc97e57cf3e920ec95f68597c53cdaa2c332686acdb41a76a8f9dbca0fa848460405161137f929190613307565b60405180910390a250505050565b60606113988261198f565b505f6113a2612176565b90505f8151116113c05760405180602001604052805f8152506113eb565b806113ca8461218c565b6040516020016113db929190613368565b6040516020818303038152906040525b915050919050565b3373ffffffffffffffffffffffffffffffffffffffff1661141384610a29565b73ffffffffffffffffffffffffffffffffffffffff1614611469576040517f08c379a0000000000000000000000000000000000000000000000000000000008152600401611460906132e9565b60405180910390fd5b5f60095f8581526020019081526020015f20905082816005015f6101000a81548160ff02191690831515021790555081816006018190555050505050565b5f73ffffffffffffffffffffffffffffffffffffffff166114c783611c72565b73ffffffffffffffffffffffffffffffffffffffff160361151d576040517f08c379a000000000000000000000000000000000000000000000000000000000815260040161151490612fc8565b60405180910390fd5b5f60095f8481526020019081526020015f209050806005015f9054906101000a900460ff16611581576040517f08c379a0000000000000000000000000000000000000000000000000000000008152600401611578906133d5565b60405180910390fd5b5f73ffffffffffffffffffffffffffffffffffffffff16816007015f9054906101000a900473ffffffffffffffffffffffffffffffffffffffff1673ffffffffffffffffffffffffffffffffffffffff1614806115e15750806008015442115b611620576040517f08c379a00000000000000000000000000000000000000000000000000000000081526004016116179061343d565b60405180910390fd5b5f828260060154611631919061345b565b905080341015611676576040517f08c379a000000000000000000000000000000000000000000000000000000000815260040161166d90613160565b60405180910390fd5b33826007015f6101000a81548173ffffffffffffffffffffffffffffffffffffffff021916908373ffffffffffffffffffffffffffffffffffffffff16021790555062015180836116c7919061345b565b426116d2919061307b565b82600801819055505f6116e485610a29565b90508073ffffffffffffffffffffffffffffffffffffffff166108fc3490811502906040515f60405180830381858888f19350505050158015611729573d5f803e3d5ffd5b503373ffffffffffffffffffffffffffffffffffffffff16857f1b605793181864eece69e25665ad41b233544b2168748fdae00dbf44c9678db9868560405161177392919061349c565b60405180910390a35050505050565b601081565b5f60055f8473ffffffffffffffffffffffffffffffffffffffff1673ffffffffffffffffffffffffffffffffffffffff1681526020019081526020015f205f8373ffffffffffffffffffffffffffffffffffffffff1673ffffffffffffffffffffffffffffffffffffffff1681526020019081526020015f205f9054906101000a900460ff16905092915050565b61181d611908565b5f73ffffffffffffffffffffffffffffffffffffffff168173ffffffffffffffffffffffffffffffffffffffff160361188d575f6040517f1e4fbdf700000000000000000000000000000000000000000000000000000000815260040161188491906128f4565b60405180910390fd5b61189681611cab565b50565b60085481565b5f7f01ffc9a7000000000000000000000000000000000000000000000000000000007bffffffffffffffffffffffffffffffffffffffffffffffffffffffff1916827bffffffffffffffffffffffffffffffffffffffffffffffffffffffff1916149050919050565b611910611a4e565b73ffffffffffffffffffffffffffffffffffffffff1661192e610ea0565b73ffffffffffffffffffffffffffffffffffffffff161461198d57611951611a4e565b6040517f118cdaa700000000000000000000000000000000000000000000000000000000815260040161198491906128f4565b60405180910390fd5b565b5f8061199a83611c72565b90505f73ffffffffffffffffffffffffffffffffffffffff168173ffffffffffffffffffffffffffffffffffffffff1603611a0c57826040517f7e273289000000000000000000000000000000000000000000000000000000008152600401611a039190612984565b60405180910390fd5b80915050919050565b5f60045f8381526020019081526020015f205f9054906101000a900473ffffffffffffffffffffffffffffffffffffffff169050919050565b5f33905090565b611a628383836001612256565b505050565b5f80611a7284611c72565b90505f73ffffffffffffffffffffffffffffffffffffffff168373ffffffffffffffffffffffffffffffffffffffff1614611ab357611ab2818486612415565b5b5f73ffffffffffffffffffffffffffffffffffffffff168173ffffffffffffffffffffffffffffffffffffffff1614611b3e57611af25f855f80612256565b600160035f8373ffffffffffffffffffffffffffffffffffffffff1673ffffffffffffffffffffffffffffffffffffffff1681526020019081526020015f205f82825403925050819055505b5f73ffffffffffffffffffffffffffffffffffffffff168573ffffffffffffffffffffffffffffffffffffffff1614611bbd57600160035f8773ffffffffffffffffffffffffffffffffffffffff1673ffffffffffffffffffffffffffffffffffffffff1681526020019081526020015f205f82825401925050819055505b8460025f8681526020019081526020015f205f6101000a81548173ffffffffffffffffffffffffffffffffffffffff021916908373ffffffffffffffffffffffffffffffffffffffff160217905550838573ffffffffffffffffffffffffffffffffffffffff168273ffffffffffffffffffffffffffffffffffffffff167fddf252ad1be2c89b69c2b068fc378daa952ba7f163c4a11628f55a4df523b3ef60405160405180910390a4809150509392505050565b5f60025f8381526020019081526020015f205f9054906101000a900473ffffffffffffffffffffffffffffffffffffffff169050919050565b5f60065f9054906101000a900473ffffffffffffffffffffffffffffffffffffffff1690508160065f6101000a81548173ffffffffffffffffffffffffffffffffffffffff021916908373ffffffffffffffffffffffffffffffffffffffff1602179055508173ffffffffffffffffffffffffffffffffffffffff168173ffffffffffffffffffffffffffffffffffffffff167f8be0079c531659141344cd1fd0a4f28419497f9722a3daafe3b4186f6b6457e060405160405180910390a35050565b5f73ffffffffffffffffffffffffffffffffffffffff168273ffffffffffffffffffffffffffffffffffffffff1603611dde57816040517f5b08ba18000000000000000000000000000000000000000000000000000000008152600401611dd591906128f4565b60405180910390fd5b8060055f8573ffffffffffffffffffffffffffffffffffffffff1673ffffffffffffffffffffffffffffffffffffffff1681526020019081526020015f205f8473ffffffffffffffffffffffffffffffffffffffff1673ffffffffffffffffffffffffffffffffffffffff1681526020019081526020015f205f6101000a81548160ff0219169083151502179055508173ffffffffffffffffffffffffffffffffffffffff168373ffffffffffffffffffffffffffffffffffffffff167f17307eab39ab6107e8899845ad3d59bd9653f200f220920489ca2b5937696c3183604051611eca9190612794565b60405180910390a3505050565b5f8373ffffffffffffffffffffffffffffffffffffffff163b111561207c578273ffffffffffffffffffffffffffffffffffffffff1663150b7a02868685856040518563ffffffff1660e01b8152600401611f359493929190613515565b6020604051808303815f875af1925050508015611f7057506040513d601f19601f82011682018060405250810190611f6d9190613573565b60015b611ff1573d805f8114611f9e576040519150601f19603f3d011682016040523d82523d5f602084013e611fa3565b606091505b505f815103611fe957836040517f64a0ae92000000000000000000000000000000000000000000000000000000008152600401611fe091906128f4565b60405180910390fd5b805181602001fd5b63150b7a0260e01b7bffffffffffffffffffffffffffffffffffffffffffffffffffffffff1916817bffffffffffffffffffffffffffffffffffffffffffffffffffffffff19161461207a57836040517f64a0ae9200000000000000000000000000000000000000000000000000000000815260040161207191906128f4565b60405180910390fd5b505b5050505050565b5f73ffffffffffffffffffffffffffffffffffffffff168273ffffffffffffffffffffffffffffffffffffffff16036120f3575f6040517f64a0ae920000000000000000000000000000000000000000000000000000000081526004016120ea91906128f4565b60405180910390fd5b5f6120ff83835f611a67565b90505f73ffffffffffffffffffffffffffffffffffffffff168173ffffffffffffffffffffffffffffffffffffffff1614612171575f6040517f73c6ac6e00000000000000000000000000000000000000000000000000000000815260040161216891906128f4565b60405180910390fd5b505050565b606060405180602001604052805f815250905090565b60605f600161219a846124d8565b0190505f8167ffffffffffffffff8111156121b8576121b7612c14565b5b6040519080825280601f01601f1916602001820160405280156121ea5781602001600182028036833780820191505090505b5090505f82602001820190505b60011561224b578080600190039150507f3031323334353637383961626364656600000000000000000000000000000000600a86061a8153600a85816122405761223f61359e565b5b0494505f85036121f7575b819350505050919050565b808061228e57505f73ffffffffffffffffffffffffffffffffffffffff168273ffffffffffffffffffffffffffffffffffffffff1614155b156123c0575f61229d8461198f565b90505f73ffffffffffffffffffffffffffffffffffffffff168373ffffffffffffffffffffffffffffffffffffffff161415801561230757508273ffffffffffffffffffffffffffffffffffffffff168173ffffffffffffffffffffffffffffffffffffffff1614155b801561231a57506123188184611787565b155b1561235c57826040517fa9fbf51f00000000000000000000000000000000000000000000000000000000815260040161235391906128f4565b60405180910390fd5b81156123be57838573ffffffffffffffffffffffffffffffffffffffff168273ffffffffffffffffffffffffffffffffffffffff167f8c5be1e5ebec7d5bd14f71427d1e84f3dd0314c0f7b2291e5b200ac8c7c3b92560405160405180910390a45b505b8360045f8581526020019081526020015f205f6101000a81548173ffffffffffffffffffffffffffffffffffffffff021916908373ffffffffffffffffffffffffffffffffffffffff16021790555050505050565b612420838383612629565b6124d3575f73ffffffffffffffffffffffffffffffffffffffff168373ffffffffffffffffffffffffffffffffffffffff160361249457806040517f7e27328900000000000000000000000000000000000000000000000000000000815260040161248b9190612984565b60405180910390fd5b81816040517f177e802f0000000000000000000000000000000000000000000000000000000081526004016124ca9291906135cb565b60405180910390fd5b505050565b5f805f90507a184f03e93ff9f4daa797ed6e38ed64bf6a1f0100000000000000008310612534577a184f03e93ff9f4daa797ed6e38ed64bf6a1f010000000000000000838161252a5761252961359e565b5b0492506040810190505b6d04ee2d6d415b85acef81000000008310612571576d04ee2d6d415b85acef810000000083816125675761256661359e565b5b0492506020810190505b662386f26fc1000083106125a057662386f26fc1000083816125965761259561359e565b5b0492506010810190505b6305f5e10083106125c9576305f5e10083816125bf576125be61359e565b5b0492506008810190505b61271083106125ee5761271083816125e4576125e361359e565b5b0492506004810190505b6064831061261157606483816126075761260661359e565b5b0492506002810190505b600a8310612620576001810190505b80915050919050565b5f8073ffffffffffffffffffffffffffffffffffffffff168373ffffffffffffffffffffffffffffffffffffffff16141580156126e057508273ffffffffffffffffffffffffffffffffffffffff168473ffffffffffffffffffffffffffffffffffffffff1614806126a157506126a08484611787565b5b806126df57508273ffffffffffffffffffffffffffffffffffffffff166126c783611a15565b73ffffffffffffffffffffffffffffffffffffffff16145b5b90509392505050565b5f604051905090565b5f80fd5b5f80fd5b5f7fffffffff0000000000000000000000000000000000000000000000000000000082169050919050565b61272e816126fa565b8114612738575f80fd5b50565b5f8135905061274981612725565b92915050565b5f60208284031215612764576127636126f2565b5b5f6127718482850161273b565b91505092915050565b5f8115159050919050565b61278e8161277a565b82525050565b5f6020820190506127a75f830184612785565b92915050565b5f819050919050565b6127bf816127ad565b81146127c9575f80fd5b50565b5f813590506127da816127b6565b92915050565b5f602082840312156127f5576127f46126f2565b5b5f612802848285016127cc565b91505092915050565b5f81519050919050565b5f82825260208201905092915050565b5f5b83811015612842578082015181840152602081019050612827565b5f8484015250505050565b5f601f19601f8301169050919050565b5f6128678261280b565b6128718185612815565b9350612881818560208601612825565b61288a8161284d565b840191505092915050565b5f6020820190508181035f8301526128ad818461285d565b905092915050565b5f73ffffffffffffffffffffffffffffffffffffffff82169050919050565b5f6128de826128b5565b9050919050565b6128ee816128d4565b82525050565b5f6020820190506129075f8301846128e5565b92915050565b612916816128d4565b8114612920575f80fd5b50565b5f813590506129318161290d565b92915050565b5f806040838503121561294d5761294c6126f2565b5b5f61295a85828601612923565b925050602061296b858286016127cc565b9150509250929050565b61297e816127ad565b82525050565b5f6020820190506129975f830184612975565b92915050565b5f805f606084860312156129b4576129b36126f2565b5b5f6129c186828701612923565b93505060206129d286828701612923565b92505060406129e3868287016127cc565b9150509250925092565b5f819050919050565b6129ff816129ed565b82525050565b5f61012082019050612a195f83018c6129f6565b612a26602083018b6129f6565b612a33604083018a6128e5565b612a406060830189612785565b612a4d6080830188612975565b612a5a60a0830187612785565b612a6760c0830186612975565b612a7460e08301856128e5565b612a82610100830184612975565b9a9950505050505050505050565b5f60208284031215612aa557612aa46126f2565b5b5f612ab284828501612923565b91505092915050565b5f819050919050565b612acd81612abb565b8114612ad7575f80fd5b50565b5f81359050612ae881612ac4565b92915050565b5f60208284031215612b0357612b026126f2565b5b5f612b1084828501612ada565b91505092915050565b5f61012082019050612b2d5f83018c6129f6565b612b3a602083018b6129f6565b612b47604083018a612975565b612b546060830189612785565b612b616080830188612975565b612b6e60a0830187612785565b612b7b60c0830186612975565b612b8860e08301856128e5565b612b96610100830184612975565b9a9950505050505050505050565b612bad8161277a565b8114612bb7575f80fd5b50565b5f81359050612bc881612ba4565b92915050565b5f8060408385031215612be457612be36126f2565b5b5f612bf185828601612923565b9250506020612c0285828601612bba565b9150509250929050565b5f80fd5b5f80fd5b7f4e487b71000000000000000000000000000000000000000000000000000000005f52604160045260245ffd5b612c4a8261284d565b810181811067ffffffffffffffff82111715612c6957612c68612c14565b5b80604052505050565b5f612c7b6126e9565b9050612c878282612c41565b919050565b5f67ffffffffffffffff821115612ca657612ca5612c14565b5b612caf8261284d565b9050602081019050919050565b828183375f83830152505050565b5f612cdc612cd784612c8c565b612c72565b905082815260208101848484011115612cf857612cf7612c10565b5b612d03848285612cbc565b509392505050565b5f82601f830112612d1f57612d1e612c0c565b5b8135612d2f848260208601612cca565b91505092915050565b5f805f8060808587031215612d5057612d4f6126f2565b5b5f612d5d87828801612923565b9450506020612d6e87828801612923565b9350506040612d7f878288016127cc565b925050606085013567ffffffffffffffff811115612da057612d9f6126f6565b5b612dac87828801612d0b565b91505092959194509250565b612dc1816129ed565b8114612dcb575f80fd5b50565b5f81359050612ddc81612db8565b92915050565b5f8060408385031215612df857612df76126f2565b5b5f612e0585828601612dce565b9250506020612e1685828601612dce565b9150509250929050565b5f805f60608486031215612e3757612e366126f2565b5b5f612e44868287016127cc565b9350506020612e5586828701612bba565b9250506040612e66868287016127cc565b9150509250925092565b5f8060408385031215612e8657612e856126f2565b5b5f612e93858286016127cc565b9250506020612ea4858286016127cc565b9150509250929050565b5f8060408385031215612ec457612ec36126f2565b5b5f612ed185828601612923565b9250506020612ee285828601612923565b9150509250929050565b7f4e487b71000000000000000000000000000000000000000000000000000000005f52602260045260245ffd5b5f6002820490506001821680612f3057607f821691505b602082108103612f4357612f42612eec565b5b50919050565b5f606082019050612f5c5f8301866128e5565b612f696020830185612975565b612f7660408301846128e5565b949350505050565b7f4c616e6420646f6573206e6f74206578697374000000000000000000000000005f82015250565b5f612fb2601383612815565b9150612fbd82612f7e565b602082019050919050565b5f6020820190508181035f830152612fdf81612fa6565b9050919050565b7f4e6f7420617574686f72697a656420746f2068617276657374000000000000005f82015250565b5f61301a601983612815565b915061302582612fe6565b602082019050919050565b5f6020820190508181035f8301526130478161300e565b9050919050565b7f4e487b71000000000000000000000000000000000000000000000000000000005f52601160045260245ffd5b5f613085826127ad565b9150613090836127ad565b92508282019050808211156130a8576130a761304e565b5b92915050565b7f4861727665737420636f6f6c646f776e206e6f74206d657400000000000000005f82015250565b5f6130e2601883612815565b91506130ed826130ae565b602082019050919050565b5f6020820190508181035f83015261310f816130d6565b9050919050565b7f496e73756666696369656e74207061796d656e740000000000000000000000005f82015250565b5f61314a601483612815565b915061315582613116565b602082019050919050565b5f6020820190508181035f8301526131778161313e565b9050919050565b5f819050919050565b613198613193826129ed565b61317e565b82525050565b5f6131a98285613187565b6020820191506131b98284613187565b6020820191508190509392505050565b7f4c616e6420616c726561647920657869737473000000000000000000000000005f82015250565b5f6131fd601383612815565b9150613208826131c9565b602082019050919050565b5f6020820190508181035f83015261322a816131f1565b9050919050565b5f61323b826127ad565b91507fffffffffffffffffffffffffffffffffffffffffffffffffffffffffffffffff820361326d5761326c61304e565b5b600182019050919050565b5f60408201905061328b5f8301856129f6565b61329860208301846129f6565b9392505050565b7f4e6f7420746865206f776e6572000000000000000000000000000000000000005f82015250565b5f6132d3600d83612815565b91506132de8261329f565b602082019050919050565b5f6020820190508181035f830152613300816132c7565b9050919050565b5f60408201905061331a5f830185612785565b6133276020830184612975565b9392505050565b5f81905092915050565b5f6133428261280b565b61334c818561332e565b935061335c818560208601612825565b80840191505092915050565b5f6133738285613338565b915061337f8284613338565b91508190509392505050565b7f4c616e64206973206e6f742072656e7461626c650000000000000000000000005f82015250565b5f6133bf601483612815565b91506133ca8261338b565b602082019050919050565b5f6020820190508181035f8301526133ec816133b3565b9050919050565b7f4c616e6420697320616c72656164792072656e746564000000000000000000005f82015250565b5f613427601683612815565b9150613432826133f3565b602082019050919050565b5f6020820190508181035f8301526134548161341b565b9050919050565b5f613465826127ad565b9150613470836127ad565b925082820261347e816127ad565b915082820484148315176134955761349461304e565b5b5092915050565b5f6040820190506134af5f830185612975565b6134bc6020830184612975565b9392505050565b5f81519050919050565b5f82825260208201905092915050565b5f6134e7826134c3565b6134f181856134cd565b9350613501818560208601612825565b61350a8161284d565b840191505092915050565b5f6080820190506135285f8301876128e5565b61353560208301866128e5565b6135426040830185612975565b818103606083015261355481846134dd565b905095945050505050565b5f8151905061356d81612725565b92915050565b5f60208284031215613588576135876126f2565b5b5f6135958482850161355f565b91505092915050565b7f4e487b71000000000000000000000000000000000000000000000000000000005f52601260045260245ffd5b5f6040820190506135de5f8301856128e5565b6135eb6020830184612975565b939250505056fea2646970667358221220930cfcab2096b95d2c103ebc65819bffbe81cecc80f8e21b0beb52e9fdebb8e964736f6c63430008140033","linkReferences":{}},"methodIdentifiers":{"CHUNK_SIZE()":"e91e13a9","approve(address,uint256)":"095ea7b3","balanceOf(address)":"70a08231","coordinateToTokenId(bytes32)":"76726626","getApproved(uint256)":"081812fc","getLandInfo(uint256)":"6f6f9bef","harvestFromLand(uint256)":"736cf00f","isApprovedForAll(address,address)":"e985e9c5","landChunks(uint256)":"960ca62a","landPrice()":"fc22c15c","mintLand(int256,int256)":"bdbd0136","name()":"06fdde03","owner()":"8da5cb5b","ownerOf(uint256)":"6352211e","renounceOwnership()":"715018a6","rentLand(uint256,uint256)":"e2fb3508","safeTransferFrom(address,address,uint256)":"42842e0e","safeTransferFrom(address,address,uint256,bytes)":"b88d4fde","setApprovalForAll(address,bool)":"a22cb465","setLandForSale(uint256,bool,uint256)":"c349dd24","setLandPrice(uint256)":"022565f1","setLandRentable(uint256,bool,uint256)":"dd2d8e2d","supportsInterface(bytes4)":"01ffc9a7","symbol()":"95d89b41","tokenURI(uint256)":"c87b56dd","totalSupply()":"18160ddd","transferFrom(address,address,uint256)":"23b872dd","transferOwnership(address)":"f2fde38b","withdraw()":"3ccfd60b"},"id":0}